{
  "_format": "hh-sol-artifact-1",
  "contractName": "ERC20PresetFixedSupply",
  "sourceName": "@openzeppelin/contracts/token/ERC20/presets/ERC20PresetFixedSupply.sol",
  "abi": [
    {
      "inputs": [
        {
          "internalType": "string",
          "name": "name",
          "type": "string"
        },
        {
          "internalType": "string",
          "name": "symbol",
          "type": "string"
        },
        {
          "internalType": "uint256",
          "name": "initialSupply",
          "type": "uint256"
        },
        {
          "internalType": "address",
          "name": "owner",
          "type": "address"
        }
      ],
      "stateMutability": "nonpayable",
      "type": "constructor"
    },
    {
      "anonymous": false,
      "inputs": [
        {
          "indexed": true,
          "internalType": "address",
          "name": "owner",
          "type": "address"
        },
        {
          "indexed": true,
          "internalType": "address",
          "name": "spender",
          "type": "address"
        },
        {
          "indexed": false,
          "internalType": "uint256",
          "name": "value",
          "type": "uint256"
        }
      ],
      "name": "Approval",
      "type": "event"
    },
    {
      "anonymous": false,
      "inputs": [
        {
          "indexed": true,
          "internalType": "address",
          "name": "from",
          "type": "address"
        },
        {
          "indexed": true,
          "internalType": "address",
          "name": "to",
          "type": "address"
        },
        {
          "indexed": false,
          "internalType": "uint256",
          "name": "value",
          "type": "uint256"
        }
      ],
      "name": "Transfer",
      "type": "event"
    },
    {
      "inputs": [
        {
          "internalType": "address",
          "name": "owner",
          "type": "address"
        },
        {
          "internalType": "address",
          "name": "spender",
          "type": "address"
        }
      ],
      "name": "allowance",
      "outputs": [
        {
          "internalType": "uint256",
          "name": "",
          "type": "uint256"
        }
      ],
      "stateMutability": "view",
      "type": "function"
    },
    {
      "inputs": [
        {
          "internalType": "address",
          "name": "spender",
          "type": "address"
        },
        {
          "internalType": "uint256",
          "name": "amount",
          "type": "uint256"
        }
      ],
      "name": "approve",
      "outputs": [
        {
          "internalType": "bool",
          "name": "",
          "type": "bool"
        }
      ],
      "stateMutability": "nonpayable",
      "type": "function"
    },
    {
      "inputs": [
        {
          "internalType": "address",
          "name": "account",
          "type": "address"
        }
      ],
      "name": "balanceOf",
      "outputs": [
        {
          "internalType": "uint256",
          "name": "",
          "type": "uint256"
        }
      ],
      "stateMutability": "view",
      "type": "function"
    },
    {
      "inputs": [
        {
          "internalType": "uint256",
          "name": "amount",
          "type": "uint256"
        }
      ],
      "name": "burn",
      "outputs": [],
      "stateMutability": "nonpayable",
      "type": "function"
    },
    {
      "inputs": [
        {
          "internalType": "address",
          "name": "account",
          "type": "address"
        },
        {
          "internalType": "uint256",
          "name": "amount",
          "type": "uint256"
        }
      ],
      "name": "burnFrom",
      "outputs": [],
      "stateMutability": "nonpayable",
      "type": "function"
    },
    {
      "inputs": [],
      "name": "decimals",
      "outputs": [
        {
          "internalType": "uint8",
          "name": "",
          "type": "uint8"
        }
      ],
      "stateMutability": "view",
      "type": "function"
    },
    {
      "inputs": [
        {
          "internalType": "address",
          "name": "spender",
          "type": "address"
        },
        {
          "internalType": "uint256",
          "name": "subtractedValue",
          "type": "uint256"
        }
      ],
      "name": "decreaseAllowance",
      "outputs": [
        {
          "internalType": "bool",
          "name": "",
          "type": "bool"
        }
      ],
      "stateMutability": "nonpayable",
      "type": "function"
    },
    {
      "inputs": [
        {
          "internalType": "address",
          "name": "spender",
          "type": "address"
        },
        {
          "internalType": "uint256",
          "name": "addedValue",
          "type": "uint256"
        }
      ],
      "name": "increaseAllowance",
      "outputs": [
        {
          "internalType": "bool",
          "name": "",
          "type": "bool"
        }
      ],
      "stateMutability": "nonpayable",
      "type": "function"
    },
    {
      "inputs": [],
      "name": "name",
      "outputs": [
        {
          "internalType": "string",
          "name": "",
          "type": "string"
        }
      ],
      "stateMutability": "view",
      "type": "function"
    },
    {
      "inputs": [],
      "name": "symbol",
      "outputs": [
        {
          "internalType": "string",
          "name": "",
          "type": "string"
        }
      ],
      "stateMutability": "view",
      "type": "function"
    },
    {
      "inputs": [],
      "name": "totalSupply",
      "outputs": [
        {
          "internalType": "uint256",
          "name": "",
          "type": "uint256"
        }
      ],
      "stateMutability": "view",
      "type": "function"
    },
    {
      "inputs": [
        {
          "internalType": "address",
          "name": "to",
          "type": "address"
        },
        {
          "internalType": "uint256",
          "name": "amount",
          "type": "uint256"
        }
      ],
      "name": "transfer",
      "outputs": [
        {
          "internalType": "bool",
          "name": "",
          "type": "bool"
        }
      ],
      "stateMutability": "nonpayable",
      "type": "function"
    },
    {
      "inputs": [
        {
          "internalType": "address",
          "name": "from",
          "type": "address"
        },
        {
          "internalType": "address",
          "name": "to",
          "type": "address"
        },
        {
          "internalType": "uint256",
          "name": "amount",
          "type": "uint256"
        }
      ],
      "name": "transferFrom",
      "outputs": [
        {
          "internalType": "bool",
          "name": "",
          "type": "bool"
        }
      ],
      "stateMutability": "nonpayable",
      "type": "function"
    }
  ],
  "bytecode": "0x60806040523480156200001157600080fd5b506040516200117e3803806200117e833981016040819052620000349162000202565b8383600362000044838262000325565b50600462000053828262000325565b5050506200006881836200007260201b60201c565b5050505062000419565b6001600160a01b038216620000cd5760405162461bcd60e51b815260206004820152601f60248201527f45524332303a206d696e7420746f20746865207a65726f206164647265737300604482015260640160405180910390fd5b8060026000828254620000e19190620003f1565b90915550506001600160a01b038216600081815260208181526040808320805486019055518481527fddf252ad1be2c89b69c2b068fc378daa952ba7f163c4a11628f55a4df523b3ef910160405180910390a35050565b505050565b634e487b7160e01b600052604160045260246000fd5b600082601f8301126200016557600080fd5b81516001600160401b03808211156200018257620001826200013d565b604051601f8301601f19908116603f01168101908282118183101715620001ad57620001ad6200013d565b81604052838152602092508683858801011115620001ca57600080fd5b600091505b83821015620001ee5785820183015181830184015290820190620001cf565b600093810190920192909252949350505050565b600080600080608085870312156200021957600080fd5b84516001600160401b03808211156200023157600080fd5b6200023f8883890162000153565b955060208701519150808211156200025657600080fd5b50620002658782880162000153565b60408701516060880151919550935090506001600160a01b03811681146200028c57600080fd5b939692955090935050565b600181811c90821680620002ac57607f821691505b602082108103620002cd57634e487b7160e01b600052602260045260246000fd5b50919050565b601f8211156200013857600081815260208120601f850160051c81016020861015620002fc5750805b601f850160051c820191505b818110156200031d5782815560010162000308565b505050505050565b81516001600160401b038111156200034157620003416200013d565b620003598162000352845462000297565b84620002d3565b602080601f831160018114620003915760008415620003785750858301515b600019600386901b1c1916600185901b1785556200031d565b600085815260208120601f198616915b82811015620003c257888601518255948401946001909101908401620003a1565b5085821015620003e15787850151600019600388901b60f8161c191681555b5050505050600190811b01905550565b808201808211156200041357634e487b7160e01b600052601160045260246000fd5b92915050565b610d5580620004296000396000f3fe608060405234801561001057600080fd5b50600436106100df5760003560e01c806342966c681161008c57806395d89b411161006657806395d89b41146101ca578063a457c2d7146101d2578063a9059cbb146101e5578063dd62ed3e146101f857600080fd5b806342966c681461016c57806370a082311461018157806379cc6790146101b757600080fd5b806323b872dd116100bd57806323b872dd14610137578063313ce5671461014a578063395093511461015957600080fd5b806306fdde03146100e4578063095ea7b31461010257806318160ddd14610125575b600080fd5b6100ec61023e565b6040516100f99190610b29565b60405180910390f35b610115610110366004610bbe565b6102d0565b60405190151581526020016100f9565b6002545b6040519081526020016100f9565b610115610145366004610be8565b6102ea565b604051601281526020016100f9565b610115610167366004610bbe565b61030e565b61017f61017a366004610c24565b61035a565b005b61012961018f366004610c3d565b73ffffffffffffffffffffffffffffffffffffffff1660009081526020819052604090205490565b61017f6101c5366004610bbe565b610367565b6100ec610380565b6101156101e0366004610bbe565b61038f565b6101156101f3366004610bbe565b610465565b610129610206366004610c5f565b73ffffffffffffffffffffffffffffffffffffffff918216600090815260016020908152604080832093909416825291909152205490565b60606003805461024d90610c92565b80601f016020809104026020016040519081016040528092919081815260200182805461027990610c92565b80156102c65780601f1061029b576101008083540402835291602001916102c6565b820191906000526020600020905b8154815290600101906020018083116102a957829003601f168201915b5050505050905090565b6000336102de818585610473565b60019150505b92915050565b6000336102f8858285610627565b6103038585856106fe565b506001949350505050565b33600081815260016020908152604080832073ffffffffffffffffffffffffffffffffffffffff871684529091528120549091906102de9082908690610355908790610ce5565b610473565b610364338261096d565b50565b610372823383610627565b61037c828261096d565b5050565b60606004805461024d90610c92565b33600081815260016020908152604080832073ffffffffffffffffffffffffffffffffffffffff8716845290915281205490919083811015610458576040517f08c379a000000000000000000000000000000000000000000000000000000000815260206004820152602560248201527f45524332303a2064656372656173656420616c6c6f77616e63652062656c6f7760448201527f207a65726f00000000000000000000000000000000000000000000000000000060648201526084015b60405180910390fd5b6103038286868403610473565b6000336102de8185856106fe565b73ffffffffffffffffffffffffffffffffffffffff8316610515576040517f08c379a0000000000000000000000000000000000000000000000000000000008152602060048201526024808201527f45524332303a20617070726f76652066726f6d20746865207a65726f2061646460448201527f7265737300000000000000000000000000000000000000000000000000000000606482015260840161044f565b73ffffffffffffffffffffffffffffffffffffffff82166105b8576040517f08c379a000000000000000000000000000000000000000000000000000000000815260206004820152602260248201527f45524332303a20617070726f766520746f20746865207a65726f20616464726560448201527f7373000000000000000000000000000000000000000000000000000000000000606482015260840161044f565b73ffffffffffffffffffffffffffffffffffffffff83811660008181526001602090815260408083209487168084529482529182902085905590518481527f8c5be1e5ebec7d5bd14f71427d1e84f3dd0314c0f7b2291e5b200ac8c7c3b92591015b60405180910390a3505050565b73ffffffffffffffffffffffffffffffffffffffff8381166000908152600160209081526040808320938616835292905220547fffffffffffffffffffffffffffffffffffffffffffffffffffffffffffffffff81146106f857818110156106eb576040517f08c379a000000000000000000000000000000000000000000000000000000000815260206004820152601d60248201527f45524332303a20696e73756666696369656e7420616c6c6f77616e6365000000604482015260640161044f565b6106f88484848403610473565b50505050565b73ffffffffffffffffffffffffffffffffffffffff83166107a1576040517f08c379a000000000000000000000000000000000000000000000000000000000815260206004820152602560248201527f45524332303a207472616e736665722066726f6d20746865207a65726f20616460448201527f6472657373000000000000000000000000000000000000000000000000000000606482015260840161044f565b73ffffffffffffffffffffffffffffffffffffffff8216610844576040517f08c379a000000000000000000000000000000000000000000000000000000000815260206004820152602360248201527f45524332303a207472616e7366657220746f20746865207a65726f206164647260448201527f6573730000000000000000000000000000000000000000000000000000000000606482015260840161044f565b73ffffffffffffffffffffffffffffffffffffffff8316600090815260208190526040902054818110156108fa576040517f08c379a000000000000000000000000000000000000000000000000000000000815260206004820152602660248201527f45524332303a207472616e7366657220616d6f756e742065786365656473206260448201527f616c616e63650000000000000000000000000000000000000000000000000000606482015260840161044f565b73ffffffffffffffffffffffffffffffffffffffff848116600081815260208181526040808320878703905593871680835291849020805487019055925185815290927fddf252ad1be2c89b69c2b068fc378daa952ba7f163c4a11628f55a4df523b3ef910160405180910390a36106f8565b73ffffffffffffffffffffffffffffffffffffffff8216610a10576040517f08c379a000000000000000000000000000000000000000000000000000000000815260206004820152602160248201527f45524332303a206275726e2066726f6d20746865207a65726f2061646472657360448201527f7300000000000000000000000000000000000000000000000000000000000000606482015260840161044f565b73ffffffffffffffffffffffffffffffffffffffff821660009081526020819052604090205481811015610ac6576040517f08c379a000000000000000000000000000000000000000000000000000000000815260206004820152602260248201527f45524332303a206275726e20616d6f756e7420657863656564732062616c616e60448201527f6365000000000000000000000000000000000000000000000000000000000000606482015260840161044f565b73ffffffffffffffffffffffffffffffffffffffff83166000818152602081815260408083208686039055600280548790039055518581529192917fddf252ad1be2c89b69c2b068fc378daa952ba7f163c4a11628f55a4df523b3ef910161061a565b600060208083528351808285015260005b81811015610b5657858101830151858201604001528201610b3a565b5060006040828601015260407fffffffffffffffffffffffffffffffffffffffffffffffffffffffffffffffe0601f8301168501019250505092915050565b803573ffffffffffffffffffffffffffffffffffffffff81168114610bb957600080fd5b919050565b60008060408385031215610bd157600080fd5b610bda83610b95565b946020939093013593505050565b600080600060608486031215610bfd57600080fd5b610c0684610b95565b9250610c1460208501610b95565b9150604084013590509250925092565b600060208284031215610c3657600080fd5b5035919050565b600060208284031215610c4f57600080fd5b610c5882610b95565b9392505050565b60008060408385031215610c7257600080fd5b610c7b83610b95565b9150610c8960208401610b95565b90509250929050565b600181811c90821680610ca657607f821691505b602082108103610cdf577f4e487b7100000000000000000000000000000000000000000000000000000000600052602260045260246000fd5b50919050565b808201808211156102e4577f4e487b7100000000000000000000000000000000000000000000000000000000600052601160045260246000fdfea2646970667358221220f94cc1fbaed6a4dd43e3eda45ccc568994b55819834f16e3214d4e290712093f64736f6c63430008140033",
  "linkReferences": {},
  "deployedLinkReferences": {}
}