{"contracts/mocks/Uni.sol":{"Uni":{"abi":[{"inputs":[{"internalType":"address","name":"account","type":"address"},{"internalType":"address","name":"minter_","type":"address"},{"internalType":"uint256","name":"mintingAllowedAfter_","type":"uint256"}],"payable":false,"stateMutability":"nonpayable","type":"constructor"},{"anonymous":false,"inputs":[{"indexed":true,"internalType":"address","name":"owner","type":"address"},{"indexed":true,"internalType":"address","name":"spender","type":"address"},{"indexed":false,"internalType":"uint256","name":"amount","type":"uint256"}],"name":"Approval","type":"event"},{"anonymous":false,"inputs":[{"indexed":true,"internalType":"address","name":"delegator","type":"address"},{"indexed":true,"internalType":"address","name":"fromDelegate","type":"address"},{"indexed":true,"internalType":"address","name":"toDelegate","type":"address"}],"name":"DelegateChanged","type":"event"},{"anonymous":false,"inputs":[{"indexed":true,"internalType":"address","name":"delegate","type":"address"},{"indexed":false,"internalType":"uint256","name":"previousBalance","type":"uint256"},{"indexed":false,"internalType":"uint256","name":"newBalance","type":"uint256"}],"name":"DelegateVotesChanged","type":"event"},{"anonymous":false,"inputs":[{"indexed":false,"internalType":"address","name":"minter","type":"address"},{"indexed":false,"internalType":"address","name":"newMinter","type":"address"}],"name":"MinterChanged","type":"event"},{"anonymous":false,"inputs":[{"indexed":true,"internalType":"address","name":"from","type":"address"},{"indexed":true,"internalType":"address","name":"to","type":"address"},{"indexed":false,"internalType":"uint256","name":"amount","type":"uint256"}],"name":"Transfer","type":"event"},{"constant":true,"inputs":[],"name":"DELEGATION_TYPEHASH","outputs":[{"internalType":"bytes32","name":"","type":"bytes32"}],"payable":false,"stateMutability":"view","type":"function"},{"constant":true,"inputs":[],"name":"DOMAIN_TYPEHASH","outputs":[{"internalType":"bytes32","name":"","type":"bytes32"}],"payable":false,"stateMutability":"view","type":"function"},{"constant":true,"inputs":[],"name":"PERMIT_TYPEHASH","outputs":[{"internalType":"bytes32","name":"","type":"bytes32"}],"payable":false,"stateMutability":"view","type":"function"},{"constant":true,"inputs":[{"internalType":"address","name":"account","type":"address"},{"internalType":"address","name":"spender","type":"address"}],"name":"allowance","outputs":[{"internalType":"uint256","name":"","type":"uint256"}],"payable":false,"stateMutability":"view","type":"function"},{"constant":false,"inputs":[{"internalType":"address","name":"spender","type":"address"},{"internalType":"uint256","name":"rawAmount","type":"uint256"}],"name":"approve","outputs":[{"internalType":"bool","name":"","type":"bool"}],"payable":false,"stateMutability":"nonpayable","type":"function"},{"constant":true,"inputs":[{"internalType":"address","name":"account","type":"address"}],"name":"balanceOf","outputs":[{"internalType":"uint256","name":"","type":"uint256"}],"payable":false,"stateMutability":"view","type":"function"},{"constant":true,"inputs":[{"internalType":"address","name":"","type":"address"},{"internalType":"uint32","name":"","type":"uint32"}],"name":"checkpoints","outputs":[{"internalType":"uint32","name":"fromBlock","type":"uint32"},{"internalType":"uint96","name":"votes","type":"uint96"}],"payable":false,"stateMutability":"view","type":"function"},{"constant":true,"inputs":[],"name":"decimals","outputs":[{"internalType":"uint8","name":"","type":"uint8"}],"payable":false,"stateMutability":"view","type":"function"},{"constant":false,"inputs":[{"internalType":"address","name":"delegatee","type":"address"}],"name":"delegate","outputs":[],"payable":false,"stateMutability":"nonpayable","type":"function"},{"constant":false,"inputs":[{"internalType":"address","name":"delegatee","type":"address"},{"internalType":"uint256","name":"nonce","type":"uint256"},{"internalType":"uint256","name":"expiry","type":"uint256"},{"internalType":"uint8","name":"v","type":"uint8"},{"internalType":"bytes32","name":"r","type":"bytes32"},{"internalType":"bytes32","name":"s","type":"bytes32"}],"name":"delegateBySig","outputs":[],"payable":false,"stateMutability":"nonpayable","type":"function"},{"constant":true,"inputs":[{"internalType":"address","name":"","type":"address"}],"name":"delegates","outputs":[{"internalType":"address","name":"","type":"address"}],"payable":false,"stateMutability":"view","type":"function"},{"constant":true,"inputs":[{"internalType":"address","name":"account","type":"address"}],"name":"getCurrentVotes","outputs":[{"internalType":"uint96","name":"","type":"uint96"}],"payable":false,"stateMutability":"view","type":"function"},{"constant":true,"inputs":[{"internalType":"address","name":"account","type":"address"},{"internalType":"uint256","name":"blockNumber","type":"uint256"}],"name":"getPriorVotes","outputs":[{"internalType":"uint96","name":"","type":"uint96"}],"payable":false,"stateMutability":"view","type":"function"},{"constant":true,"inputs":[],"name":"minimumTimeBetweenMints","outputs":[{"internalType":"uint32","name":"","type":"uint32"}],"payable":false,"stateMutability":"view","type":"function"},{"constant":false,"inputs":[{"internalType":"address","name":"dst","type":"address"},{"internalType":"uint256","name":"rawAmount","type":"uint256"}],"name":"mint","outputs":[],"payable":false,"stateMutability":"nonpayable","type":"function"},{"constant":true,"inputs":[],"name":"mintCap","outputs":[{"internalType":"uint8","name":"","type":"uint8"}],"payable":false,"stateMutability":"view","type":"function"},{"constant":true,"inputs":[],"name":"minter","outputs":[{"internalType":"address","name":"","type":"address"}],"payable":false,"stateMutability":"view","type":"function"},{"constant":true,"inputs":[],"name":"mintingAllowedAfter","outputs":[{"internalType":"uint256","name":"","type":"uint256"}],"payable":false,"stateMutability":"view","type":"function"},{"constant":true,"inputs":[],"name":"name","outputs":[{"internalType":"string","name":"","type":"string"}],"payable":false,"stateMutability":"view","type":"function"},{"constant":true,"inputs":[{"internalType":"address","name":"","type":"address"}],"name":"nonces","outputs":[{"internalType":"uint256","name":"","type":"uint256"}],"payable":false,"stateMutability":"view","type":"function"},{"constant":true,"inputs":[{"internalType":"address","name":"","type":"address"}],"name":"numCheckpoints","outputs":[{"internalType":"uint32","name":"","type":"uint32"}],"payable":false,"stateMutability":"view","type":"function"},{"constant":false,"inputs":[{"internalType":"address","name":"owner","type":"address"},{"internalType":"address","name":"spender","type":"address"},{"internalType":"uint256","name":"rawAmount","type":"uint256"},{"internalType":"uint256","name":"deadline","type":"uint256"},{"internalType":"uint8","name":"v","type":"uint8"},{"internalType":"bytes32","name":"r","type":"bytes32"},{"internalType":"bytes32","name":"s","type":"bytes32"}],"name":"permit","outputs":[],"payable":false,"stateMutability":"nonpayable","type":"function"},{"constant":false,"inputs":[{"internalType":"address","name":"minter_","type":"address"}],"name":"setMinter","outputs":[],"payable":false,"stateMutability":"nonpayable","type":"function"},{"constant":true,"inputs":[],"name":"symbol","outputs":[{"internalType":"string","name":"","type":"string"}],"payable":false,"stateMutability":"view","type":"function"},{"constant":true,"inputs":[],"name":"totalSupply","outputs":[{"internalType":"uint256","name":"","type":"uint256"}],"payable":false,"stateMutability":"view","type":"function"},{"constant":false,"inputs":[{"internalType":"address","name":"dst","type":"address"},{"internalType":"uint256","name":"rawAmount","type":"uint256"}],"name":"transfer","outputs":[{"internalType":"bool","name":"","type":"bool"}],"payable":false,"stateMutability":"nonpayable","type":"function"},{"constant":false,"inputs":[{"internalType":"address","name":"src","type":"address"},{"internalType":"address","name":"dst","type":"address"},{"internalType":"uint256","name":"rawAmount","type":"uint256"}],"name":"transferFrom","outputs":[{"internalType":"bool","name":"","type":"bool"}],"payable":false,"stateMutability":"nonpayable","type":"function"}],"evm":{"bytecode":{"linkReferences":{},"object":"60806040526b033b2e3c9fd0803ce80000006000553480156200002157600080fd5b506040516200341338038062003413833981016040819052620000449162000171565b42811015620000705760405162461bcd60e51b8152600401620000679062000273565b60405180910390fd5b600080546001600160a01b0385168083526004602052604080842080546001600160601b0319166001600160601b0390941693909317909255825491519092917fddf252ad1be2c89b69c2b068fc378daa952ba7f163c4a11628f55a4df523b3ef91620000de919062000285565b60405180910390a3600180546001600160a01b0319166001600160a01b0384811691909117918290556040517f3b0007eb941cf645526cbb3a4fdaecda9d28ce4843167d9263b536a1f1edc0f6926200013d926000929116906200024d565b60405180910390a160025550620002ec9050565b80516200015e81620002c7565b92915050565b80516200015e81620002e1565b6000806000606084860312156200018757600080fd5b600062000195868662000151565b9350506020620001a88682870162000151565b9250506040620001bb8682870162000164565b9150509250925092565b620001d081620002b3565b82525050565b620001d0816200029e565b6000620001f060398362000295565b7f556e693a3a636f6e7374727563746f723a206d696e74696e672063616e206f6e81527f6c7920626567696e206166746572206465706c6f796d656e7400000000000000602082015260400192915050565b620001d081620002b0565b604081016200025d8285620001c5565b6200026c6020830184620001d6565b9392505050565b602080825281016200015e81620001e1565b602081016200015e828462000242565b90815260200190565b60006001600160a01b0382166200015e565b90565b60006200015e8260006200015e826200029e565b620002d2816200029e565b8114620002de57600080fd5b50565b620002d281620002b0565b61311780620002fc6000396000f3fe608060405234801561001057600080fd5b50600436106101b95760003560e01c80636fcfff45116100f9578063b4b5ea5711610097578063dd62ed3e11610071578063dd62ed3e1461036b578063e7a324dc1461037e578063f1127ed814610386578063fca3b5aa146103a7576101b9565b8063b4b5ea5714610332578063c3cda52014610345578063d505accf14610358576101b9565b8063782d6fe1116100d3578063782d6fe1146102e45780637ecebe001461030457806395d89b4114610317578063a9059cbb1461031f576101b9565b80636fcfff45146102b657806370a08231146102c957806376c71ca1146102dc576101b9565b806330adf81f1161016657806340c10f191161014057806340c10f1914610266578063587cde1e1461027b5780635c11d62f1461028e5780635c19a95c146102a3576101b9565b806330adf81f1461024157806330b36cef14610249578063313ce56714610251576101b9565b806318160ddd1161019757806318160ddd1461021157806320606b701461022657806323b872dd1461022e576101b9565b806306fdde03146101be57806307546172146101dc578063095ea7b3146101f1575b600080fd5b6101c66103ba565b6040516101d39190612c72565b60405180910390f35b6101e46103f3565b6040516101d39190612b45565b6102046101ff3660046122aa565b61040f565b6040516101d39190612b6e565b610219610534565b6040516101d39190612b7c565b61021961053a565b61020461023c3660046121c1565b610551565b6102196106f5565b610219610701565b610259610707565b6040516101d39190612dac565b6102796102743660046122aa565b61070c565b005b6101e4610289366004612161565b6109fc565b610296610a24565b6040516101d39190612d83565b6102796102b1366004612161565b610a2c565b6102966102c4366004612161565b610a39565b6102196102d7366004612161565b610a51565b610259610a87565b6102f76102f23660046122aa565b610a8c565b6040516101d39190612dc8565b610219610312366004612161565b610d6e565b6101c6610d80565b61020461032d3660046122aa565b610db9565b6102f7610340366004612161565b610df5565b6102796103533660046122da565b610ea3565b61027961036636600461220e565b611128565b610219610379366004612187565b61155d565b6102196115a3565b610399610394366004612361565b6115af565b6040516101d3929190612d91565b6102796103b5366004612161565b6115ea565b6040518060400160405280600781526020017f556e69737761700000000000000000000000000000000000000000000000000081525081565b60015473ffffffffffffffffffffffffffffffffffffffff1681565b6000807fffffffffffffffffffffffffffffffffffffffffffffffffffffffffffffffff83141561046157507fffffffffffffffffffffffffffffffffffffffffffffffffffffffffffffffff610486565b61048383604051806060016040528060248152602001613082602491396116d6565b90505b33600081815260036020908152604080832073ffffffffffffffffffffffffffffffffffffffff891680855292529182902080547fffffffffffffffffffffffffffffffffffffffff000000000000000000000000166bffffffffffffffffffffffff861617905590519091907f8c5be1e5ebec7d5bd14f71427d1e84f3dd0314c0f7b2291e5b200ac8c7c3b92590610520908590612dba565b60405180910390a360019150505b92915050565b60005481565b60405161054690612b2f565b604051809103902081565b73ffffffffffffffffffffffffffffffffffffffff831660009081526003602090815260408083203380855290835281842054825160608101909352602480845291936bffffffffffffffffffffffff9091169285926105bb9288929190613082908301396116d6565b90508673ffffffffffffffffffffffffffffffffffffffff168373ffffffffffffffffffffffffffffffffffffffff161415801561060757506bffffffffffffffffffffffff82811614155b156106db57600061063183836040518060600160405280603c8152602001612f02603c9139611728565b73ffffffffffffffffffffffffffffffffffffffff8981166000818152600360209081526040808320948a16808452949091529081902080547fffffffffffffffffffffffffffffffffffffffff000000000000000000000000166bffffffffffffffffffffffff86161790555192935090917f8c5be1e5ebec7d5bd14f71427d1e84f3dd0314c0f7b2291e5b200ac8c7c3b925906106d1908590612dba565b60405180910390a3505b6106e687878361178b565b600193505050505b9392505050565b60405161054690612b24565b60025481565b601281565b60015473ffffffffffffffffffffffffffffffffffffffff163314610766576040517f08c379a000000000000000000000000000000000000000000000000000000000815260040161075d90612d13565b60405180910390fd5b6002544210156107a2576040517f08c379a000000000000000000000000000000000000000000000000000000000815260040161075d90612cd3565b73ffffffffffffffffffffffffffffffffffffffff82166107ef576040517f08c379a000000000000000000000000000000000000000000000000000000000815260040161075d90612cc3565b6107fd426301e133806119f2565b600281905550600061082782604051806060016040528060218152602001613061602191396116d6565b905061084361083c600054600260ff16611a31565b6064611a85565b816bffffffffffffffffffffffff16111561088a576040517f08c379a000000000000000000000000000000000000000000000000000000000815260040161075d90612d03565b6108c56108a7600054836bffffffffffffffffffffffff166119f2565b604051806060016040528060268152602001612f3e602691396116d6565b6bffffffffffffffffffffffff908116600090815573ffffffffffffffffffffffffffffffffffffffff85168152600460209081526040918290205482516060810190935260248084526109299491909116928592909190612ede90830139611ac7565b73ffffffffffffffffffffffffffffffffffffffff841660008181526004602052604080822080547fffffffffffffffffffffffffffffffffffffffff000000000000000000000000166bffffffffffffffffffffffff959095169490941790935591519091907fddf252ad1be2c89b69c2b068fc378daa952ba7f163c4a11628f55a4df523b3ef906109bd908590612dba565b60405180910390a373ffffffffffffffffffffffffffffffffffffffff8084166000908152600560205260408120546109f7921683611b22565b505050565b60056020526000908152604090205473ffffffffffffffffffffffffffffffffffffffff1681565b6301e1338081565b610a363382611d69565b50565b60076020526000908152604090205463ffffffff1681565b73ffffffffffffffffffffffffffffffffffffffff166000908152600460205260409020546bffffffffffffffffffffffff1690565b600281565b6000438210610ac7576040517f08c379a000000000000000000000000000000000000000000000000000000000815260040161075d90612cb3565b73ffffffffffffffffffffffffffffffffffffffff831660009081526007602052604090205463ffffffff1680610b0257600091505061052e565b73ffffffffffffffffffffffffffffffffffffffff8416600090815260066020908152604080832063ffffffff7fffffffffffffffffffffffffffffffffffffffffffffffffffffffffffffffff860181168552925290912054168310610bda5773ffffffffffffffffffffffffffffffffffffffff841660009081526006602090815260408083207fffffffffffffffffffffffffffffffffffffffffffffffffffffffffffffffff9490940163ffffffff168352929052205464010000000090046bffffffffffffffffffffffff16905061052e565b73ffffffffffffffffffffffffffffffffffffffff8416600090815260066020908152604080832083805290915290205463ffffffff16831015610c2257600091505061052e565b60007fffffffffffffffffffffffffffffffffffffffffffffffffffffffffffffffff82015b8163ffffffff168163ffffffff161115610d1657600282820363ffffffff16048103610c7261211e565b5073ffffffffffffffffffffffffffffffffffffffff8716600090815260066020908152604080832063ffffffff8581168552908352928190208151808301909252549283168082526401000000009093046bffffffffffffffffffffffff169181019190915290871415610cf15760200151945061052e9350505050565b805163ffffffff16871115610d0857819350610d0f565b6001820392505b5050610c48565b5073ffffffffffffffffffffffffffffffffffffffff8516600090815260066020908152604080832063ffffffff909416835292905220546bffffffffffffffffffffffff6401000000009091041691505092915050565b60086020526000908152604090205481565b6040518060400160405280600381526020017f554e49000000000000000000000000000000000000000000000000000000000081525081565b600080610dde8360405180606001604052806025815260200161303c602591396116d6565b9050610deb33858361178b565b5060019392505050565b73ffffffffffffffffffffffffffffffffffffffff811660009081526007602052604081205463ffffffff1680610e2d5760006106ee565b73ffffffffffffffffffffffffffffffffffffffff831660009081526006602090815260408083207fffffffffffffffffffffffffffffffffffffffffffffffffffffffffffffffff850163ffffffff16845290915290205464010000000090046bffffffffffffffffffffffff169392505050565b6000604051610eb190612b2f565b60408051918290038220828201909152600782527f556e6973776170000000000000000000000000000000000000000000000000006020909201919091527f99c45e8ee5dde061ced9c812089094fbd28a020e7e37f2851198887e5ca64985610f18611e1d565b30604051602001610f2c9493929190612c22565b6040516020818303038152906040528051906020012090506000604051610f5290612b3a565b604051908190038120610f6d918a908a908a90602001612be4565b60405160208183030381529060405280519060200120905060008282604051602001610f9a929190612af3565b604051602081830303815290604052805190602001209050600060018288888860405160008152602001604052604051610fd79493929190612c57565b6020604051602081039080840390855afa158015610ff9573d6000803e3d6000fd5b50506040517fffffffffffffffffffffffffffffffffffffffffffffffffffffffffffffffe0015191505073ffffffffffffffffffffffffffffffffffffffff8116611071576040517f08c379a000000000000000000000000000000000000000000000000000000000815260040161075d90612ca3565b73ffffffffffffffffffffffffffffffffffffffff8116600090815260086020526040902080546001810190915589146110d7576040517f08c379a000000000000000000000000000000000000000000000000000000000815260040161075d90612d33565b87421115611111576040517f08c379a000000000000000000000000000000000000000000000000000000000815260040161075d90612c83565b61111b818b611d69565b505050505b505050505050565b60007fffffffffffffffffffffffffffffffffffffffffffffffffffffffffffffffff86141561117957507fffffffffffffffffffffffffffffffffffffffffffffffffffffffffffffffff61119e565b61119b86604051806060016040528060238152602001612f99602391396116d6565b90505b60006040516111ac90612b2f565b60408051918290038220828201909152600782527f556e6973776170000000000000000000000000000000000000000000000000006020909201919091527f99c45e8ee5dde061ced9c812089094fbd28a020e7e37f2851198887e5ca64985611213611e1d565b306040516020016112279493929190612c22565b604051602081830303815290604052805190602001209050600060405161124d90612b24565b6040805191829003822073ffffffffffffffffffffffffffffffffffffffff8d1660009081526008602090815292902080546001810190915561129c9391928e928e928e9290918e9101612b8a565b604051602081830303815290604052805190602001209050600082826040516020016112c9929190612af3565b6040516020818303038152906040528051906020012090506000600182898989604051600081526020016040526040516113069493929190612c57565b6020604051602081039080840390855afa158015611328573d6000803e3d6000fd5b50506040517fffffffffffffffffffffffffffffffffffffffffffffffffffffffffffffffe0015191505073ffffffffffffffffffffffffffffffffffffffff81166113a0576040517f08c379a000000000000000000000000000000000000000000000000000000000815260040161075d90612d63565b8b73ffffffffffffffffffffffffffffffffffffffff168173ffffffffffffffffffffffffffffffffffffffff1614611405576040517f08c379a000000000000000000000000000000000000000000000000000000000815260040161075d90612d73565b8842111561143f576040517f08c379a000000000000000000000000000000000000000000000000000000000815260040161075d90612d53565b84600360008e73ffffffffffffffffffffffffffffffffffffffff1673ffffffffffffffffffffffffffffffffffffffff16815260200190815260200160002060008d73ffffffffffffffffffffffffffffffffffffffff1673ffffffffffffffffffffffffffffffffffffffff16815260200190815260200160002060006101000a8154816bffffffffffffffffffffffff02191690836bffffffffffffffffffffffff1602179055508a73ffffffffffffffffffffffffffffffffffffffff168c73ffffffffffffffffffffffffffffffffffffffff167f8c5be1e5ebec7d5bd14f71427d1e84f3dd0314c0f7b2291e5b200ac8c7c3b925876040516115479190612dba565b60405180910390a3505050505050505050505050565b73ffffffffffffffffffffffffffffffffffffffff91821660009081526003602090815260408083209390941682529190915220546bffffffffffffffffffffffff1690565b60405161054690612b3a565b600660209081526000928352604080842090915290825290205463ffffffff81169064010000000090046bffffffffffffffffffffffff1682565b60015473ffffffffffffffffffffffffffffffffffffffff16331461163b576040517f08c379a000000000000000000000000000000000000000000000000000000000815260040161075d90612d23565b6001546040517f3b0007eb941cf645526cbb3a4fdaecda9d28ce4843167d9263b536a1f1edc0f6916116879173ffffffffffffffffffffffffffffffffffffffff909116908490612b53565b60405180910390a1600180547fffffffffffffffffffffffff00000000000000000000000000000000000000001673ffffffffffffffffffffffffffffffffffffffff92909216919091179055565b6000816c010000000000000000000000008410611720576040517f08c379a000000000000000000000000000000000000000000000000000000000815260040161075d9190612c72565b509192915050565b6000836bffffffffffffffffffffffff16836bffffffffffffffffffffffff1611158290611783576040517f08c379a000000000000000000000000000000000000000000000000000000000815260040161075d9190612c72565b505050900390565b73ffffffffffffffffffffffffffffffffffffffff83166117d8576040517f08c379a000000000000000000000000000000000000000000000000000000000815260040161075d90612d43565b73ffffffffffffffffffffffffffffffffffffffff8216611825576040517f08c379a000000000000000000000000000000000000000000000000000000000815260040161075d90612ce3565b73ffffffffffffffffffffffffffffffffffffffff8316600090815260046020908152604091829020548251606081019093526035808452611882936bffffffffffffffffffffffff9092169285929190612f6490830139611728565b73ffffffffffffffffffffffffffffffffffffffff848116600090815260046020908152604080832080547fffffffffffffffffffffffffffffffffffffffff000000000000000000000000166bffffffffffffffffffffffff96871617905592861682529082902054825160608101909352602f80845261191494919091169285929091906130a690830139611ac7565b73ffffffffffffffffffffffffffffffffffffffff8381166000818152600460205260409081902080547fffffffffffffffffffffffffffffffffffffffff000000000000000000000000166bffffffffffffffffffffffff95909516949094179093559151908516907fddf252ad1be2c89b69c2b068fc378daa952ba7f163c4a11628f55a4df523b3ef906119ab908590612dba565b60405180910390a373ffffffffffffffffffffffffffffffffffffffff8084166000908152600560205260408082205485841683529120546109f792918216911683611b22565b6000828201838110156106ee576040517f08c379a000000000000000000000000000000000000000000000000000000000815260040161075d90612c93565b600082611a405750600061052e565b82820282848281611a4d57fe5b04146106ee576040517f08c379a000000000000000000000000000000000000000000000000000000000815260040161075d90612cf3565b60006106ee83836040518060400160405280601a81526020017f536166654d6174683a206469766973696f6e206279207a65726f000000000000815250611e21565b6000838301826bffffffffffffffffffffffff8087169083161015611b19576040517f08c379a000000000000000000000000000000000000000000000000000000000815260040161075d9190612c72565b50949350505050565b8173ffffffffffffffffffffffffffffffffffffffff168373ffffffffffffffffffffffffffffffffffffffff1614158015611b6c57506000816bffffffffffffffffffffffff16115b156109f75773ffffffffffffffffffffffffffffffffffffffff831615611c6f5773ffffffffffffffffffffffffffffffffffffffff831660009081526007602052604081205463ffffffff169081611bc6576000611c36565b73ffffffffffffffffffffffffffffffffffffffff851660009081526006602090815260408083207fffffffffffffffffffffffffffffffffffffffffffffffffffffffffffffffff860163ffffffff16845290915290205464010000000090046bffffffffffffffffffffffff165b90506000611c5d828560405180606001604052806027815260200161301560279139611728565b9050611c6b86848484611e72565b5050505b73ffffffffffffffffffffffffffffffffffffffff8216156109f75773ffffffffffffffffffffffffffffffffffffffff821660009081526007602052604081205463ffffffff169081611cc4576000611d34565b73ffffffffffffffffffffffffffffffffffffffff841660009081526006602090815260408083207fffffffffffffffffffffffffffffffffffffffffffffffffffffffffffffffff860163ffffffff16845290915290205464010000000090046bffffffffffffffffffffffff165b90506000611d5b8285604051806060016040528060268152602001612fbc60269139611ac7565b905061112085848484611e72565b73ffffffffffffffffffffffffffffffffffffffff808316600081815260056020818152604080842080546004845282862054949093528787167fffffffffffffffffffffffff000000000000000000000000000000000000000084168117909155905191909516946bffffffffffffffffffffffff9092169391928592917f3134e8a2e6d97e929a7e54011ea5485d7d196dd5f0ba4d4ef95803e8e3fc257f9190a4611e17828483611b22565b50505050565b4690565b60008183611e5c576040517f08c379a000000000000000000000000000000000000000000000000000000000815260040161075d9190612c72565b506000838581611e6857fe5b0495945050505050565b6000611e9643604051806060016040528060338152602001612fe2603391396120dc565b905060008463ffffffff16118015611f0a575073ffffffffffffffffffffffffffffffffffffffff8516600090815260066020908152604080832063ffffffff7fffffffffffffffffffffffffffffffffffffffffffffffffffffffffffffffff8901811685529252909120548282169116145b15611fa95773ffffffffffffffffffffffffffffffffffffffff851660009081526006602090815260408083207fffffffffffffffffffffffffffffffffffffffffffffffffffffffffffffffff880163ffffffff168452909152902080547fffffffffffffffffffffffffffffffff000000000000000000000000ffffffff166401000000006bffffffffffffffffffffffff851602179055612085565b60408051808201825263ffffffff80841682526bffffffffffffffffffffffff808616602080850191825273ffffffffffffffffffffffffffffffffffffffff8b166000818152600683528781208c871682528352878120965187549451909516640100000000027fffffffffffffffffffffffffffffffff000000000000000000000000ffffffff9587167fffffffffffffffffffffffffffffffffffffffffffffffffffffffff00000000958616179590951694909417909555938252600790935292909220805460018801909316929091169190911790555b8473ffffffffffffffffffffffffffffffffffffffff167fdec2bacdd2f05b59de34da9b523dff8be42e5e38e818c82fdb0bae774387a72484846040516120cd929190612dd6565b60405180910390a25050505050565b6000816401000000008410611720576040517f08c379a000000000000000000000000000000000000000000000000000000000815260040161075d9190612c72565b604080518082019091526000808252602082015290565b803561052e81612eae565b803561052e81612ec2565b803561052e81612ecb565b803561052e81612ed4565b60006020828403121561217357600080fd5b600061217f8484612135565b949350505050565b6000806040838503121561219a57600080fd5b60006121a68585612135565b92505060206121b785828601612135565b9150509250929050565b6000806000606084860312156121d657600080fd5b60006121e28686612135565b93505060206121f386828701612135565b925050604061220486828701612140565b9150509250925092565b600080600080600080600060e0888a03121561222957600080fd5b60006122358a8a612135565b97505060206122468a828b01612135565b96505060406122578a828b01612140565b95505060606122688a828b01612140565b94505060806122798a828b01612156565b93505060a061228a8a828b01612140565b92505060c061229b8a828b01612140565b91505092959891949750929550565b600080604083850312156122bd57600080fd5b60006122c98585612135565b92505060206121b785828601612140565b60008060008060008060c087890312156122f357600080fd5b60006122ff8989612135565b965050602061231089828a01612140565b955050604061232189828a01612140565b945050606061233289828a01612156565b935050608061234389828a01612140565b92505060a061235489828a01612140565b9150509295509295509295565b6000806040838503121561237457600080fd5b60006123808585612135565b92505060206121b78582860161214b565b61239a81612e03565b82525050565b61239a81612e0e565b61239a81612e13565b61239a6123be82612e13565b612e13565b60006123ce82612df1565b6123d88185612df5565b93506123e8818560208601612e5a565b6123f181612e86565b9093019392505050565b6000612408602583612df5565b7f556e693a3a64656c656761746542795369673a207369676e617475726520657881527f7069726564000000000000000000000000000000000000000000000000000000602082015260400192915050565b6000612467600283612dfe565b7f1901000000000000000000000000000000000000000000000000000000000000815260020192915050565b60006124a0601b83612df5565b7f536166654d6174683a206164646974696f6e206f766572666c6f770000000000815260200192915050565b60006124d9602583612df5565b7f556e693a3a64656c656761746542795369673a20696e76616c6964207369676e81527f6174757265000000000000000000000000000000000000000000000000000000602082015260400192915050565b6000612538602683612df5565b7f556e693a3a6765745072696f72566f7465733a206e6f7420796574206465746581527f726d696e65640000000000000000000000000000000000000000000000000000602082015260400192915050565b6000612597602e83612df5565b7f556e693a3a6d696e743a2063616e6e6f74207472616e7366657220746f20746881527f65207a65726f2061646472657373000000000000000000000000000000000000602082015260400192915050565b60006125f6605283612dfe565b7f5065726d69742861646472657373206f776e65722c616464726573732073706581527f6e6465722c75696e743235362076616c75652c75696e74323536206e6f6e636560208201527f2c75696e7432353620646561646c696e65290000000000000000000000000000604082015260520192915050565b600061267b602283612df5565b7f556e693a3a6d696e743a206d696e74696e67206e6f7420616c6c6f776564207981527f6574000000000000000000000000000000000000000000000000000000000000602082015260400192915050565b60006126da604383612dfe565b7f454950373132446f6d61696e28737472696e67206e616d652c75696e7432353681527f20636861696e49642c6164647265737320766572696679696e67436f6e74726160208201527f6374290000000000000000000000000000000000000000000000000000000000604082015260430192915050565b600061275f603983612df5565b7f556e693a3a5f7472616e73666572546f6b656e733a2063616e6e6f742074726181527f6e7366657220746f20746865207a65726f206164647265737300000000000000602082015260400192915050565b60006127be602183612df5565b7f536166654d6174683a206d756c7469706c69636174696f6e206f766572666c6f81527f7700000000000000000000000000000000000000000000000000000000000000602082015260400192915050565b600061281d601c83612df5565b7f556e693a3a6d696e743a206578636565646564206d696e742063617000000000815260200192915050565b6000612856602383612df5565b7f556e693a3a6d696e743a206f6e6c7920746865206d696e7465722063616e206d81527f696e740000000000000000000000000000000000000000000000000000000000602082015260400192915050565b60006128b5603d83612df5565b7f556e693a3a7365744d696e7465723a206f6e6c7920746865206d696e7465722081527f63616e206368616e676520746865206d696e7465722061646472657373000000602082015260400192915050565b6000612914602183612df5565b7f556e693a3a64656c656761746542795369673a20696e76616c6964206e6f6e6381527f6500000000000000000000000000000000000000000000000000000000000000602082015260400192915050565b6000612973603b83612df5565b7f556e693a3a5f7472616e73666572546f6b656e733a2063616e6e6f742074726181527f6e736665722066726f6d20746865207a65726f20616464726573730000000000602082015260400192915050565b60006129d2601e83612df5565b7f556e693a3a7065726d69743a207369676e617475726520657870697265640000815260200192915050565b6000612a0b603a83612dfe565b7f44656c65676174696f6e28616464726573732064656c6567617465652c75696e81527f74323536206e6f6e63652c75696e7432353620657870697279290000000000006020820152603a0192915050565b6000612a6a601e83612df5565b7f556e693a3a7065726d69743a20696e76616c6964207369676e61747572650000815260200192915050565b6000612aa3601983612df5565b7f556e693a3a7065726d69743a20756e617574686f72697a656400000000000000815260200192915050565b61239a81612e2f565b61239a81612e38565b61239a81612e4f565b61239a81612e3e565b6000612afe8261245a565b9150612b0a82856123b2565b602082019150612b1a82846123b2565b5060200192915050565b600061052e826125e9565b600061052e826126cd565b600061052e826129fe565b6020810161052e8284612391565b60408101612b618285612391565b6106ee6020830184612391565b6020810161052e82846123a0565b6020810161052e82846123a9565b60c08101612b9882896123a9565b612ba56020830188612391565b612bb26040830187612391565b612bbf60608301866123a9565b612bcc60808301856123a9565b612bd960a08301846123a9565b979650505050505050565b60808101612bf282876123a9565b612bff6020830186612391565b612c0c60408301856123a9565b612c1960608301846123a9565b95945050505050565b60808101612c3082876123a9565b612c3d60208301866123a9565b612c4a60408301856123a9565b612c196060830184612391565b60808101612c6582876123a9565b612bff6020830186612ad8565b602080825281016106ee81846123c3565b6020808252810161052e816123fb565b6020808252810161052e81612493565b6020808252810161052e816124cc565b6020808252810161052e8161252b565b6020808252810161052e8161258a565b6020808252810161052e8161266e565b6020808252810161052e81612752565b6020808252810161052e816127b1565b6020808252810161052e81612810565b6020808252810161052e81612849565b6020808252810161052e816128a8565b6020808252810161052e81612907565b6020808252810161052e81612966565b6020808252810161052e816129c5565b6020808252810161052e81612a5d565b6020808252810161052e81612a96565b6020810161052e8284612acf565b60408101612d9f8285612acf565b6106ee6020830184612aea565b6020810161052e8284612ad8565b6020810161052e8284612ae1565b6020810161052e8284612aea565b60408101612de48285612ae1565b6106ee6020830184612ae1565b5190565b90815260200190565b919050565b600061052e82612e16565b151590565b90565b73ffffffffffffffffffffffffffffffffffffffff1690565b63ffffffff1690565b60ff1690565b6bffffffffffffffffffffffff1690565b600061052e82612e3e565b60005b83811015612e75578181015183820152602001612e5d565b83811115611e175750506000910152565b601f017fffffffffffffffffffffffffffffffffffffffffffffffffffffffffffffffe01690565b612eb781612e03565b8114610a3657600080fd5b612eb781612e13565b612eb781612e2f565b612eb781612e3856fe556e693a3a6d696e743a207472616e7366657220616d6f756e74206f766572666c6f7773556e693a3a7472616e7366657246726f6d3a207472616e7366657220616d6f756e742065786365656473207370656e64657220616c6c6f77616e6365556e693a3a6d696e743a20746f74616c537570706c7920657863656564732039362062697473556e693a3a5f7472616e73666572546f6b656e733a207472616e7366657220616d6f756e7420657863656564732062616c616e6365556e693a3a7065726d69743a20616d6f756e7420657863656564732039362062697473556e693a3a5f6d6f7665566f7465733a20766f746520616d6f756e74206f766572666c6f7773556e693a3a5f7772697465436865636b706f696e743a20626c6f636b206e756d62657220657863656564732033322062697473556e693a3a5f6d6f7665566f7465733a20766f746520616d6f756e7420756e646572666c6f7773556e693a3a7472616e736665723a20616d6f756e7420657863656564732039362062697473556e693a3a6d696e743a20616d6f756e7420657863656564732039362062697473556e693a3a617070726f76653a20616d6f756e7420657863656564732039362062697473556e693a3a5f7472616e73666572546f6b656e733a207472616e7366657220616d6f756e74206f766572666c6f7773a365627a7a723158207d9f50ab61bd16afa8ce374199b43d9220966f80eb2fad13b6e92e9bca0e18eb6c6578706572696d656e74616cf564736f6c63430005100040","opcodes":"PUSH1 0x80 PUSH1 0x40 MSTORE PUSH12 0x33B2E3C9FD0803CE8000000 PUSH1 0x0 SSTORE CALLVALUE DUP1 ISZERO PUSH3 0x21 JUMPI PUSH1 0x0 DUP1 REVERT JUMPDEST POP PUSH1 0x40 MLOAD PUSH3 0x3413 CODESIZE SUB DUP1 PUSH3 0x3413 DUP4 CODECOPY DUP2 ADD PUSH1 0x40 DUP2 SWAP1 MSTORE PUSH3 0x44 SWAP2 PUSH3 0x171 JUMP JUMPDEST TIMESTAMP DUP2 LT ISZERO PUSH3 0x70 JUMPI PUSH1 0x40 MLOAD PUSH3 0x461BCD PUSH1 0xE5 SHL DUP2 MSTORE PUSH1 0x4 ADD PUSH3 0x67 SWAP1 PUSH3 0x273 JUMP JUMPDEST PUSH1 0x40 MLOAD DUP1 SWAP2 SUB SWAP1 REVERT JUMPDEST PUSH1 0x0 DUP1 SLOAD PUSH1 0x1 PUSH1 0x1 PUSH1 0xA0 SHL SUB DUP6 AND DUP1 DUP4 MSTORE PUSH1 0x4 PUSH1 0x20 MSTORE PUSH1 0x40 DUP1 DUP5 KECCAK256 DUP1 SLOAD PUSH1 0x1 PUSH1 0x1 PUSH1 0x60 SHL SUB NOT AND PUSH1 0x1 PUSH1 0x1 PUSH1 0x60 SHL SUB SWAP1 SWAP5 AND SWAP4 SWAP1 SWAP4 OR SWAP1 SWAP3 SSTORE DUP3 SLOAD SWAP2 MLOAD SWAP1 SWAP3 SWAP2 PUSH32 0xDDF252AD1BE2C89B69C2B068FC378DAA952BA7F163C4A11628F55A4DF523B3EF SWAP2 PUSH3 0xDE SWAP2 SWAP1 PUSH3 0x285 JUMP JUMPDEST PUSH1 0x40 MLOAD DUP1 SWAP2 SUB SWAP1 LOG3 PUSH1 0x1 DUP1 SLOAD PUSH1 0x1 PUSH1 0x1 PUSH1 0xA0 SHL SUB NOT AND PUSH1 0x1 PUSH1 0x1 PUSH1 0xA0 SHL SUB DUP5 DUP2 AND SWAP2 SWAP1 SWAP2 OR SWAP2 DUP3 SWAP1 SSTORE PUSH1 0x40 MLOAD PUSH32 0x3B0007EB941CF645526CBB3A4FDAECDA9D28CE4843167D9263B536A1F1EDC0F6 SWAP3 PUSH3 0x13D SWAP3 PUSH1 0x0 SWAP3 SWAP2 AND SWAP1 PUSH3 0x24D JUMP JUMPDEST PUSH1 0x40 MLOAD DUP1 SWAP2 SUB SWAP1 LOG1 PUSH1 0x2 SSTORE POP PUSH3 0x2EC SWAP1 POP JUMP JUMPDEST DUP1 MLOAD PUSH3 0x15E DUP2 PUSH3 0x2C7 JUMP JUMPDEST SWAP3 SWAP2 POP POP JUMP JUMPDEST DUP1 MLOAD PUSH3 0x15E DUP2 PUSH3 0x2E1 JUMP JUMPDEST PUSH1 0x0 DUP1 PUSH1 0x0 PUSH1 0x60 DUP5 DUP7 SUB SLT ISZERO PUSH3 0x187 JUMPI PUSH1 0x0 DUP1 REVERT JUMPDEST PUSH1 0x0 PUSH3 0x195 DUP7 DUP7 PUSH3 0x151 JUMP JUMPDEST SWAP4 POP POP PUSH1 0x20 PUSH3 0x1A8 DUP7 DUP3 DUP8 ADD PUSH3 0x151 JUMP JUMPDEST SWAP3 POP POP PUSH1 0x40 PUSH3 0x1BB DUP7 DUP3 DUP8 ADD PUSH3 0x164 JUMP JUMPDEST SWAP2 POP POP SWAP3 POP SWAP3 POP SWAP3 JUMP JUMPDEST PUSH3 0x1D0 DUP2 PUSH3 0x2B3 JUMP JUMPDEST DUP3 MSTORE POP POP JUMP JUMPDEST PUSH3 0x1D0 DUP2 PUSH3 0x29E JUMP JUMPDEST PUSH1 0x0 PUSH3 0x1F0 PUSH1 0x39 DUP4 PUSH3 0x295 JUMP JUMPDEST PUSH32 0x556E693A3A636F6E7374727563746F723A206D696E74696E672063616E206F6E DUP2 MSTORE PUSH32 0x6C7920626567696E206166746572206465706C6F796D656E7400000000000000 PUSH1 0x20 DUP3 ADD MSTORE PUSH1 0x40 ADD SWAP3 SWAP2 POP POP JUMP JUMPDEST PUSH3 0x1D0 DUP2 PUSH3 0x2B0 JUMP JUMPDEST PUSH1 0x40 DUP2 ADD PUSH3 0x25D DUP3 DUP6 PUSH3 0x1C5 JUMP JUMPDEST PUSH3 0x26C PUSH1 0x20 DUP4 ADD DUP5 PUSH3 0x1D6 JUMP JUMPDEST SWAP4 SWAP3 POP POP POP JUMP JUMPDEST PUSH1 0x20 DUP1 DUP3 MSTORE DUP2 ADD PUSH3 0x15E DUP2 PUSH3 0x1E1 JUMP JUMPDEST PUSH1 0x20 DUP2 ADD PUSH3 0x15E DUP3 DUP5 PUSH3 0x242 JUMP JUMPDEST SWAP1 DUP2 MSTORE PUSH1 0x20 ADD SWAP1 JUMP JUMPDEST PUSH1 0x0 PUSH1 0x1 PUSH1 0x1 PUSH1 0xA0 SHL SUB DUP3 AND PUSH3 0x15E JUMP JUMPDEST SWAP1 JUMP JUMPDEST PUSH1 0x0 PUSH3 0x15E DUP3 PUSH1 0x0 PUSH3 0x15E DUP3 PUSH3 0x29E JUMP JUMPDEST PUSH3 0x2D2 DUP2 PUSH3 0x29E JUMP JUMPDEST DUP2 EQ PUSH3 0x2DE JUMPI PUSH1 0x0 DUP1 REVERT JUMPDEST POP JUMP JUMPDEST PUSH3 0x2D2 DUP2 PUSH3 0x2B0 JUMP JUMPDEST PUSH2 0x3117 DUP1 PUSH3 0x2FC PUSH1 0x0 CODECOPY PUSH1 0x0 RETURN INVALID PUSH1 0x80 PUSH1 0x40 MSTORE CALLVALUE DUP1 ISZERO PUSH2 0x10 JUMPI PUSH1 0x0 DUP1 REVERT JUMPDEST POP PUSH1 0x4 CALLDATASIZE LT PUSH2 0x1B9 JUMPI PUSH1 0x0 CALLDATALOAD PUSH1 0xE0 SHR DUP1 PUSH4 0x6FCFFF45 GT PUSH2 0xF9 JUMPI DUP1 PUSH4 0xB4B5EA57 GT PUSH2 0x97 JUMPI DUP1 PUSH4 0xDD62ED3E GT PUSH2 0x71 JUMPI DUP1 PUSH4 0xDD62ED3E EQ PUSH2 0x36B JUMPI DUP1 PUSH4 0xE7A324DC EQ PUSH2 0x37E JUMPI DUP1 PUSH4 0xF1127ED8 EQ PUSH2 0x386 JUMPI DUP1 PUSH4 0xFCA3B5AA EQ PUSH2 0x3A7 JUMPI PUSH2 0x1B9 JUMP JUMPDEST DUP1 PUSH4 0xB4B5EA57 EQ PUSH2 0x332 JUMPI DUP1 PUSH4 0xC3CDA520 EQ PUSH2 0x345 JUMPI DUP1 PUSH4 0xD505ACCF EQ PUSH2 0x358 JUMPI PUSH2 0x1B9 JUMP JUMPDEST DUP1 PUSH4 0x782D6FE1 GT PUSH2 0xD3 JUMPI DUP1 PUSH4 0x782D6FE1 EQ PUSH2 0x2E4 JUMPI DUP1 PUSH4 0x7ECEBE00 EQ PUSH2 0x304 JUMPI DUP1 PUSH4 0x95D89B41 EQ PUSH2 0x317 JUMPI DUP1 PUSH4 0xA9059CBB EQ PUSH2 0x31F JUMPI PUSH2 0x1B9 JUMP JUMPDEST DUP1 PUSH4 0x6FCFFF45 EQ PUSH2 0x2B6 JUMPI DUP1 PUSH4 0x70A08231 EQ PUSH2 0x2C9 JUMPI DUP1 PUSH4 0x76C71CA1 EQ PUSH2 0x2DC JUMPI PUSH2 0x1B9 JUMP JUMPDEST DUP1 PUSH4 0x30ADF81F GT PUSH2 0x166 JUMPI DUP1 PUSH4 0x40C10F19 GT PUSH2 0x140 JUMPI DUP1 PUSH4 0x40C10F19 EQ PUSH2 0x266 JUMPI DUP1 PUSH4 0x587CDE1E EQ PUSH2 0x27B JUMPI DUP1 PUSH4 0x5C11D62F EQ PUSH2 0x28E JUMPI DUP1 PUSH4 0x5C19A95C EQ PUSH2 0x2A3 JUMPI PUSH2 0x1B9 JUMP JUMPDEST DUP1 PUSH4 0x30ADF81F EQ PUSH2 0x241 JUMPI DUP1 PUSH4 0x30B36CEF EQ PUSH2 0x249 JUMPI DUP1 PUSH4 0x313CE567 EQ PUSH2 0x251 JUMPI PUSH2 0x1B9 JUMP JUMPDEST DUP1 PUSH4 0x18160DDD GT PUSH2 0x197 JUMPI DUP1 PUSH4 0x18160DDD EQ PUSH2 0x211 JUMPI DUP1 PUSH4 0x20606B70 EQ PUSH2 0x226 JUMPI DUP1 PUSH4 0x23B872DD EQ PUSH2 0x22E JUMPI PUSH2 0x1B9 JUMP JUMPDEST DUP1 PUSH4 0x6FDDE03 EQ PUSH2 0x1BE JUMPI DUP1 PUSH4 0x7546172 EQ PUSH2 0x1DC JUMPI DUP1 PUSH4 0x95EA7B3 EQ PUSH2 0x1F1 JUMPI JUMPDEST PUSH1 0x0 DUP1 REVERT JUMPDEST PUSH2 0x1C6 PUSH2 0x3BA JUMP JUMPDEST PUSH1 0x40 MLOAD PUSH2 0x1D3 SWAP2 SWAP1 PUSH2 0x2C72 JUMP JUMPDEST PUSH1 0x40 MLOAD DUP1 SWAP2 SUB SWAP1 RETURN JUMPDEST PUSH2 0x1E4 PUSH2 0x3F3 JUMP JUMPDEST PUSH1 0x40 MLOAD PUSH2 0x1D3 SWAP2 SWAP1 PUSH2 0x2B45 JUMP JUMPDEST PUSH2 0x204 PUSH2 0x1FF CALLDATASIZE PUSH1 0x4 PUSH2 0x22AA JUMP JUMPDEST PUSH2 0x40F JUMP JUMPDEST PUSH1 0x40 MLOAD PUSH2 0x1D3 SWAP2 SWAP1 PUSH2 0x2B6E JUMP JUMPDEST PUSH2 0x219 PUSH2 0x534 JUMP JUMPDEST PUSH1 0x40 MLOAD PUSH2 0x1D3 SWAP2 SWAP1 PUSH2 0x2B7C JUMP JUMPDEST PUSH2 0x219 PUSH2 0x53A JUMP JUMPDEST PUSH2 0x204 PUSH2 0x23C CALLDATASIZE PUSH1 0x4 PUSH2 0x21C1 JUMP JUMPDEST PUSH2 0x551 JUMP JUMPDEST PUSH2 0x219 PUSH2 0x6F5 JUMP JUMPDEST PUSH2 0x219 PUSH2 0x701 JUMP JUMPDEST PUSH2 0x259 PUSH2 0x707 JUMP JUMPDEST PUSH1 0x40 MLOAD PUSH2 0x1D3 SWAP2 SWAP1 PUSH2 0x2DAC JUMP JUMPDEST PUSH2 0x279 PUSH2 0x274 CALLDATASIZE PUSH1 0x4 PUSH2 0x22AA JUMP JUMPDEST PUSH2 0x70C JUMP JUMPDEST STOP JUMPDEST PUSH2 0x1E4 PUSH2 0x289 CALLDATASIZE PUSH1 0x4 PUSH2 0x2161 JUMP JUMPDEST PUSH2 0x9FC JUMP JUMPDEST PUSH2 0x296 PUSH2 0xA24 JUMP JUMPDEST PUSH1 0x40 MLOAD PUSH2 0x1D3 SWAP2 SWAP1 PUSH2 0x2D83 JUMP JUMPDEST PUSH2 0x279 PUSH2 0x2B1 CALLDATASIZE PUSH1 0x4 PUSH2 0x2161 JUMP JUMPDEST PUSH2 0xA2C JUMP JUMPDEST PUSH2 0x296 PUSH2 0x2C4 CALLDATASIZE PUSH1 0x4 PUSH2 0x2161 JUMP JUMPDEST PUSH2 0xA39 JUMP JUMPDEST PUSH2 0x219 PUSH2 0x2D7 CALLDATASIZE PUSH1 0x4 PUSH2 0x2161 JUMP JUMPDEST PUSH2 0xA51 JUMP JUMPDEST PUSH2 0x259 PUSH2 0xA87 JUMP JUMPDEST PUSH2 0x2F7 PUSH2 0x2F2 CALLDATASIZE PUSH1 0x4 PUSH2 0x22AA JUMP JUMPDEST PUSH2 0xA8C JUMP JUMPDEST PUSH1 0x40 MLOAD PUSH2 0x1D3 SWAP2 SWAP1 PUSH2 0x2DC8 JUMP JUMPDEST PUSH2 0x219 PUSH2 0x312 CALLDATASIZE PUSH1 0x4 PUSH2 0x2161 JUMP JUMPDEST PUSH2 0xD6E JUMP JUMPDEST PUSH2 0x1C6 PUSH2 0xD80 JUMP JUMPDEST PUSH2 0x204 PUSH2 0x32D CALLDATASIZE PUSH1 0x4 PUSH2 0x22AA JUMP JUMPDEST PUSH2 0xDB9 JUMP JUMPDEST PUSH2 0x2F7 PUSH2 0x340 CALLDATASIZE PUSH1 0x4 PUSH2 0x2161 JUMP JUMPDEST PUSH2 0xDF5 JUMP JUMPDEST PUSH2 0x279 PUSH2 0x353 CALLDATASIZE PUSH1 0x4 PUSH2 0x22DA JUMP JUMPDEST PUSH2 0xEA3 JUMP JUMPDEST PUSH2 0x279 PUSH2 0x366 CALLDATASIZE PUSH1 0x4 PUSH2 0x220E JUMP JUMPDEST PUSH2 0x1128 JUMP JUMPDEST PUSH2 0x219 PUSH2 0x379 CALLDATASIZE PUSH1 0x4 PUSH2 0x2187 JUMP JUMPDEST PUSH2 0x155D JUMP JUMPDEST PUSH2 0x219 PUSH2 0x15A3 JUMP JUMPDEST PUSH2 0x399 PUSH2 0x394 CALLDATASIZE PUSH1 0x4 PUSH2 0x2361 JUMP JUMPDEST PUSH2 0x15AF JUMP JUMPDEST PUSH1 0x40 MLOAD PUSH2 0x1D3 SWAP3 SWAP2 SWAP1 PUSH2 0x2D91 JUMP JUMPDEST PUSH2 0x279 PUSH2 0x3B5 CALLDATASIZE PUSH1 0x4 PUSH2 0x2161 JUMP JUMPDEST PUSH2 0x15EA JUMP JUMPDEST PUSH1 0x40 MLOAD DUP1 PUSH1 0x40 ADD PUSH1 0x40 MSTORE DUP1 PUSH1 0x7 DUP2 MSTORE PUSH1 0x20 ADD PUSH32 0x556E697377617000000000000000000000000000000000000000000000000000 DUP2 MSTORE POP DUP2 JUMP JUMPDEST PUSH1 0x1 SLOAD PUSH20 0xFFFFFFFFFFFFFFFFFFFFFFFFFFFFFFFFFFFFFFFF AND DUP2 JUMP JUMPDEST PUSH1 0x0 DUP1 PUSH32 0xFFFFFFFFFFFFFFFFFFFFFFFFFFFFFFFFFFFFFFFFFFFFFFFFFFFFFFFFFFFFFFFF DUP4 EQ ISZERO PUSH2 0x461 JUMPI POP PUSH32 0xFFFFFFFFFFFFFFFFFFFFFFFFFFFFFFFFFFFFFFFFFFFFFFFFFFFFFFFFFFFFFFFF PUSH2 0x486 JUMP JUMPDEST PUSH2 0x483 DUP4 PUSH1 0x40 MLOAD DUP1 PUSH1 0x60 ADD PUSH1 0x40 MSTORE DUP1 PUSH1 0x24 DUP2 MSTORE PUSH1 0x20 ADD PUSH2 0x3082 PUSH1 0x24 SWAP2 CODECOPY PUSH2 0x16D6 JUMP JUMPDEST SWAP1 POP JUMPDEST CALLER PUSH1 0x0 DUP2 DUP2 MSTORE PUSH1 0x3 PUSH1 0x20 SWAP1 DUP2 MSTORE PUSH1 0x40 DUP1 DUP4 KECCAK256 PUSH20 0xFFFFFFFFFFFFFFFFFFFFFFFFFFFFFFFFFFFFFFFF DUP10 AND DUP1 DUP6 MSTORE SWAP3 MSTORE SWAP2 DUP3 SWAP1 KECCAK256 DUP1 SLOAD PUSH32 0xFFFFFFFFFFFFFFFFFFFFFFFFFFFFFFFFFFFFFFFF000000000000000000000000 AND PUSH12 0xFFFFFFFFFFFFFFFFFFFFFFFF DUP7 AND OR SWAP1 SSTORE SWAP1 MLOAD SWAP1 SWAP2 SWAP1 PUSH32 0x8C5BE1E5EBEC7D5BD14F71427D1E84F3DD0314C0F7B2291E5B200AC8C7C3B925 SWAP1 PUSH2 0x520 SWAP1 DUP6 SWAP1 PUSH2 0x2DBA JUMP JUMPDEST PUSH1 0x40 MLOAD DUP1 SWAP2 SUB SWAP1 LOG3 PUSH1 0x1 SWAP2 POP POP JUMPDEST SWAP3 SWAP2 POP POP JUMP JUMPDEST PUSH1 0x0 SLOAD DUP2 JUMP JUMPDEST PUSH1 0x40 MLOAD PUSH2 0x546 SWAP1 PUSH2 0x2B2F JUMP JUMPDEST PUSH1 0x40 MLOAD DUP1 SWAP2 SUB SWAP1 KECCAK256 DUP2 JUMP JUMPDEST PUSH20 0xFFFFFFFFFFFFFFFFFFFFFFFFFFFFFFFFFFFFFFFF DUP4 AND PUSH1 0x0 SWAP1 DUP2 MSTORE PUSH1 0x3 PUSH1 0x20 SWAP1 DUP2 MSTORE PUSH1 0x40 DUP1 DUP4 KECCAK256 CALLER DUP1 DUP6 MSTORE SWAP1 DUP4 MSTORE DUP2 DUP5 KECCAK256 SLOAD DUP3 MLOAD PUSH1 0x60 DUP2 ADD SWAP1 SWAP4 MSTORE PUSH1 0x24 DUP1 DUP5 MSTORE SWAP2 SWAP4 PUSH12 0xFFFFFFFFFFFFFFFFFFFFFFFF SWAP1 SWAP2 AND SWAP3 DUP6 SWAP3 PUSH2 0x5BB SWAP3 DUP9 SWAP3 SWAP2 SWAP1 PUSH2 0x3082 SWAP1 DUP4 ADD CODECOPY PUSH2 0x16D6 JUMP JUMPDEST SWAP1 POP DUP7 PUSH20 0xFFFFFFFFFFFFFFFFFFFFFFFFFFFFFFFFFFFFFFFF AND DUP4 PUSH20 0xFFFFFFFFFFFFFFFFFFFFFFFFFFFFFFFFFFFFFFFF AND EQ ISZERO DUP1 ISZERO PUSH2 0x607 JUMPI POP PUSH12 0xFFFFFFFFFFFFFFFFFFFFFFFF DUP3 DUP2 AND EQ ISZERO JUMPDEST ISZERO PUSH2 0x6DB JUMPI PUSH1 0x0 PUSH2 0x631 DUP4 DUP4 PUSH1 0x40 MLOAD DUP1 PUSH1 0x60 ADD PUSH1 0x40 MSTORE DUP1 PUSH1 0x3C DUP2 MSTORE PUSH1 0x20 ADD PUSH2 0x2F02 PUSH1 0x3C SWAP2 CODECOPY PUSH2 0x1728 JUMP JUMPDEST PUSH20 0xFFFFFFFFFFFFFFFFFFFFFFFFFFFFFFFFFFFFFFFF DUP10 DUP2 AND PUSH1 0x0 DUP2 DUP2 MSTORE PUSH1 0x3 PUSH1 0x20 SWAP1 DUP2 MSTORE PUSH1 0x40 DUP1 DUP4 KECCAK256 SWAP5 DUP11 AND DUP1 DUP5 MSTORE SWAP5 SWAP1 SWAP2 MSTORE SWAP1 DUP2 SWAP1 KECCAK256 DUP1 SLOAD PUSH32 0xFFFFFFFFFFFFFFFFFFFFFFFFFFFFFFFFFFFFFFFF000000000000000000000000 AND PUSH12 0xFFFFFFFFFFFFFFFFFFFFFFFF DUP7 AND OR SWAP1 SSTORE MLOAD SWAP3 SWAP4 POP SWAP1 SWAP2 PUSH32 0x8C5BE1E5EBEC7D5BD14F71427D1E84F3DD0314C0F7B2291E5B200AC8C7C3B925 SWAP1 PUSH2 0x6D1 SWAP1 DUP6 SWAP1 PUSH2 0x2DBA JUMP JUMPDEST PUSH1 0x40 MLOAD DUP1 SWAP2 SUB SWAP1 LOG3 POP JUMPDEST PUSH2 0x6E6 DUP8 DUP8 DUP4 PUSH2 0x178B JUMP JUMPDEST PUSH1 0x1 SWAP4 POP POP POP POP JUMPDEST SWAP4 SWAP3 POP POP POP JUMP JUMPDEST PUSH1 0x40 MLOAD PUSH2 0x546 SWAP1 PUSH2 0x2B24 JUMP JUMPDEST PUSH1 0x2 SLOAD DUP2 JUMP JUMPDEST PUSH1 0x12 DUP2 JUMP JUMPDEST PUSH1 0x1 SLOAD PUSH20 0xFFFFFFFFFFFFFFFFFFFFFFFFFFFFFFFFFFFFFFFF AND CALLER EQ PUSH2 0x766 JUMPI PUSH1 0x40 MLOAD PUSH32 0x8C379A000000000000000000000000000000000000000000000000000000000 DUP2 MSTORE PUSH1 0x4 ADD PUSH2 0x75D SWAP1 PUSH2 0x2D13 JUMP JUMPDEST PUSH1 0x40 MLOAD DUP1 SWAP2 SUB SWAP1 REVERT JUMPDEST PUSH1 0x2 SLOAD TIMESTAMP LT ISZERO PUSH2 0x7A2 JUMPI PUSH1 0x40 MLOAD PUSH32 0x8C379A000000000000000000000000000000000000000000000000000000000 DUP2 MSTORE PUSH1 0x4 ADD PUSH2 0x75D SWAP1 PUSH2 0x2CD3 JUMP JUMPDEST PUSH20 0xFFFFFFFFFFFFFFFFFFFFFFFFFFFFFFFFFFFFFFFF DUP3 AND PUSH2 0x7EF JUMPI PUSH1 0x40 MLOAD PUSH32 0x8C379A000000000000000000000000000000000000000000000000000000000 DUP2 MSTORE PUSH1 0x4 ADD PUSH2 0x75D SWAP1 PUSH2 0x2CC3 JUMP JUMPDEST PUSH2 0x7FD TIMESTAMP PUSH4 0x1E13380 PUSH2 0x19F2 JUMP JUMPDEST PUSH1 0x2 DUP2 SWAP1 SSTORE POP PUSH1 0x0 PUSH2 0x827 DUP3 PUSH1 0x40 MLOAD DUP1 PUSH1 0x60 ADD PUSH1 0x40 MSTORE DUP1 PUSH1 0x21 DUP2 MSTORE PUSH1 0x20 ADD PUSH2 0x3061 PUSH1 0x21 SWAP2 CODECOPY PUSH2 0x16D6 JUMP JUMPDEST SWAP1 POP PUSH2 0x843 PUSH2 0x83C PUSH1 0x0 SLOAD PUSH1 0x2 PUSH1 0xFF AND PUSH2 0x1A31 JUMP JUMPDEST PUSH1 0x64 PUSH2 0x1A85 JUMP JUMPDEST DUP2 PUSH12 0xFFFFFFFFFFFFFFFFFFFFFFFF AND GT ISZERO PUSH2 0x88A JUMPI PUSH1 0x40 MLOAD PUSH32 0x8C379A000000000000000000000000000000000000000000000000000000000 DUP2 MSTORE PUSH1 0x4 ADD PUSH2 0x75D SWAP1 PUSH2 0x2D03 JUMP JUMPDEST PUSH2 0x8C5 PUSH2 0x8A7 PUSH1 0x0 SLOAD DUP4 PUSH12 0xFFFFFFFFFFFFFFFFFFFFFFFF AND PUSH2 0x19F2 JUMP JUMPDEST PUSH1 0x40 MLOAD DUP1 PUSH1 0x60 ADD PUSH1 0x40 MSTORE DUP1 PUSH1 0x26 DUP2 MSTORE PUSH1 0x20 ADD PUSH2 0x2F3E PUSH1 0x26 SWAP2 CODECOPY PUSH2 0x16D6 JUMP JUMPDEST PUSH12 0xFFFFFFFFFFFFFFFFFFFFFFFF SWAP1 DUP2 AND PUSH1 0x0 SWAP1 DUP2 SSTORE PUSH20 0xFFFFFFFFFFFFFFFFFFFFFFFFFFFFFFFFFFFFFFFF DUP6 AND DUP2 MSTORE PUSH1 0x4 PUSH1 0x20 SWAP1 DUP2 MSTORE PUSH1 0x40 SWAP2 DUP3 SWAP1 KECCAK256 SLOAD DUP3 MLOAD PUSH1 0x60 DUP2 ADD SWAP1 SWAP4 MSTORE PUSH1 0x24 DUP1 DUP5 MSTORE PUSH2 0x929 SWAP5 SWAP2 SWAP1 SWAP2 AND SWAP3 DUP6 SWAP3 SWAP1 SWAP2 SWAP1 PUSH2 0x2EDE SWAP1 DUP4 ADD CODECOPY PUSH2 0x1AC7 JUMP JUMPDEST PUSH20 0xFFFFFFFFFFFFFFFFFFFFFFFFFFFFFFFFFFFFFFFF DUP5 AND PUSH1 0x0 DUP2 DUP2 MSTORE PUSH1 0x4 PUSH1 0x20 MSTORE PUSH1 0x40 DUP1 DUP3 KECCAK256 DUP1 SLOAD PUSH32 0xFFFFFFFFFFFFFFFFFFFFFFFFFFFFFFFFFFFFFFFF000000000000000000000000 AND PUSH12 0xFFFFFFFFFFFFFFFFFFFFFFFF SWAP6 SWAP1 SWAP6 AND SWAP5 SWAP1 SWAP5 OR SWAP1 SWAP4 SSTORE SWAP2 MLOAD SWAP1 SWAP2 SWAP1 PUSH32 0xDDF252AD1BE2C89B69C2B068FC378DAA952BA7F163C4A11628F55A4DF523B3EF SWAP1 PUSH2 0x9BD SWAP1 DUP6 SWAP1 PUSH2 0x2DBA JUMP JUMPDEST PUSH1 0x40 MLOAD DUP1 SWAP2 SUB SWAP1 LOG3 PUSH20 0xFFFFFFFFFFFFFFFFFFFFFFFFFFFFFFFFFFFFFFFF DUP1 DUP5 AND PUSH1 0x0 SWAP1 DUP2 MSTORE PUSH1 0x5 PUSH1 0x20 MSTORE PUSH1 0x40 DUP2 KECCAK256 SLOAD PUSH2 0x9F7 SWAP3 AND DUP4 PUSH2 0x1B22 JUMP JUMPDEST POP POP POP JUMP JUMPDEST PUSH1 0x5 PUSH1 0x20 MSTORE PUSH1 0x0 SWAP1 DUP2 MSTORE PUSH1 0x40 SWAP1 KECCAK256 SLOAD PUSH20 0xFFFFFFFFFFFFFFFFFFFFFFFFFFFFFFFFFFFFFFFF AND DUP2 JUMP JUMPDEST PUSH4 0x1E13380 DUP2 JUMP JUMPDEST PUSH2 0xA36 CALLER DUP3 PUSH2 0x1D69 JUMP JUMPDEST POP JUMP JUMPDEST PUSH1 0x7 PUSH1 0x20 MSTORE PUSH1 0x0 SWAP1 DUP2 MSTORE PUSH1 0x40 SWAP1 KECCAK256 SLOAD PUSH4 0xFFFFFFFF AND DUP2 JUMP JUMPDEST PUSH20 0xFFFFFFFFFFFFFFFFFFFFFFFFFFFFFFFFFFFFFFFF AND PUSH1 0x0 SWAP1 DUP2 MSTORE PUSH1 0x4 PUSH1 0x20 MSTORE PUSH1 0x40 SWAP1 KECCAK256 SLOAD PUSH12 0xFFFFFFFFFFFFFFFFFFFFFFFF AND SWAP1 JUMP JUMPDEST PUSH1 0x2 DUP2 JUMP JUMPDEST PUSH1 0x0 NUMBER DUP3 LT PUSH2 0xAC7 JUMPI PUSH1 0x40 MLOAD PUSH32 0x8C379A000000000000000000000000000000000000000000000000000000000 DUP2 MSTORE PUSH1 0x4 ADD PUSH2 0x75D SWAP1 PUSH2 0x2CB3 JUMP JUMPDEST PUSH20 0xFFFFFFFFFFFFFFFFFFFFFFFFFFFFFFFFFFFFFFFF DUP4 AND PUSH1 0x0 SWAP1 DUP2 MSTORE PUSH1 0x7 PUSH1 0x20 MSTORE PUSH1 0x40 SWAP1 KECCAK256 SLOAD PUSH4 0xFFFFFFFF AND DUP1 PUSH2 0xB02 JUMPI PUSH1 0x0 SWAP2 POP POP PUSH2 0x52E JUMP JUMPDEST PUSH20 0xFFFFFFFFFFFFFFFFFFFFFFFFFFFFFFFFFFFFFFFF DUP5 AND PUSH1 0x0 SWAP1 DUP2 MSTORE PUSH1 0x6 PUSH1 0x20 SWAP1 DUP2 MSTORE PUSH1 0x40 DUP1 DUP4 KECCAK256 PUSH4 0xFFFFFFFF PUSH32 0xFFFFFFFFFFFFFFFFFFFFFFFFFFFFFFFFFFFFFFFFFFFFFFFFFFFFFFFFFFFFFFFF DUP7 ADD DUP2 AND DUP6 MSTORE SWAP3 MSTORE SWAP1 SWAP2 KECCAK256 SLOAD AND DUP4 LT PUSH2 0xBDA JUMPI PUSH20 0xFFFFFFFFFFFFFFFFFFFFFFFFFFFFFFFFFFFFFFFF DUP5 AND PUSH1 0x0 SWAP1 DUP2 MSTORE PUSH1 0x6 PUSH1 0x20 SWAP1 DUP2 MSTORE PUSH1 0x40 DUP1 DUP4 KECCAK256 PUSH32 0xFFFFFFFFFFFFFFFFFFFFFFFFFFFFFFFFFFFFFFFFFFFFFFFFFFFFFFFFFFFFFFFF SWAP5 SWAP1 SWAP5 ADD PUSH4 0xFFFFFFFF AND DUP4 MSTORE SWAP3 SWAP1 MSTORE KECCAK256 SLOAD PUSH5 0x100000000 SWAP1 DIV PUSH12 0xFFFFFFFFFFFFFFFFFFFFFFFF AND SWAP1 POP PUSH2 0x52E JUMP JUMPDEST PUSH20 0xFFFFFFFFFFFFFFFFFFFFFFFFFFFFFFFFFFFFFFFF DUP5 AND PUSH1 0x0 SWAP1 DUP2 MSTORE PUSH1 0x6 PUSH1 0x20 SWAP1 DUP2 MSTORE PUSH1 0x40 DUP1 DUP4 KECCAK256 DUP4 DUP1 MSTORE SWAP1 SWAP2 MSTORE SWAP1 KECCAK256 SLOAD PUSH4 0xFFFFFFFF AND DUP4 LT ISZERO PUSH2 0xC22 JUMPI PUSH1 0x0 SWAP2 POP POP PUSH2 0x52E JUMP JUMPDEST PUSH1 0x0 PUSH32 0xFFFFFFFFFFFFFFFFFFFFFFFFFFFFFFFFFFFFFFFFFFFFFFFFFFFFFFFFFFFFFFFF DUP3 ADD JUMPDEST DUP2 PUSH4 0xFFFFFFFF AND DUP2 PUSH4 0xFFFFFFFF AND GT ISZERO PUSH2 0xD16 JUMPI PUSH1 0x2 DUP3 DUP3 SUB PUSH4 0xFFFFFFFF AND DIV DUP2 SUB PUSH2 0xC72 PUSH2 0x211E JUMP JUMPDEST POP PUSH20 0xFFFFFFFFFFFFFFFFFFFFFFFFFFFFFFFFFFFFFFFF DUP8 AND PUSH1 0x0 SWAP1 DUP2 MSTORE PUSH1 0x6 PUSH1 0x20 SWAP1 DUP2 MSTORE PUSH1 0x40 DUP1 DUP4 KECCAK256 PUSH4 0xFFFFFFFF DUP6 DUP2 AND DUP6 MSTORE SWAP1 DUP4 MSTORE SWAP3 DUP2 SWAP1 KECCAK256 DUP2 MLOAD DUP1 DUP4 ADD SWAP1 SWAP3 MSTORE SLOAD SWAP3 DUP4 AND DUP1 DUP3 MSTORE PUSH5 0x100000000 SWAP1 SWAP4 DIV PUSH12 0xFFFFFFFFFFFFFFFFFFFFFFFF AND SWAP2 DUP2 ADD SWAP2 SWAP1 SWAP2 MSTORE SWAP1 DUP8 EQ ISZERO PUSH2 0xCF1 JUMPI PUSH1 0x20 ADD MLOAD SWAP5 POP PUSH2 0x52E SWAP4 POP POP POP POP JUMP JUMPDEST DUP1 MLOAD PUSH4 0xFFFFFFFF AND DUP8 GT ISZERO PUSH2 0xD08 JUMPI DUP2 SWAP4 POP PUSH2 0xD0F JUMP JUMPDEST PUSH1 0x1 DUP3 SUB SWAP3 POP JUMPDEST POP POP PUSH2 0xC48 JUMP JUMPDEST POP PUSH20 0xFFFFFFFFFFFFFFFFFFFFFFFFFFFFFFFFFFFFFFFF DUP6 AND PUSH1 0x0 SWAP1 DUP2 MSTORE PUSH1 0x6 PUSH1 0x20 SWAP1 DUP2 MSTORE PUSH1 0x40 DUP1 DUP4 KECCAK256 PUSH4 0xFFFFFFFF SWAP1 SWAP5 AND DUP4 MSTORE SWAP3 SWAP1 MSTORE KECCAK256 SLOAD PUSH12 0xFFFFFFFFFFFFFFFFFFFFFFFF PUSH5 0x100000000 SWAP1 SWAP2 DIV AND SWAP2 POP POP SWAP3 SWAP2 POP POP JUMP JUMPDEST PUSH1 0x8 PUSH1 0x20 MSTORE PUSH1 0x0 SWAP1 DUP2 MSTORE PUSH1 0x40 SWAP1 KECCAK256 SLOAD DUP2 JUMP JUMPDEST PUSH1 0x40 MLOAD DUP1 PUSH1 0x40 ADD PUSH1 0x40 MSTORE DUP1 PUSH1 0x3 DUP2 MSTORE PUSH1 0x20 ADD PUSH32 0x554E490000000000000000000000000000000000000000000000000000000000 DUP2 MSTORE POP DUP2 JUMP JUMPDEST PUSH1 0x0 DUP1 PUSH2 0xDDE DUP4 PUSH1 0x40 MLOAD DUP1 PUSH1 0x60 ADD PUSH1 0x40 MSTORE DUP1 PUSH1 0x25 DUP2 MSTORE PUSH1 0x20 ADD PUSH2 0x303C PUSH1 0x25 SWAP2 CODECOPY PUSH2 0x16D6 JUMP JUMPDEST SWAP1 POP PUSH2 0xDEB CALLER DUP6 DUP4 PUSH2 0x178B JUMP JUMPDEST POP PUSH1 0x1 SWAP4 SWAP3 POP POP POP JUMP JUMPDEST PUSH20 0xFFFFFFFFFFFFFFFFFFFFFFFFFFFFFFFFFFFFFFFF DUP2 AND PUSH1 0x0 SWAP1 DUP2 MSTORE PUSH1 0x7 PUSH1 0x20 MSTORE PUSH1 0x40 DUP2 KECCAK256 SLOAD PUSH4 0xFFFFFFFF AND DUP1 PUSH2 0xE2D JUMPI PUSH1 0x0 PUSH2 0x6EE JUMP JUMPDEST PUSH20 0xFFFFFFFFFFFFFFFFFFFFFFFFFFFFFFFFFFFFFFFF DUP4 AND PUSH1 0x0 SWAP1 DUP2 MSTORE PUSH1 0x6 PUSH1 0x20 SWAP1 DUP2 MSTORE PUSH1 0x40 DUP1 DUP4 KECCAK256 PUSH32 0xFFFFFFFFFFFFFFFFFFFFFFFFFFFFFFFFFFFFFFFFFFFFFFFFFFFFFFFFFFFFFFFF DUP6 ADD PUSH4 0xFFFFFFFF AND DUP5 MSTORE SWAP1 SWAP2 MSTORE SWAP1 KECCAK256 SLOAD PUSH5 0x100000000 SWAP1 DIV PUSH12 0xFFFFFFFFFFFFFFFFFFFFFFFF AND SWAP4 SWAP3 POP POP POP JUMP JUMPDEST PUSH1 0x0 PUSH1 0x40 MLOAD PUSH2 0xEB1 SWAP1 PUSH2 0x2B2F JUMP JUMPDEST PUSH1 0x40 DUP1 MLOAD SWAP2 DUP3 SWAP1 SUB DUP3 KECCAK256 DUP3 DUP3 ADD SWAP1 SWAP2 MSTORE PUSH1 0x7 DUP3 MSTORE PUSH32 0x556E697377617000000000000000000000000000000000000000000000000000 PUSH1 0x20 SWAP1 SWAP3 ADD SWAP2 SWAP1 SWAP2 MSTORE PUSH32 0x99C45E8EE5DDE061CED9C812089094FBD28A020E7E37F2851198887E5CA64985 PUSH2 0xF18 PUSH2 0x1E1D JUMP JUMPDEST ADDRESS PUSH1 0x40 MLOAD PUSH1 0x20 ADD PUSH2 0xF2C SWAP5 SWAP4 SWAP3 SWAP2 SWAP1 PUSH2 0x2C22 JUMP JUMPDEST PUSH1 0x40 MLOAD PUSH1 0x20 DUP2 DUP4 SUB SUB DUP2 MSTORE SWAP1 PUSH1 0x40 MSTORE DUP1 MLOAD SWAP1 PUSH1 0x20 ADD KECCAK256 SWAP1 POP PUSH1 0x0 PUSH1 0x40 MLOAD PUSH2 0xF52 SWAP1 PUSH2 0x2B3A JUMP JUMPDEST PUSH1 0x40 MLOAD SWAP1 DUP2 SWAP1 SUB DUP2 KECCAK256 PUSH2 0xF6D SWAP2 DUP11 SWAP1 DUP11 SWAP1 DUP11 SWAP1 PUSH1 0x20 ADD PUSH2 0x2BE4 JUMP JUMPDEST PUSH1 0x40 MLOAD PUSH1 0x20 DUP2 DUP4 SUB SUB DUP2 MSTORE SWAP1 PUSH1 0x40 MSTORE DUP1 MLOAD SWAP1 PUSH1 0x20 ADD KECCAK256 SWAP1 POP PUSH1 0x0 DUP3 DUP3 PUSH1 0x40 MLOAD PUSH1 0x20 ADD PUSH2 0xF9A SWAP3 SWAP2 SWAP1 PUSH2 0x2AF3 JUMP JUMPDEST PUSH1 0x40 MLOAD PUSH1 0x20 DUP2 DUP4 SUB SUB DUP2 MSTORE SWAP1 PUSH1 0x40 MSTORE DUP1 MLOAD SWAP1 PUSH1 0x20 ADD KECCAK256 SWAP1 POP PUSH1 0x0 PUSH1 0x1 DUP3 DUP9 DUP9 DUP9 PUSH1 0x40 MLOAD PUSH1 0x0 DUP2 MSTORE PUSH1 0x20 ADD PUSH1 0x40 MSTORE PUSH1 0x40 MLOAD PUSH2 0xFD7 SWAP5 SWAP4 SWAP3 SWAP2 SWAP1 PUSH2 0x2C57 JUMP JUMPDEST PUSH1 0x20 PUSH1 0x40 MLOAD PUSH1 0x20 DUP2 SUB SWAP1 DUP1 DUP5 SUB SWAP1 DUP6 GAS STATICCALL ISZERO DUP1 ISZERO PUSH2 0xFF9 JUMPI RETURNDATASIZE PUSH1 0x0 DUP1 RETURNDATACOPY RETURNDATASIZE PUSH1 0x0 REVERT JUMPDEST POP POP PUSH1 0x40 MLOAD PUSH32 0xFFFFFFFFFFFFFFFFFFFFFFFFFFFFFFFFFFFFFFFFFFFFFFFFFFFFFFFFFFFFFFE0 ADD MLOAD SWAP2 POP POP PUSH20 0xFFFFFFFFFFFFFFFFFFFFFFFFFFFFFFFFFFFFFFFF DUP2 AND PUSH2 0x1071 JUMPI PUSH1 0x40 MLOAD PUSH32 0x8C379A000000000000000000000000000000000000000000000000000000000 DUP2 MSTORE PUSH1 0x4 ADD PUSH2 0x75D SWAP1 PUSH2 0x2CA3 JUMP JUMPDEST PUSH20 0xFFFFFFFFFFFFFFFFFFFFFFFFFFFFFFFFFFFFFFFF DUP2 AND PUSH1 0x0 SWAP1 DUP2 MSTORE PUSH1 0x8 PUSH1 0x20 MSTORE PUSH1 0x40 SWAP1 KECCAK256 DUP1 SLOAD PUSH1 0x1 DUP2 ADD SWAP1 SWAP2 SSTORE DUP10 EQ PUSH2 0x10D7 JUMPI PUSH1 0x40 MLOAD PUSH32 0x8C379A000000000000000000000000000000000000000000000000000000000 DUP2 MSTORE PUSH1 0x4 ADD PUSH2 0x75D SWAP1 PUSH2 0x2D33 JUMP JUMPDEST DUP8 TIMESTAMP GT ISZERO PUSH2 0x1111 JUMPI PUSH1 0x40 MLOAD PUSH32 0x8C379A000000000000000000000000000000000000000000000000000000000 DUP2 MSTORE PUSH1 0x4 ADD PUSH2 0x75D SWAP1 PUSH2 0x2C83 JUMP JUMPDEST PUSH2 0x111B DUP2 DUP12 PUSH2 0x1D69 JUMP JUMPDEST POP POP POP POP JUMPDEST POP POP POP POP POP POP JUMP JUMPDEST PUSH1 0x0 PUSH32 0xFFFFFFFFFFFFFFFFFFFFFFFFFFFFFFFFFFFFFFFFFFFFFFFFFFFFFFFFFFFFFFFF DUP7 EQ ISZERO PUSH2 0x1179 JUMPI POP PUSH32 0xFFFFFFFFFFFFFFFFFFFFFFFFFFFFFFFFFFFFFFFFFFFFFFFFFFFFFFFFFFFFFFFF PUSH2 0x119E JUMP JUMPDEST PUSH2 0x119B DUP7 PUSH1 0x40 MLOAD DUP1 PUSH1 0x60 ADD PUSH1 0x40 MSTORE DUP1 PUSH1 0x23 DUP2 MSTORE PUSH1 0x20 ADD PUSH2 0x2F99 PUSH1 0x23 SWAP2 CODECOPY PUSH2 0x16D6 JUMP JUMPDEST SWAP1 POP JUMPDEST PUSH1 0x0 PUSH1 0x40 MLOAD PUSH2 0x11AC SWAP1 PUSH2 0x2B2F JUMP JUMPDEST PUSH1 0x40 DUP1 MLOAD SWAP2 DUP3 SWAP1 SUB DUP3 KECCAK256 DUP3 DUP3 ADD SWAP1 SWAP2 MSTORE PUSH1 0x7 DUP3 MSTORE PUSH32 0x556E697377617000000000000000000000000000000000000000000000000000 PUSH1 0x20 SWAP1 SWAP3 ADD SWAP2 SWAP1 SWAP2 MSTORE PUSH32 0x99C45E8EE5DDE061CED9C812089094FBD28A020E7E37F2851198887E5CA64985 PUSH2 0x1213 PUSH2 0x1E1D JUMP JUMPDEST ADDRESS PUSH1 0x40 MLOAD PUSH1 0x20 ADD PUSH2 0x1227 SWAP5 SWAP4 SWAP3 SWAP2 SWAP1 PUSH2 0x2C22 JUMP JUMPDEST PUSH1 0x40 MLOAD PUSH1 0x20 DUP2 DUP4 SUB SUB DUP2 MSTORE SWAP1 PUSH1 0x40 MSTORE DUP1 MLOAD SWAP1 PUSH1 0x20 ADD KECCAK256 SWAP1 POP PUSH1 0x0 PUSH1 0x40 MLOAD PUSH2 0x124D SWAP1 PUSH2 0x2B24 JUMP JUMPDEST PUSH1 0x40 DUP1 MLOAD SWAP2 DUP3 SWAP1 SUB DUP3 KECCAK256 PUSH20 0xFFFFFFFFFFFFFFFFFFFFFFFFFFFFFFFFFFFFFFFF DUP14 AND PUSH1 0x0 SWAP1 DUP2 MSTORE PUSH1 0x8 PUSH1 0x20 SWAP1 DUP2 MSTORE SWAP3 SWAP1 KECCAK256 DUP1 SLOAD PUSH1 0x1 DUP2 ADD SWAP1 SWAP2 SSTORE PUSH2 0x129C SWAP4 SWAP2 SWAP3 DUP15 SWAP3 DUP15 SWAP3 DUP15 SWAP3 SWAP1 SWAP2 DUP15 SWAP2 ADD PUSH2 0x2B8A JUMP JUMPDEST PUSH1 0x40 MLOAD PUSH1 0x20 DUP2 DUP4 SUB SUB DUP2 MSTORE SWAP1 PUSH1 0x40 MSTORE DUP1 MLOAD SWAP1 PUSH1 0x20 ADD KECCAK256 SWAP1 POP PUSH1 0x0 DUP3 DUP3 PUSH1 0x40 MLOAD PUSH1 0x20 ADD PUSH2 0x12C9 SWAP3 SWAP2 SWAP1 PUSH2 0x2AF3 JUMP JUMPDEST PUSH1 0x40 MLOAD PUSH1 0x20 DUP2 DUP4 SUB SUB DUP2 MSTORE SWAP1 PUSH1 0x40 MSTORE DUP1 MLOAD SWAP1 PUSH1 0x20 ADD KECCAK256 SWAP1 POP PUSH1 0x0 PUSH1 0x1 DUP3 DUP10 DUP10 DUP10 PUSH1 0x40 MLOAD PUSH1 0x0 DUP2 MSTORE PUSH1 0x20 ADD PUSH1 0x40 MSTORE PUSH1 0x40 MLOAD PUSH2 0x1306 SWAP5 SWAP4 SWAP3 SWAP2 SWAP1 PUSH2 0x2C57 JUMP JUMPDEST PUSH1 0x20 PUSH1 0x40 MLOAD PUSH1 0x20 DUP2 SUB SWAP1 DUP1 DUP5 SUB SWAP1 DUP6 GAS STATICCALL ISZERO DUP1 ISZERO PUSH2 0x1328 JUMPI RETURNDATASIZE PUSH1 0x0 DUP1 RETURNDATACOPY RETURNDATASIZE PUSH1 0x0 REVERT JUMPDEST POP POP PUSH1 0x40 MLOAD PUSH32 0xFFFFFFFFFFFFFFFFFFFFFFFFFFFFFFFFFFFFFFFFFFFFFFFFFFFFFFFFFFFFFFE0 ADD MLOAD SWAP2 POP POP PUSH20 0xFFFFFFFFFFFFFFFFFFFFFFFFFFFFFFFFFFFFFFFF DUP2 AND PUSH2 0x13A0 JUMPI PUSH1 0x40 MLOAD PUSH32 0x8C379A000000000000000000000000000000000000000000000000000000000 DUP2 MSTORE PUSH1 0x4 ADD PUSH2 0x75D SWAP1 PUSH2 0x2D63 JUMP JUMPDEST DUP12 PUSH20 0xFFFFFFFFFFFFFFFFFFFFFFFFFFFFFFFFFFFFFFFF AND DUP2 PUSH20 0xFFFFFFFFFFFFFFFFFFFFFFFFFFFFFFFFFFFFFFFF AND EQ PUSH2 0x1405 JUMPI PUSH1 0x40 MLOAD PUSH32 0x8C379A000000000000000000000000000000000000000000000000000000000 DUP2 MSTORE PUSH1 0x4 ADD PUSH2 0x75D SWAP1 PUSH2 0x2D73 JUMP JUMPDEST DUP9 TIMESTAMP GT ISZERO PUSH2 0x143F JUMPI PUSH1 0x40 MLOAD PUSH32 0x8C379A000000000000000000000000000000000000000000000000000000000 DUP2 MSTORE PUSH1 0x4 ADD PUSH2 0x75D SWAP1 PUSH2 0x2D53 JUMP JUMPDEST DUP5 PUSH1 0x3 PUSH1 0x0 DUP15 PUSH20 0xFFFFFFFFFFFFFFFFFFFFFFFFFFFFFFFFFFFFFFFF AND PUSH20 0xFFFFFFFFFFFFFFFFFFFFFFFFFFFFFFFFFFFFFFFF AND DUP2 MSTORE PUSH1 0x20 ADD SWAP1 DUP2 MSTORE PUSH1 0x20 ADD PUSH1 0x0 KECCAK256 PUSH1 0x0 DUP14 PUSH20 0xFFFFFFFFFFFFFFFFFFFFFFFFFFFFFFFFFFFFFFFF AND PUSH20 0xFFFFFFFFFFFFFFFFFFFFFFFFFFFFFFFFFFFFFFFF AND DUP2 MSTORE PUSH1 0x20 ADD SWAP1 DUP2 MSTORE PUSH1 0x20 ADD PUSH1 0x0 KECCAK256 PUSH1 0x0 PUSH2 0x100 EXP DUP2 SLOAD DUP2 PUSH12 0xFFFFFFFFFFFFFFFFFFFFFFFF MUL NOT AND SWAP1 DUP4 PUSH12 0xFFFFFFFFFFFFFFFFFFFFFFFF AND MUL OR SWAP1 SSTORE POP DUP11 PUSH20 0xFFFFFFFFFFFFFFFFFFFFFFFFFFFFFFFFFFFFFFFF AND DUP13 PUSH20 0xFFFFFFFFFFFFFFFFFFFFFFFFFFFFFFFFFFFFFFFF AND PUSH32 0x8C5BE1E5EBEC7D5BD14F71427D1E84F3DD0314C0F7B2291E5B200AC8C7C3B925 DUP8 PUSH1 0x40 MLOAD PUSH2 0x1547 SWAP2 SWAP1 PUSH2 0x2DBA JUMP JUMPDEST PUSH1 0x40 MLOAD DUP1 SWAP2 SUB SWAP1 LOG3 POP POP POP POP POP POP POP POP POP POP POP POP JUMP JUMPDEST PUSH20 0xFFFFFFFFFFFFFFFFFFFFFFFFFFFFFFFFFFFFFFFF SWAP2 DUP3 AND PUSH1 0x0 SWAP1 DUP2 MSTORE PUSH1 0x3 PUSH1 0x20 SWAP1 DUP2 MSTORE PUSH1 0x40 DUP1 DUP4 KECCAK256 SWAP4 SWAP1 SWAP5 AND DUP3 MSTORE SWAP2 SWAP1 SWAP2 MSTORE KECCAK256 SLOAD PUSH12 0xFFFFFFFFFFFFFFFFFFFFFFFF AND SWAP1 JUMP JUMPDEST PUSH1 0x40 MLOAD PUSH2 0x546 SWAP1 PUSH2 0x2B3A JUMP JUMPDEST PUSH1 0x6 PUSH1 0x20 SWAP1 DUP2 MSTORE PUSH1 0x0 SWAP3 DUP4 MSTORE PUSH1 0x40 DUP1 DUP5 KECCAK256 SWAP1 SWAP2 MSTORE SWAP1 DUP3 MSTORE SWAP1 KECCAK256 SLOAD PUSH4 0xFFFFFFFF DUP2 AND SWAP1 PUSH5 0x100000000 SWAP1 DIV PUSH12 0xFFFFFFFFFFFFFFFFFFFFFFFF AND DUP3 JUMP JUMPDEST PUSH1 0x1 SLOAD PUSH20 0xFFFFFFFFFFFFFFFFFFFFFFFFFFFFFFFFFFFFFFFF AND CALLER EQ PUSH2 0x163B JUMPI PUSH1 0x40 MLOAD PUSH32 0x8C379A000000000000000000000000000000000000000000000000000000000 DUP2 MSTORE PUSH1 0x4 ADD PUSH2 0x75D SWAP1 PUSH2 0x2D23 JUMP JUMPDEST PUSH1 0x1 SLOAD PUSH1 0x40 MLOAD PUSH32 0x3B0007EB941CF645526CBB3A4FDAECDA9D28CE4843167D9263B536A1F1EDC0F6 SWAP2 PUSH2 0x1687 SWAP2 PUSH20 0xFFFFFFFFFFFFFFFFFFFFFFFFFFFFFFFFFFFFFFFF SWAP1 SWAP2 AND SWAP1 DUP5 SWAP1 PUSH2 0x2B53 JUMP JUMPDEST PUSH1 0x40 MLOAD DUP1 SWAP2 SUB SWAP1 LOG1 PUSH1 0x1 DUP1 SLOAD PUSH32 0xFFFFFFFFFFFFFFFFFFFFFFFF0000000000000000000000000000000000000000 AND PUSH20 0xFFFFFFFFFFFFFFFFFFFFFFFFFFFFFFFFFFFFFFFF SWAP3 SWAP1 SWAP3 AND SWAP2 SWAP1 SWAP2 OR SWAP1 SSTORE JUMP JUMPDEST PUSH1 0x0 DUP2 PUSH13 0x1000000000000000000000000 DUP5 LT PUSH2 0x1720 JUMPI PUSH1 0x40 MLOAD PUSH32 0x8C379A000000000000000000000000000000000000000000000000000000000 DUP2 MSTORE PUSH1 0x4 ADD PUSH2 0x75D SWAP2 SWAP1 PUSH2 0x2C72 JUMP JUMPDEST POP SWAP2 SWAP3 SWAP2 POP POP JUMP JUMPDEST PUSH1 0x0 DUP4 PUSH12 0xFFFFFFFFFFFFFFFFFFFFFFFF AND DUP4 PUSH12 0xFFFFFFFFFFFFFFFFFFFFFFFF AND GT ISZERO DUP3 SWAP1 PUSH2 0x1783 JUMPI PUSH1 0x40 MLOAD PUSH32 0x8C379A000000000000000000000000000000000000000000000000000000000 DUP2 MSTORE PUSH1 0x4 ADD PUSH2 0x75D SWAP2 SWAP1 PUSH2 0x2C72 JUMP JUMPDEST POP POP POP SWAP1 SUB SWAP1 JUMP JUMPDEST PUSH20 0xFFFFFFFFFFFFFFFFFFFFFFFFFFFFFFFFFFFFFFFF DUP4 AND PUSH2 0x17D8 JUMPI PUSH1 0x40 MLOAD PUSH32 0x8C379A000000000000000000000000000000000000000000000000000000000 DUP2 MSTORE PUSH1 0x4 ADD PUSH2 0x75D SWAP1 PUSH2 0x2D43 JUMP JUMPDEST PUSH20 0xFFFFFFFFFFFFFFFFFFFFFFFFFFFFFFFFFFFFFFFF DUP3 AND PUSH2 0x1825 JUMPI PUSH1 0x40 MLOAD PUSH32 0x8C379A000000000000000000000000000000000000000000000000000000000 DUP2 MSTORE PUSH1 0x4 ADD PUSH2 0x75D SWAP1 PUSH2 0x2CE3 JUMP JUMPDEST PUSH20 0xFFFFFFFFFFFFFFFFFFFFFFFFFFFFFFFFFFFFFFFF DUP4 AND PUSH1 0x0 SWAP1 DUP2 MSTORE PUSH1 0x4 PUSH1 0x20 SWAP1 DUP2 MSTORE PUSH1 0x40 SWAP2 DUP3 SWAP1 KECCAK256 SLOAD DUP3 MLOAD PUSH1 0x60 DUP2 ADD SWAP1 SWAP4 MSTORE PUSH1 0x35 DUP1 DUP5 MSTORE PUSH2 0x1882 SWAP4 PUSH12 0xFFFFFFFFFFFFFFFFFFFFFFFF SWAP1 SWAP3 AND SWAP3 DUP6 SWAP3 SWAP2 SWAP1 PUSH2 0x2F64 SWAP1 DUP4 ADD CODECOPY PUSH2 0x1728 JUMP JUMPDEST PUSH20 0xFFFFFFFFFFFFFFFFFFFFFFFFFFFFFFFFFFFFFFFF DUP5 DUP2 AND PUSH1 0x0 SWAP1 DUP2 MSTORE PUSH1 0x4 PUSH1 0x20 SWAP1 DUP2 MSTORE PUSH1 0x40 DUP1 DUP4 KECCAK256 DUP1 SLOAD PUSH32 0xFFFFFFFFFFFFFFFFFFFFFFFFFFFFFFFFFFFFFFFF000000000000000000000000 AND PUSH12 0xFFFFFFFFFFFFFFFFFFFFFFFF SWAP7 DUP8 AND OR SWAP1 SSTORE SWAP3 DUP7 AND DUP3 MSTORE SWAP1 DUP3 SWAP1 KECCAK256 SLOAD DUP3 MLOAD PUSH1 0x60 DUP2 ADD SWAP1 SWAP4 MSTORE PUSH1 0x2F DUP1 DUP5 MSTORE PUSH2 0x1914 SWAP5 SWAP2 SWAP1 SWAP2 AND SWAP3 DUP6 SWAP3 SWAP1 SWAP2 SWAP1 PUSH2 0x30A6 SWAP1 DUP4 ADD CODECOPY PUSH2 0x1AC7 JUMP JUMPDEST PUSH20 0xFFFFFFFFFFFFFFFFFFFFFFFFFFFFFFFFFFFFFFFF DUP4 DUP2 AND PUSH1 0x0 DUP2 DUP2 MSTORE PUSH1 0x4 PUSH1 0x20 MSTORE PUSH1 0x40 SWAP1 DUP2 SWAP1 KECCAK256 DUP1 SLOAD PUSH32 0xFFFFFFFFFFFFFFFFFFFFFFFFFFFFFFFFFFFFFFFF000000000000000000000000 AND PUSH12 0xFFFFFFFFFFFFFFFFFFFFFFFF SWAP6 SWAP1 SWAP6 AND SWAP5 SWAP1 SWAP5 OR SWAP1 SWAP4 SSTORE SWAP2 MLOAD SWAP1 DUP6 AND SWAP1 PUSH32 0xDDF252AD1BE2C89B69C2B068FC378DAA952BA7F163C4A11628F55A4DF523B3EF SWAP1 PUSH2 0x19AB SWAP1 DUP6 SWAP1 PUSH2 0x2DBA JUMP JUMPDEST PUSH1 0x40 MLOAD DUP1 SWAP2 SUB SWAP1 LOG3 PUSH20 0xFFFFFFFFFFFFFFFFFFFFFFFFFFFFFFFFFFFFFFFF DUP1 DUP5 AND PUSH1 0x0 SWAP1 DUP2 MSTORE PUSH1 0x5 PUSH1 0x20 MSTORE PUSH1 0x40 DUP1 DUP3 KECCAK256 SLOAD DUP6 DUP5 AND DUP4 MSTORE SWAP2 KECCAK256 SLOAD PUSH2 0x9F7 SWAP3 SWAP2 DUP3 AND SWAP2 AND DUP4 PUSH2 0x1B22 JUMP JUMPDEST PUSH1 0x0 DUP3 DUP3 ADD DUP4 DUP2 LT ISZERO PUSH2 0x6EE JUMPI PUSH1 0x40 MLOAD PUSH32 0x8C379A000000000000000000000000000000000000000000000000000000000 DUP2 MSTORE PUSH1 0x4 ADD PUSH2 0x75D SWAP1 PUSH2 0x2C93 JUMP JUMPDEST PUSH1 0x0 DUP3 PUSH2 0x1A40 JUMPI POP PUSH1 0x0 PUSH2 0x52E JUMP JUMPDEST DUP3 DUP3 MUL DUP3 DUP5 DUP3 DUP2 PUSH2 0x1A4D JUMPI INVALID JUMPDEST DIV EQ PUSH2 0x6EE JUMPI PUSH1 0x40 MLOAD PUSH32 0x8C379A000000000000000000000000000000000000000000000000000000000 DUP2 MSTORE PUSH1 0x4 ADD PUSH2 0x75D SWAP1 PUSH2 0x2CF3 JUMP JUMPDEST PUSH1 0x0 PUSH2 0x6EE DUP4 DUP4 PUSH1 0x40 MLOAD DUP1 PUSH1 0x40 ADD PUSH1 0x40 MSTORE DUP1 PUSH1 0x1A DUP2 MSTORE PUSH1 0x20 ADD PUSH32 0x536166654D6174683A206469766973696F6E206279207A65726F000000000000 DUP2 MSTORE POP PUSH2 0x1E21 JUMP JUMPDEST PUSH1 0x0 DUP4 DUP4 ADD DUP3 PUSH12 0xFFFFFFFFFFFFFFFFFFFFFFFF DUP1 DUP8 AND SWAP1 DUP4 AND LT ISZERO PUSH2 0x1B19 JUMPI PUSH1 0x40 MLOAD PUSH32 0x8C379A000000000000000000000000000000000000000000000000000000000 DUP2 MSTORE PUSH1 0x4 ADD PUSH2 0x75D SWAP2 SWAP1 PUSH2 0x2C72 JUMP JUMPDEST POP SWAP5 SWAP4 POP POP POP POP JUMP JUMPDEST DUP2 PUSH20 0xFFFFFFFFFFFFFFFFFFFFFFFFFFFFFFFFFFFFFFFF AND DUP4 PUSH20 0xFFFFFFFFFFFFFFFFFFFFFFFFFFFFFFFFFFFFFFFF AND EQ ISZERO DUP1 ISZERO PUSH2 0x1B6C JUMPI POP PUSH1 0x0 DUP2 PUSH12 0xFFFFFFFFFFFFFFFFFFFFFFFF AND GT JUMPDEST ISZERO PUSH2 0x9F7 JUMPI PUSH20 0xFFFFFFFFFFFFFFFFFFFFFFFFFFFFFFFFFFFFFFFF DUP4 AND ISZERO PUSH2 0x1C6F JUMPI PUSH20 0xFFFFFFFFFFFFFFFFFFFFFFFFFFFFFFFFFFFFFFFF DUP4 AND PUSH1 0x0 SWAP1 DUP2 MSTORE PUSH1 0x7 PUSH1 0x20 MSTORE PUSH1 0x40 DUP2 KECCAK256 SLOAD PUSH4 0xFFFFFFFF AND SWAP1 DUP2 PUSH2 0x1BC6 JUMPI PUSH1 0x0 PUSH2 0x1C36 JUMP JUMPDEST PUSH20 0xFFFFFFFFFFFFFFFFFFFFFFFFFFFFFFFFFFFFFFFF DUP6 AND PUSH1 0x0 SWAP1 DUP2 MSTORE PUSH1 0x6 PUSH1 0x20 SWAP1 DUP2 MSTORE PUSH1 0x40 DUP1 DUP4 KECCAK256 PUSH32 0xFFFFFFFFFFFFFFFFFFFFFFFFFFFFFFFFFFFFFFFFFFFFFFFFFFFFFFFFFFFFFFFF DUP7 ADD PUSH4 0xFFFFFFFF AND DUP5 MSTORE SWAP1 SWAP2 MSTORE SWAP1 KECCAK256 SLOAD PUSH5 0x100000000 SWAP1 DIV PUSH12 0xFFFFFFFFFFFFFFFFFFFFFFFF AND JUMPDEST SWAP1 POP PUSH1 0x0 PUSH2 0x1C5D DUP3 DUP6 PUSH1 0x40 MLOAD DUP1 PUSH1 0x60 ADD PUSH1 0x40 MSTORE DUP1 PUSH1 0x27 DUP2 MSTORE PUSH1 0x20 ADD PUSH2 0x3015 PUSH1 0x27 SWAP2 CODECOPY PUSH2 0x1728 JUMP JUMPDEST SWAP1 POP PUSH2 0x1C6B DUP7 DUP5 DUP5 DUP5 PUSH2 0x1E72 JUMP JUMPDEST POP POP POP JUMPDEST PUSH20 0xFFFFFFFFFFFFFFFFFFFFFFFFFFFFFFFFFFFFFFFF DUP3 AND ISZERO PUSH2 0x9F7 JUMPI PUSH20 0xFFFFFFFFFFFFFFFFFFFFFFFFFFFFFFFFFFFFFFFF DUP3 AND PUSH1 0x0 SWAP1 DUP2 MSTORE PUSH1 0x7 PUSH1 0x20 MSTORE PUSH1 0x40 DUP2 KECCAK256 SLOAD PUSH4 0xFFFFFFFF AND SWAP1 DUP2 PUSH2 0x1CC4 JUMPI PUSH1 0x0 PUSH2 0x1D34 JUMP JUMPDEST PUSH20 0xFFFFFFFFFFFFFFFFFFFFFFFFFFFFFFFFFFFFFFFF DUP5 AND PUSH1 0x0 SWAP1 DUP2 MSTORE PUSH1 0x6 PUSH1 0x20 SWAP1 DUP2 MSTORE PUSH1 0x40 DUP1 DUP4 KECCAK256 PUSH32 0xFFFFFFFFFFFFFFFFFFFFFFFFFFFFFFFFFFFFFFFFFFFFFFFFFFFFFFFFFFFFFFFF DUP7 ADD PUSH4 0xFFFFFFFF AND DUP5 MSTORE SWAP1 SWAP2 MSTORE SWAP1 KECCAK256 SLOAD PUSH5 0x100000000 SWAP1 DIV PUSH12 0xFFFFFFFFFFFFFFFFFFFFFFFF AND JUMPDEST SWAP1 POP PUSH1 0x0 PUSH2 0x1D5B DUP3 DUP6 PUSH1 0x40 MLOAD DUP1 PUSH1 0x60 ADD PUSH1 0x40 MSTORE DUP1 PUSH1 0x26 DUP2 MSTORE PUSH1 0x20 ADD PUSH2 0x2FBC PUSH1 0x26 SWAP2 CODECOPY PUSH2 0x1AC7 JUMP JUMPDEST SWAP1 POP PUSH2 0x1120 DUP6 DUP5 DUP5 DUP5 PUSH2 0x1E72 JUMP JUMPDEST PUSH20 0xFFFFFFFFFFFFFFFFFFFFFFFFFFFFFFFFFFFFFFFF DUP1 DUP4 AND PUSH1 0x0 DUP2 DUP2 MSTORE PUSH1 0x5 PUSH1 0x20 DUP2 DUP2 MSTORE PUSH1 0x40 DUP1 DUP5 KECCAK256 DUP1 SLOAD PUSH1 0x4 DUP5 MSTORE DUP3 DUP7 KECCAK256 SLOAD SWAP5 SWAP1 SWAP4 MSTORE DUP8 DUP8 AND PUSH32 0xFFFFFFFFFFFFFFFFFFFFFFFF0000000000000000000000000000000000000000 DUP5 AND DUP2 OR SWAP1 SWAP2 SSTORE SWAP1 MLOAD SWAP2 SWAP1 SWAP6 AND SWAP5 PUSH12 0xFFFFFFFFFFFFFFFFFFFFFFFF SWAP1 SWAP3 AND SWAP4 SWAP2 SWAP3 DUP6 SWAP3 SWAP2 PUSH32 0x3134E8A2E6D97E929A7E54011EA5485D7D196DD5F0BA4D4EF95803E8E3FC257F SWAP2 SWAP1 LOG4 PUSH2 0x1E17 DUP3 DUP5 DUP4 PUSH2 0x1B22 JUMP JUMPDEST POP POP POP POP JUMP JUMPDEST CHAINID SWAP1 JUMP JUMPDEST PUSH1 0x0 DUP2 DUP4 PUSH2 0x1E5C JUMPI PUSH1 0x40 MLOAD PUSH32 0x8C379A000000000000000000000000000000000000000000000000000000000 DUP2 MSTORE PUSH1 0x4 ADD PUSH2 0x75D SWAP2 SWAP1 PUSH2 0x2C72 JUMP JUMPDEST POP PUSH1 0x0 DUP4 DUP6 DUP2 PUSH2 0x1E68 JUMPI INVALID JUMPDEST DIV SWAP6 SWAP5 POP POP POP POP POP JUMP JUMPDEST PUSH1 0x0 PUSH2 0x1E96 NUMBER PUSH1 0x40 MLOAD DUP1 PUSH1 0x60 ADD PUSH1 0x40 MSTORE DUP1 PUSH1 0x33 DUP2 MSTORE PUSH1 0x20 ADD PUSH2 0x2FE2 PUSH1 0x33 SWAP2 CODECOPY PUSH2 0x20DC JUMP JUMPDEST SWAP1 POP PUSH1 0x0 DUP5 PUSH4 0xFFFFFFFF AND GT DUP1 ISZERO PUSH2 0x1F0A JUMPI POP PUSH20 0xFFFFFFFFFFFFFFFFFFFFFFFFFFFFFFFFFFFFFFFF DUP6 AND PUSH1 0x0 SWAP1 DUP2 MSTORE PUSH1 0x6 PUSH1 0x20 SWAP1 DUP2 MSTORE PUSH1 0x40 DUP1 DUP4 KECCAK256 PUSH4 0xFFFFFFFF PUSH32 0xFFFFFFFFFFFFFFFFFFFFFFFFFFFFFFFFFFFFFFFFFFFFFFFFFFFFFFFFFFFFFFFF DUP10 ADD DUP2 AND DUP6 MSTORE SWAP3 MSTORE SWAP1 SWAP2 KECCAK256 SLOAD DUP3 DUP3 AND SWAP2 AND EQ JUMPDEST ISZERO PUSH2 0x1FA9 JUMPI PUSH20 0xFFFFFFFFFFFFFFFFFFFFFFFFFFFFFFFFFFFFFFFF DUP6 AND PUSH1 0x0 SWAP1 DUP2 MSTORE PUSH1 0x6 PUSH1 0x20 SWAP1 DUP2 MSTORE PUSH1 0x40 DUP1 DUP4 KECCAK256 PUSH32 0xFFFFFFFFFFFFFFFFFFFFFFFFFFFFFFFFFFFFFFFFFFFFFFFFFFFFFFFFFFFFFFFF DUP9 ADD PUSH4 0xFFFFFFFF AND DUP5 MSTORE SWAP1 SWAP2 MSTORE SWAP1 KECCAK256 DUP1 SLOAD PUSH32 0xFFFFFFFFFFFFFFFFFFFFFFFFFFFFFFFF000000000000000000000000FFFFFFFF AND PUSH5 0x100000000 PUSH12 0xFFFFFFFFFFFFFFFFFFFFFFFF DUP6 AND MUL OR SWAP1 SSTORE PUSH2 0x2085 JUMP JUMPDEST PUSH1 0x40 DUP1 MLOAD DUP1 DUP3 ADD DUP3 MSTORE PUSH4 0xFFFFFFFF DUP1 DUP5 AND DUP3 MSTORE PUSH12 0xFFFFFFFFFFFFFFFFFFFFFFFF DUP1 DUP7 AND PUSH1 0x20 DUP1 DUP6 ADD SWAP2 DUP3 MSTORE PUSH20 0xFFFFFFFFFFFFFFFFFFFFFFFFFFFFFFFFFFFFFFFF DUP12 AND PUSH1 0x0 DUP2 DUP2 MSTORE PUSH1 0x6 DUP4 MSTORE DUP8 DUP2 KECCAK256 DUP13 DUP8 AND DUP3 MSTORE DUP4 MSTORE DUP8 DUP2 KECCAK256 SWAP7 MLOAD DUP8 SLOAD SWAP5 MLOAD SWAP1 SWAP6 AND PUSH5 0x100000000 MUL PUSH32 0xFFFFFFFFFFFFFFFFFFFFFFFFFFFFFFFF000000000000000000000000FFFFFFFF SWAP6 DUP8 AND PUSH32 0xFFFFFFFFFFFFFFFFFFFFFFFFFFFFFFFFFFFFFFFFFFFFFFFFFFFFFFFF00000000 SWAP6 DUP7 AND OR SWAP6 SWAP1 SWAP6 AND SWAP5 SWAP1 SWAP5 OR SWAP1 SWAP6 SSTORE SWAP4 DUP3 MSTORE PUSH1 0x7 SWAP1 SWAP4 MSTORE SWAP3 SWAP1 SWAP3 KECCAK256 DUP1 SLOAD PUSH1 0x1 DUP9 ADD SWAP1 SWAP4 AND SWAP3 SWAP1 SWAP2 AND SWAP2 SWAP1 SWAP2 OR SWAP1 SSTORE JUMPDEST DUP5 PUSH20 0xFFFFFFFFFFFFFFFFFFFFFFFFFFFFFFFFFFFFFFFF AND PUSH32 0xDEC2BACDD2F05B59DE34DA9B523DFF8BE42E5E38E818C82FDB0BAE774387A724 DUP5 DUP5 PUSH1 0x40 MLOAD PUSH2 0x20CD SWAP3 SWAP2 SWAP1 PUSH2 0x2DD6 JUMP JUMPDEST PUSH1 0x40 MLOAD DUP1 SWAP2 SUB SWAP1 LOG2 POP POP POP POP POP JUMP JUMPDEST PUSH1 0x0 DUP2 PUSH5 0x100000000 DUP5 LT PUSH2 0x1720 JUMPI PUSH1 0x40 MLOAD PUSH32 0x8C379A000000000000000000000000000000000000000000000000000000000 DUP2 MSTORE PUSH1 0x4 ADD PUSH2 0x75D SWAP2 SWAP1 PUSH2 0x2C72 JUMP JUMPDEST PUSH1 0x40 DUP1 MLOAD DUP1 DUP3 ADD SWAP1 SWAP2 MSTORE PUSH1 0x0 DUP1 DUP3 MSTORE PUSH1 0x20 DUP3 ADD MSTORE SWAP1 JUMP JUMPDEST DUP1 CALLDATALOAD PUSH2 0x52E DUP2 PUSH2 0x2EAE JUMP JUMPDEST DUP1 CALLDATALOAD PUSH2 0x52E DUP2 PUSH2 0x2EC2 JUMP JUMPDEST DUP1 CALLDATALOAD PUSH2 0x52E DUP2 PUSH2 0x2ECB JUMP JUMPDEST DUP1 CALLDATALOAD PUSH2 0x52E DUP2 PUSH2 0x2ED4 JUMP JUMPDEST PUSH1 0x0 PUSH1 0x20 DUP3 DUP5 SUB SLT ISZERO PUSH2 0x2173 JUMPI PUSH1 0x0 DUP1 REVERT JUMPDEST PUSH1 0x0 PUSH2 0x217F DUP5 DUP5 PUSH2 0x2135 JUMP JUMPDEST SWAP5 SWAP4 POP POP POP POP JUMP JUMPDEST PUSH1 0x0 DUP1 PUSH1 0x40 DUP4 DUP6 SUB SLT ISZERO PUSH2 0x219A JUMPI PUSH1 0x0 DUP1 REVERT JUMPDEST PUSH1 0x0 PUSH2 0x21A6 DUP6 DUP6 PUSH2 0x2135 JUMP JUMPDEST SWAP3 POP POP PUSH1 0x20 PUSH2 0x21B7 DUP6 DUP3 DUP7 ADD PUSH2 0x2135 JUMP JUMPDEST SWAP2 POP POP SWAP3 POP SWAP3 SWAP1 POP JUMP JUMPDEST PUSH1 0x0 DUP1 PUSH1 0x0 PUSH1 0x60 DUP5 DUP7 SUB SLT ISZERO PUSH2 0x21D6 JUMPI PUSH1 0x0 DUP1 REVERT JUMPDEST PUSH1 0x0 PUSH2 0x21E2 DUP7 DUP7 PUSH2 0x2135 JUMP JUMPDEST SWAP4 POP POP PUSH1 0x20 PUSH2 0x21F3 DUP7 DUP3 DUP8 ADD PUSH2 0x2135 JUMP JUMPDEST SWAP3 POP POP PUSH1 0x40 PUSH2 0x2204 DUP7 DUP3 DUP8 ADD PUSH2 0x2140 JUMP JUMPDEST SWAP2 POP POP SWAP3 POP SWAP3 POP SWAP3 JUMP JUMPDEST PUSH1 0x0 DUP1 PUSH1 0x0 DUP1 PUSH1 0x0 DUP1 PUSH1 0x0 PUSH1 0xE0 DUP9 DUP11 SUB SLT ISZERO PUSH2 0x2229 JUMPI PUSH1 0x0 DUP1 REVERT JUMPDEST PUSH1 0x0 PUSH2 0x2235 DUP11 DUP11 PUSH2 0x2135 JUMP JUMPDEST SWAP8 POP POP PUSH1 0x20 PUSH2 0x2246 DUP11 DUP3 DUP12 ADD PUSH2 0x2135 JUMP JUMPDEST SWAP7 POP POP PUSH1 0x40 PUSH2 0x2257 DUP11 DUP3 DUP12 ADD PUSH2 0x2140 JUMP JUMPDEST SWAP6 POP POP PUSH1 0x60 PUSH2 0x2268 DUP11 DUP3 DUP12 ADD PUSH2 0x2140 JUMP JUMPDEST SWAP5 POP POP PUSH1 0x80 PUSH2 0x2279 DUP11 DUP3 DUP12 ADD PUSH2 0x2156 JUMP JUMPDEST SWAP4 POP POP PUSH1 0xA0 PUSH2 0x228A DUP11 DUP3 DUP12 ADD PUSH2 0x2140 JUMP JUMPDEST SWAP3 POP POP PUSH1 0xC0 PUSH2 0x229B DUP11 DUP3 DUP12 ADD PUSH2 0x2140 JUMP JUMPDEST SWAP2 POP POP SWAP3 SWAP6 SWAP9 SWAP2 SWAP5 SWAP8 POP SWAP3 SWAP6 POP JUMP JUMPDEST PUSH1 0x0 DUP1 PUSH1 0x40 DUP4 DUP6 SUB SLT ISZERO PUSH2 0x22BD JUMPI PUSH1 0x0 DUP1 REVERT JUMPDEST PUSH1 0x0 PUSH2 0x22C9 DUP6 DUP6 PUSH2 0x2135 JUMP JUMPDEST SWAP3 POP POP PUSH1 0x20 PUSH2 0x21B7 DUP6 DUP3 DUP7 ADD PUSH2 0x2140 JUMP JUMPDEST PUSH1 0x0 DUP1 PUSH1 0x0 DUP1 PUSH1 0x0 DUP1 PUSH1 0xC0 DUP8 DUP10 SUB SLT ISZERO PUSH2 0x22F3 JUMPI PUSH1 0x0 DUP1 REVERT JUMPDEST PUSH1 0x0 PUSH2 0x22FF DUP10 DUP10 PUSH2 0x2135 JUMP JUMPDEST SWAP7 POP POP PUSH1 0x20 PUSH2 0x2310 DUP10 DUP3 DUP11 ADD PUSH2 0x2140 JUMP JUMPDEST SWAP6 POP POP PUSH1 0x40 PUSH2 0x2321 DUP10 DUP3 DUP11 ADD PUSH2 0x2140 JUMP JUMPDEST SWAP5 POP POP PUSH1 0x60 PUSH2 0x2332 DUP10 DUP3 DUP11 ADD PUSH2 0x2156 JUMP JUMPDEST SWAP4 POP POP PUSH1 0x80 PUSH2 0x2343 DUP10 DUP3 DUP11 ADD PUSH2 0x2140 JUMP JUMPDEST SWAP3 POP POP PUSH1 0xA0 PUSH2 0x2354 DUP10 DUP3 DUP11 ADD PUSH2 0x2140 JUMP JUMPDEST SWAP2 POP POP SWAP3 SWAP6 POP SWAP3 SWAP6 POP SWAP3 SWAP6 JUMP JUMPDEST PUSH1 0x0 DUP1 PUSH1 0x40 DUP4 DUP6 SUB SLT ISZERO PUSH2 0x2374 JUMPI PUSH1 0x0 DUP1 REVERT JUMPDEST PUSH1 0x0 PUSH2 0x2380 DUP6 DUP6 PUSH2 0x2135 JUMP JUMPDEST SWAP3 POP POP PUSH1 0x20 PUSH2 0x21B7 DUP6 DUP3 DUP7 ADD PUSH2 0x214B JUMP JUMPDEST PUSH2 0x239A DUP2 PUSH2 0x2E03 JUMP JUMPDEST DUP3 MSTORE POP POP JUMP JUMPDEST PUSH2 0x239A DUP2 PUSH2 0x2E0E JUMP JUMPDEST PUSH2 0x239A DUP2 PUSH2 0x2E13 JUMP JUMPDEST PUSH2 0x239A PUSH2 0x23BE DUP3 PUSH2 0x2E13 JUMP JUMPDEST PUSH2 0x2E13 JUMP JUMPDEST PUSH1 0x0 PUSH2 0x23CE DUP3 PUSH2 0x2DF1 JUMP JUMPDEST PUSH2 0x23D8 DUP2 DUP6 PUSH2 0x2DF5 JUMP JUMPDEST SWAP4 POP PUSH2 0x23E8 DUP2 DUP6 PUSH1 0x20 DUP7 ADD PUSH2 0x2E5A JUMP JUMPDEST PUSH2 0x23F1 DUP2 PUSH2 0x2E86 JUMP JUMPDEST SWAP1 SWAP4 ADD SWAP4 SWAP3 POP POP POP JUMP JUMPDEST PUSH1 0x0 PUSH2 0x2408 PUSH1 0x25 DUP4 PUSH2 0x2DF5 JUMP JUMPDEST PUSH32 0x556E693A3A64656C656761746542795369673A207369676E6174757265206578 DUP2 MSTORE PUSH32 0x7069726564000000000000000000000000000000000000000000000000000000 PUSH1 0x20 DUP3 ADD MSTORE PUSH1 0x40 ADD SWAP3 SWAP2 POP POP JUMP JUMPDEST PUSH1 0x0 PUSH2 0x2467 PUSH1 0x2 DUP4 PUSH2 0x2DFE JUMP JUMPDEST PUSH32 0x1901000000000000000000000000000000000000000000000000000000000000 DUP2 MSTORE PUSH1 0x2 ADD SWAP3 SWAP2 POP POP JUMP JUMPDEST PUSH1 0x0 PUSH2 0x24A0 PUSH1 0x1B DUP4 PUSH2 0x2DF5 JUMP JUMPDEST PUSH32 0x536166654D6174683A206164646974696F6E206F766572666C6F770000000000 DUP2 MSTORE PUSH1 0x20 ADD SWAP3 SWAP2 POP POP JUMP JUMPDEST PUSH1 0x0 PUSH2 0x24D9 PUSH1 0x25 DUP4 PUSH2 0x2DF5 JUMP JUMPDEST PUSH32 0x556E693A3A64656C656761746542795369673A20696E76616C6964207369676E DUP2 MSTORE PUSH32 0x6174757265000000000000000000000000000000000000000000000000000000 PUSH1 0x20 DUP3 ADD MSTORE PUSH1 0x40 ADD SWAP3 SWAP2 POP POP JUMP JUMPDEST PUSH1 0x0 PUSH2 0x2538 PUSH1 0x26 DUP4 PUSH2 0x2DF5 JUMP JUMPDEST PUSH32 0x556E693A3A6765745072696F72566F7465733A206E6F74207965742064657465 DUP2 MSTORE PUSH32 0x726D696E65640000000000000000000000000000000000000000000000000000 PUSH1 0x20 DUP3 ADD MSTORE PUSH1 0x40 ADD SWAP3 SWAP2 POP POP JUMP JUMPDEST PUSH1 0x0 PUSH2 0x2597 PUSH1 0x2E DUP4 PUSH2 0x2DF5 JUMP JUMPDEST PUSH32 0x556E693A3A6D696E743A2063616E6E6F74207472616E7366657220746F207468 DUP2 MSTORE PUSH32 0x65207A65726F2061646472657373000000000000000000000000000000000000 PUSH1 0x20 DUP3 ADD MSTORE PUSH1 0x40 ADD SWAP3 SWAP2 POP POP JUMP JUMPDEST PUSH1 0x0 PUSH2 0x25F6 PUSH1 0x52 DUP4 PUSH2 0x2DFE JUMP JUMPDEST PUSH32 0x5065726D69742861646472657373206F776E65722C6164647265737320737065 DUP2 MSTORE PUSH32 0x6E6465722C75696E743235362076616C75652C75696E74323536206E6F6E6365 PUSH1 0x20 DUP3 ADD MSTORE PUSH32 0x2C75696E7432353620646561646C696E65290000000000000000000000000000 PUSH1 0x40 DUP3 ADD MSTORE PUSH1 0x52 ADD SWAP3 SWAP2 POP POP JUMP JUMPDEST PUSH1 0x0 PUSH2 0x267B PUSH1 0x22 DUP4 PUSH2 0x2DF5 JUMP JUMPDEST PUSH32 0x556E693A3A6D696E743A206D696E74696E67206E6F7420616C6C6F7765642079 DUP2 MSTORE PUSH32 0x6574000000000000000000000000000000000000000000000000000000000000 PUSH1 0x20 DUP3 ADD MSTORE PUSH1 0x40 ADD SWAP3 SWAP2 POP POP JUMP JUMPDEST PUSH1 0x0 PUSH2 0x26DA PUSH1 0x43 DUP4 PUSH2 0x2DFE JUMP JUMPDEST PUSH32 0x454950373132446F6D61696E28737472696E67206E616D652C75696E74323536 DUP2 MSTORE PUSH32 0x20636861696E49642C6164647265737320766572696679696E67436F6E747261 PUSH1 0x20 DUP3 ADD MSTORE PUSH32 0x6374290000000000000000000000000000000000000000000000000000000000 PUSH1 0x40 DUP3 ADD MSTORE PUSH1 0x43 ADD SWAP3 SWAP2 POP POP JUMP JUMPDEST PUSH1 0x0 PUSH2 0x275F PUSH1 0x39 DUP4 PUSH2 0x2DF5 JUMP JUMPDEST PUSH32 0x556E693A3A5F7472616E73666572546F6B656E733A2063616E6E6F7420747261 DUP2 MSTORE PUSH32 0x6E7366657220746F20746865207A65726F206164647265737300000000000000 PUSH1 0x20 DUP3 ADD MSTORE PUSH1 0x40 ADD SWAP3 SWAP2 POP POP JUMP JUMPDEST PUSH1 0x0 PUSH2 0x27BE PUSH1 0x21 DUP4 PUSH2 0x2DF5 JUMP JUMPDEST PUSH32 0x536166654D6174683A206D756C7469706C69636174696F6E206F766572666C6F DUP2 MSTORE PUSH32 0x7700000000000000000000000000000000000000000000000000000000000000 PUSH1 0x20 DUP3 ADD MSTORE PUSH1 0x40 ADD SWAP3 SWAP2 POP POP JUMP JUMPDEST PUSH1 0x0 PUSH2 0x281D PUSH1 0x1C DUP4 PUSH2 0x2DF5 JUMP JUMPDEST PUSH32 0x556E693A3A6D696E743A206578636565646564206D696E742063617000000000 DUP2 MSTORE PUSH1 0x20 ADD SWAP3 SWAP2 POP POP JUMP JUMPDEST PUSH1 0x0 PUSH2 0x2856 PUSH1 0x23 DUP4 PUSH2 0x2DF5 JUMP JUMPDEST PUSH32 0x556E693A3A6D696E743A206F6E6C7920746865206D696E7465722063616E206D DUP2 MSTORE PUSH32 0x696E740000000000000000000000000000000000000000000000000000000000 PUSH1 0x20 DUP3 ADD MSTORE PUSH1 0x40 ADD SWAP3 SWAP2 POP POP JUMP JUMPDEST PUSH1 0x0 PUSH2 0x28B5 PUSH1 0x3D DUP4 PUSH2 0x2DF5 JUMP JUMPDEST PUSH32 0x556E693A3A7365744D696E7465723A206F6E6C7920746865206D696E74657220 DUP2 MSTORE PUSH32 0x63616E206368616E676520746865206D696E7465722061646472657373000000 PUSH1 0x20 DUP3 ADD MSTORE PUSH1 0x40 ADD SWAP3 SWAP2 POP POP JUMP JUMPDEST PUSH1 0x0 PUSH2 0x2914 PUSH1 0x21 DUP4 PUSH2 0x2DF5 JUMP JUMPDEST PUSH32 0x556E693A3A64656C656761746542795369673A20696E76616C6964206E6F6E63 DUP2 MSTORE PUSH32 0x6500000000000000000000000000000000000000000000000000000000000000 PUSH1 0x20 DUP3 ADD MSTORE PUSH1 0x40 ADD SWAP3 SWAP2 POP POP JUMP JUMPDEST PUSH1 0x0 PUSH2 0x2973 PUSH1 0x3B DUP4 PUSH2 0x2DF5 JUMP JUMPDEST PUSH32 0x556E693A3A5F7472616E73666572546F6B656E733A2063616E6E6F7420747261 DUP2 MSTORE PUSH32 0x6E736665722066726F6D20746865207A65726F20616464726573730000000000 PUSH1 0x20 DUP3 ADD MSTORE PUSH1 0x40 ADD SWAP3 SWAP2 POP POP JUMP JUMPDEST PUSH1 0x0 PUSH2 0x29D2 PUSH1 0x1E DUP4 PUSH2 0x2DF5 JUMP JUMPDEST PUSH32 0x556E693A3A7065726D69743A207369676E617475726520657870697265640000 DUP2 MSTORE PUSH1 0x20 ADD SWAP3 SWAP2 POP POP JUMP JUMPDEST PUSH1 0x0 PUSH2 0x2A0B PUSH1 0x3A DUP4 PUSH2 0x2DFE JUMP JUMPDEST PUSH32 0x44656C65676174696F6E28616464726573732064656C6567617465652C75696E DUP2 MSTORE PUSH32 0x74323536206E6F6E63652C75696E743235362065787069727929000000000000 PUSH1 0x20 DUP3 ADD MSTORE PUSH1 0x3A ADD SWAP3 SWAP2 POP POP JUMP JUMPDEST PUSH1 0x0 PUSH2 0x2A6A PUSH1 0x1E DUP4 PUSH2 0x2DF5 JUMP JUMPDEST PUSH32 0x556E693A3A7065726D69743A20696E76616C6964207369676E61747572650000 DUP2 MSTORE PUSH1 0x20 ADD SWAP3 SWAP2 POP POP JUMP JUMPDEST PUSH1 0x0 PUSH2 0x2AA3 PUSH1 0x19 DUP4 PUSH2 0x2DF5 JUMP JUMPDEST PUSH32 0x556E693A3A7065726D69743A20756E617574686F72697A656400000000000000 DUP2 MSTORE PUSH1 0x20 ADD SWAP3 SWAP2 POP POP JUMP JUMPDEST PUSH2 0x239A DUP2 PUSH2 0x2E2F JUMP JUMPDEST PUSH2 0x239A DUP2 PUSH2 0x2E38 JUMP JUMPDEST PUSH2 0x239A DUP2 PUSH2 0x2E4F JUMP JUMPDEST PUSH2 0x239A DUP2 PUSH2 0x2E3E JUMP JUMPDEST PUSH1 0x0 PUSH2 0x2AFE DUP3 PUSH2 0x245A JUMP JUMPDEST SWAP2 POP PUSH2 0x2B0A DUP3 DUP6 PUSH2 0x23B2 JUMP JUMPDEST PUSH1 0x20 DUP3 ADD SWAP2 POP PUSH2 0x2B1A DUP3 DUP5 PUSH2 0x23B2 JUMP JUMPDEST POP PUSH1 0x20 ADD SWAP3 SWAP2 POP POP JUMP JUMPDEST PUSH1 0x0 PUSH2 0x52E DUP3 PUSH2 0x25E9 JUMP JUMPDEST PUSH1 0x0 PUSH2 0x52E DUP3 PUSH2 0x26CD JUMP JUMPDEST PUSH1 0x0 PUSH2 0x52E DUP3 PUSH2 0x29FE JUMP JUMPDEST PUSH1 0x20 DUP2 ADD PUSH2 0x52E DUP3 DUP5 PUSH2 0x2391 JUMP JUMPDEST PUSH1 0x40 DUP2 ADD PUSH2 0x2B61 DUP3 DUP6 PUSH2 0x2391 JUMP JUMPDEST PUSH2 0x6EE PUSH1 0x20 DUP4 ADD DUP5 PUSH2 0x2391 JUMP JUMPDEST PUSH1 0x20 DUP2 ADD PUSH2 0x52E DUP3 DUP5 PUSH2 0x23A0 JUMP JUMPDEST PUSH1 0x20 DUP2 ADD PUSH2 0x52E DUP3 DUP5 PUSH2 0x23A9 JUMP JUMPDEST PUSH1 0xC0 DUP2 ADD PUSH2 0x2B98 DUP3 DUP10 PUSH2 0x23A9 JUMP JUMPDEST PUSH2 0x2BA5 PUSH1 0x20 DUP4 ADD DUP9 PUSH2 0x2391 JUMP JUMPDEST PUSH2 0x2BB2 PUSH1 0x40 DUP4 ADD DUP8 PUSH2 0x2391 JUMP JUMPDEST PUSH2 0x2BBF PUSH1 0x60 DUP4 ADD DUP7 PUSH2 0x23A9 JUMP JUMPDEST PUSH2 0x2BCC PUSH1 0x80 DUP4 ADD DUP6 PUSH2 0x23A9 JUMP JUMPDEST PUSH2 0x2BD9 PUSH1 0xA0 DUP4 ADD DUP5 PUSH2 0x23A9 JUMP JUMPDEST SWAP8 SWAP7 POP POP POP POP POP POP POP JUMP JUMPDEST PUSH1 0x80 DUP2 ADD PUSH2 0x2BF2 DUP3 DUP8 PUSH2 0x23A9 JUMP JUMPDEST PUSH2 0x2BFF PUSH1 0x20 DUP4 ADD DUP7 PUSH2 0x2391 JUMP JUMPDEST PUSH2 0x2C0C PUSH1 0x40 DUP4 ADD DUP6 PUSH2 0x23A9 JUMP JUMPDEST PUSH2 0x2C19 PUSH1 0x60 DUP4 ADD DUP5 PUSH2 0x23A9 JUMP JUMPDEST SWAP6 SWAP5 POP POP POP POP POP JUMP JUMPDEST PUSH1 0x80 DUP2 ADD PUSH2 0x2C30 DUP3 DUP8 PUSH2 0x23A9 JUMP JUMPDEST PUSH2 0x2C3D PUSH1 0x20 DUP4 ADD DUP7 PUSH2 0x23A9 JUMP JUMPDEST PUSH2 0x2C4A PUSH1 0x40 DUP4 ADD DUP6 PUSH2 0x23A9 JUMP JUMPDEST PUSH2 0x2C19 PUSH1 0x60 DUP4 ADD DUP5 PUSH2 0x2391 JUMP JUMPDEST PUSH1 0x80 DUP2 ADD PUSH2 0x2C65 DUP3 DUP8 PUSH2 0x23A9 JUMP JUMPDEST PUSH2 0x2BFF PUSH1 0x20 DUP4 ADD DUP7 PUSH2 0x2AD8 JUMP JUMPDEST PUSH1 0x20 DUP1 DUP3 MSTORE DUP2 ADD PUSH2 0x6EE DUP2 DUP5 PUSH2 0x23C3 JUMP JUMPDEST PUSH1 0x20 DUP1 DUP3 MSTORE DUP2 ADD PUSH2 0x52E DUP2 PUSH2 0x23FB JUMP JUMPDEST PUSH1 0x20 DUP1 DUP3 MSTORE DUP2 ADD PUSH2 0x52E DUP2 PUSH2 0x2493 JUMP JUMPDEST PUSH1 0x20 DUP1 DUP3 MSTORE DUP2 ADD PUSH2 0x52E DUP2 PUSH2 0x24CC JUMP JUMPDEST PUSH1 0x20 DUP1 DUP3 MSTORE DUP2 ADD PUSH2 0x52E DUP2 PUSH2 0x252B JUMP JUMPDEST PUSH1 0x20 DUP1 DUP3 MSTORE DUP2 ADD PUSH2 0x52E DUP2 PUSH2 0x258A JUMP JUMPDEST PUSH1 0x20 DUP1 DUP3 MSTORE DUP2 ADD PUSH2 0x52E DUP2 PUSH2 0x266E JUMP JUMPDEST PUSH1 0x20 DUP1 DUP3 MSTORE DUP2 ADD PUSH2 0x52E DUP2 PUSH2 0x2752 JUMP JUMPDEST PUSH1 0x20 DUP1 DUP3 MSTORE DUP2 ADD PUSH2 0x52E DUP2 PUSH2 0x27B1 JUMP JUMPDEST PUSH1 0x20 DUP1 DUP3 MSTORE DUP2 ADD PUSH2 0x52E DUP2 PUSH2 0x2810 JUMP JUMPDEST PUSH1 0x20 DUP1 DUP3 MSTORE DUP2 ADD PUSH2 0x52E DUP2 PUSH2 0x2849 JUMP JUMPDEST PUSH1 0x20 DUP1 DUP3 MSTORE DUP2 ADD PUSH2 0x52E DUP2 PUSH2 0x28A8 JUMP JUMPDEST PUSH1 0x20 DUP1 DUP3 MSTORE DUP2 ADD PUSH2 0x52E DUP2 PUSH2 0x2907 JUMP JUMPDEST PUSH1 0x20 DUP1 DUP3 MSTORE DUP2 ADD PUSH2 0x52E DUP2 PUSH2 0x2966 JUMP JUMPDEST PUSH1 0x20 DUP1 DUP3 MSTORE DUP2 ADD PUSH2 0x52E DUP2 PUSH2 0x29C5 JUMP JUMPDEST PUSH1 0x20 DUP1 DUP3 MSTORE DUP2 ADD PUSH2 0x52E DUP2 PUSH2 0x2A5D JUMP JUMPDEST PUSH1 0x20 DUP1 DUP3 MSTORE DUP2 ADD PUSH2 0x52E DUP2 PUSH2 0x2A96 JUMP JUMPDEST PUSH1 0x20 DUP2 ADD PUSH2 0x52E DUP3 DUP5 PUSH2 0x2ACF JUMP JUMPDEST PUSH1 0x40 DUP2 ADD PUSH2 0x2D9F DUP3 DUP6 PUSH2 0x2ACF JUMP JUMPDEST PUSH2 0x6EE PUSH1 0x20 DUP4 ADD DUP5 PUSH2 0x2AEA JUMP JUMPDEST PUSH1 0x20 DUP2 ADD PUSH2 0x52E DUP3 DUP5 PUSH2 0x2AD8 JUMP JUMPDEST PUSH1 0x20 DUP2 ADD PUSH2 0x52E DUP3 DUP5 PUSH2 0x2AE1 JUMP JUMPDEST PUSH1 0x20 DUP2 ADD PUSH2 0x52E DUP3 DUP5 PUSH2 0x2AEA JUMP JUMPDEST PUSH1 0x40 DUP2 ADD PUSH2 0x2DE4 DUP3 DUP6 PUSH2 0x2AE1 JUMP JUMPDEST PUSH2 0x6EE PUSH1 0x20 DUP4 ADD DUP5 PUSH2 0x2AE1 JUMP JUMPDEST MLOAD SWAP1 JUMP JUMPDEST SWAP1 DUP2 MSTORE PUSH1 0x20 ADD SWAP1 JUMP JUMPDEST SWAP2 SWAP1 POP JUMP JUMPDEST PUSH1 0x0 PUSH2 0x52E DUP3 PUSH2 0x2E16 JUMP JUMPDEST ISZERO ISZERO SWAP1 JUMP JUMPDEST SWAP1 JUMP JUMPDEST PUSH20 0xFFFFFFFFFFFFFFFFFFFFFFFFFFFFFFFFFFFFFFFF AND SWAP1 JUMP JUMPDEST PUSH4 0xFFFFFFFF AND SWAP1 JUMP JUMPDEST PUSH1 0xFF AND SWAP1 JUMP JUMPDEST PUSH12 0xFFFFFFFFFFFFFFFFFFFFFFFF AND SWAP1 JUMP JUMPDEST PUSH1 0x0 PUSH2 0x52E DUP3 PUSH2 0x2E3E JUMP JUMPDEST PUSH1 0x0 JUMPDEST DUP4 DUP2 LT ISZERO PUSH2 0x2E75 JUMPI DUP2 DUP2 ADD MLOAD DUP4 DUP3 ADD MSTORE PUSH1 0x20 ADD PUSH2 0x2E5D JUMP JUMPDEST DUP4 DUP2 GT ISZERO PUSH2 0x1E17 JUMPI POP POP PUSH1 0x0 SWAP2 ADD MSTORE JUMP JUMPDEST PUSH1 0x1F ADD PUSH32 0xFFFFFFFFFFFFFFFFFFFFFFFFFFFFFFFFFFFFFFFFFFFFFFFFFFFFFFFFFFFFFFE0 AND SWAP1 JUMP JUMPDEST PUSH2 0x2EB7 DUP2 PUSH2 0x2E03 JUMP JUMPDEST DUP2 EQ PUSH2 0xA36 JUMPI PUSH1 0x0 DUP1 REVERT JUMPDEST PUSH2 0x2EB7 DUP2 PUSH2 0x2E13 JUMP JUMPDEST PUSH2 0x2EB7 DUP2 PUSH2 0x2E2F JUMP JUMPDEST PUSH2 0x2EB7 DUP2 PUSH2 0x2E38 JUMP INVALID SSTORE PUSH15 0x693A3A6D696E743A207472616E7366 PUSH6 0x7220616D6F75 PUSH15 0x74206F766572666C6F7773556E693A GASPRICE PUSH21 0x72616E7366657246726F6D3A207472616E73666572 KECCAK256 PUSH2 0x6D6F PUSH22 0x6E742065786365656473207370656E64657220616C6C PUSH16 0x77616E6365556E693A3A6D696E743A20 PUSH21 0x6F74616C537570706C792065786365656473203936 KECCAK256 PUSH3 0x697473 SSTORE PUSH15 0x693A3A5F7472616E73666572546F6B PUSH6 0x6E733A207472 PUSH2 0x6E73 PUSH7 0x657220616D6F75 PUSH15 0x7420657863656564732062616C616E PUSH4 0x65556E69 GASPRICE GASPRICE PUSH17 0x65726D69743A20616D6F756E7420657863 PUSH6 0x656473203936 KECCAK256 PUSH3 0x697473 SSTORE PUSH15 0x693A3A5F6D6F7665566F7465733A20 PUSH23 0x6F746520616D6F756E74206F766572666C6F7773556E69 GASPRICE GASPRICE 0x5F PUSH24 0x72697465436865636B706F696E743A20626C6F636B206E75 PUSH14 0x6265722065786365656473203332 KECCAK256 PUSH3 0x697473 SSTORE PUSH15 0x693A3A5F6D6F7665566F7465733A20 PUSH23 0x6F746520616D6F756E7420756E646572666C6F7773556E PUSH10 0x3A3A7472616E73666572 GASPRICE KECCAK256 PUSH2 0x6D6F PUSH22 0x6E7420657863656564732039362062697473556E693A GASPRICE PUSH14 0x696E743A20616D6F756E74206578 PUSH4 0x65656473 KECCAK256 CODECOPY CALLDATASIZE KECCAK256 PUSH3 0x697473 SSTORE PUSH15 0x693A3A617070726F76653A20616D6F PUSH22 0x6E7420657863656564732039362062697473556E693A GASPRICE 0x5F PUSH21 0x72616E73666572546F6B656E733A207472616E7366 PUSH6 0x7220616D6F75 PUSH15 0x74206F766572666C6F7773A365627A PUSH27 0x723158207D9F50AB61BD16AFA8CE374199B43D9220966F80EB2FAD SGT 0xB6 0xE9 0x2E SWAP12 0xCA 0xE XOR 0xEB PUSH13 0x6578706572696D656E74616CF5 PUSH5 0x736F6C6343 STOP SDIV LT STOP BLOCKHASH "},"methodIdentifiers":{"DELEGATION_TYPEHASH()":"e7a324dc","DOMAIN_TYPEHASH()":"20606b70","PERMIT_TYPEHASH()":"30adf81f","allowance(address,address)":"dd62ed3e","approve(address,uint256)":"095ea7b3","balanceOf(address)":"70a08231","checkpoints(address,uint32)":"f1127ed8","decimals()":"313ce567","delegate(address)":"5c19a95c","delegateBySig(address,uint256,uint256,uint8,bytes32,bytes32)":"c3cda520","delegates(address)":"587cde1e","getCurrentVotes(address)":"b4b5ea57","getPriorVotes(address,uint256)":"782d6fe1","minimumTimeBetweenMints()":"5c11d62f","mint(address,uint256)":"40c10f19","mintCap()":"76c71ca1","minter()":"07546172","mintingAllowedAfter()":"30b36cef","name()":"06fdde03","nonces(address)":"7ecebe00","numCheckpoints(address)":"6fcfff45","permit(address,address,uint256,uint256,uint8,bytes32,bytes32)":"d505accf","setMinter(address)":"fca3b5aa","symbol()":"95d89b41","totalSupply()":"18160ddd","transfer(address,uint256)":"a9059cbb","transferFrom(address,address,uint256)":"23b872dd"}},"storageLayout":{"storage":[{"astId":262,"contract":"contracts/mocks/Uni.sol:Uni","label":"totalSupply","offset":0,"slot":"0","type":"t_uint256"},{"astId":264,"contract":"contracts/mocks/Uni.sol:Uni","label":"minter","offset":0,"slot":"1","type":"t_address"},{"astId":266,"contract":"contracts/mocks/Uni.sol:Uni","label":"mintingAllowedAfter","offset":0,"slot":"2","type":"t_uint256"},{"astId":280,"contract":"contracts/mocks/Uni.sol:Uni","label":"allowances","offset":0,"slot":"3","type":"t_mapping(t_address,t_mapping(t_address,t_uint96))"},{"astId":284,"contract":"contracts/mocks/Uni.sol:Uni","label":"balances","offset":0,"slot":"4","type":"t_mapping(t_address,t_uint96)"},{"astId":288,"contract":"contracts/mocks/Uni.sol:Uni","label":"delegates","offset":0,"slot":"5","type":"t_mapping(t_address,t_address)"},{"astId":299,"contract":"contracts/mocks/Uni.sol:Uni","label":"checkpoints","offset":0,"slot":"6","type":"t_mapping(t_address,t_mapping(t_uint32,t_struct(Checkpoint)293_storage))"},{"astId":303,"contract":"contracts/mocks/Uni.sol:Uni","label":"numCheckpoints","offset":0,"slot":"7","type":"t_mapping(t_address,t_uint32)"},{"astId":322,"contract":"contracts/mocks/Uni.sol:Uni","label":"nonces","offset":0,"slot":"8","type":"t_mapping(t_address,t_uint256)"}],"types":{"t_address":{"encoding":"inplace","label":"address","numberOfBytes":"20"},"t_mapping(t_address,t_address)":{"encoding":"mapping","key":"t_address","label":"mapping(address => address)","numberOfBytes":"32","value":"t_address"},"t_mapping(t_address,t_mapping(t_address,t_uint96))":{"encoding":"mapping","key":"t_address","label":"mapping(address => mapping(address => uint96))","numberOfBytes":"32","value":"t_mapping(t_address,t_uint96)"},"t_mapping(t_address,t_mapping(t_uint32,t_struct(Checkpoint)293_storage))":{"encoding":"mapping","key":"t_address","label":"mapping(address => mapping(uint32 => struct Uni.Checkpoint))","numberOfBytes":"32","value":"t_mapping(t_uint32,t_struct(Checkpoint)293_storage)"},"t_mapping(t_address,t_uint256)":{"encoding":"mapping","key":"t_address","label":"mapping(address => uint256)","numberOfBytes":"32","value":"t_uint256"},"t_mapping(t_address,t_uint32)":{"encoding":"mapping","key":"t_address","label":"mapping(address => uint32)","numberOfBytes":"32","value":"t_uint32"},"t_mapping(t_address,t_uint96)":{"encoding":"mapping","key":"t_address","label":"mapping(address => uint96)","numberOfBytes":"32","value":"t_uint96"},"t_mapping(t_uint32,t_struct(Checkpoint)293_storage)":{"encoding":"mapping","key":"t_uint32","label":"mapping(uint32 => struct Uni.Checkpoint)","numberOfBytes":"32","value":"t_struct(Checkpoint)293_storage"},"t_struct(Checkpoint)293_storage":{"encoding":"inplace","label":"struct Uni.Checkpoint","members":[{"astId":290,"contract":"contracts/mocks/Uni.sol:Uni","label":"fromBlock","offset":0,"slot":"0","type":"t_uint32"},{"astId":292,"contract":"contracts/mocks/Uni.sol:Uni","label":"votes","offset":4,"slot":"0","type":"t_uint96"}],"numberOfBytes":"32"},"t_uint256":{"encoding":"inplace","label":"uint256","numberOfBytes":"32"},"t_uint32":{"encoding":"inplace","label":"uint32","numberOfBytes":"4"},"t_uint96":{"encoding":"inplace","label":"uint96","numberOfBytes":"12"}}}}}}