{
  "_format": "hh-sol-artifact-1",
  "contractName": "EmergencyManager",
  "sourceName": "contracts/lib/EmergencyManager.sol",
  "abi": [
    {
      "inputs": [],
      "name": "OnlyEmergencyState",
      "type": "error"
    },
    {
      "inputs": [],
      "name": "OnlyNotEmergencyState",
      "type": "error"
    },
    {
      "anonymous": false,
      "inputs": [],
      "name": "EmergencyStateActivated",
      "type": "event"
    },
    {
      "anonymous": false,
      "inputs": [],
      "name": "EmergencyStateDeactivated",
      "type": "event"
    },
    {
      "inputs": [],
      "name": "isEmergencyState",
      "outputs": [
        {
          "internalType": "bool",
          "name": "",
          "type": "bool"
        }
      ],
      "stateMutability": "view",
      "type": "function"
    }
  ],
  "bytecode": "0x6080604052348015600f57600080fd5b5060838061001e6000396000f3fe6080604052348015600f57600080fd5b506004361060285760003560e01c806315064c9614602d575b600080fd5b600a5460399060ff1681565b604051901515815260200160405180910390f3fea2646970667358221220ef2640aaafc209ad18630c989cb8498dc8a37f2e3d25938ac21d6e37cd597a9764736f6c63430008140033",
  "linkReferences": {},
  "deployedLinkReferences": {}
}