{
  "_format": "hh-sol-artifact-1",
  "contractName": "CDKValidiumMock",
  "sourceName": "contracts/mocks/Supernets2Mock.sol",
  "abi": [
    {
      "inputs": [
        {
          "internalType": "contract IPolygonZkEVMGlobalExitRoot",
          "name": "_globalExitRootManager",
          "type": "address"
        },
        {
          "internalType": "contract IERC20Upgradeable",
          "name": "_matic",
          "type": "address"
        },
        {
          "internalType": "contract IVerifierRollup",
          "name": "_rollupVerifier",
          "type": "address"
        },
        {
          "internalType": "contract IPolygonZkEVMBridge",
          "name": "_bridgeAddress",
          "type": "address"
        },
        {
          "internalType": "contract ICDKDataCommittee",
          "name": "_dataComiteeAddress",
          "type": "address"
        },
        {
          "internalType": "uint64",
          "name": "_chainID",
          "type": "uint64"
        },
        {
          "internalType": "uint64",
          "name": "_forkID",
          "type": "uint64"
        }
      ],
      "stateMutability": "nonpayable",
      "type": "constructor"
    },
    {
      "inputs": [],
      "name": "BatchAlreadyVerified",
      "type": "error"
    },
    {
      "inputs": [],
      "name": "BatchNotSequencedOrNotSequenceEnd",
      "type": "error"
    },
    {
      "inputs": [],
      "name": "ExceedMaxVerifyBatches",
      "type": "error"
    },
    {
      "inputs": [],
      "name": "FinalNumBatchBelowLastVerifiedBatch",
      "type": "error"
    },
    {
      "inputs": [],
      "name": "FinalNumBatchDoesNotMatchPendingState",
      "type": "error"
    },
    {
      "inputs": [],
      "name": "FinalPendingStateNumInvalid",
      "type": "error"
    },
    {
      "inputs": [],
      "name": "ForceBatchNotAllowed",
      "type": "error"
    },
    {
      "inputs": [],
      "name": "ForceBatchTimeoutNotExpired",
      "type": "error"
    },
    {
      "inputs": [],
      "name": "ForceBatchesAlreadyActive",
      "type": "error"
    },
    {
      "inputs": [],
      "name": "ForceBatchesOverflow",
      "type": "error"
    },
    {
      "inputs": [],
      "name": "ForcedDataDoesNotMatch",
      "type": "error"
    },
    {
      "inputs": [],
      "name": "GlobalExitRootNotExist",
      "type": "error"
    },
    {
      "inputs": [],
      "name": "HaltTimeoutNotExpired",
      "type": "error"
    },
    {
      "inputs": [],
      "name": "InitNumBatchAboveLastVerifiedBatch",
      "type": "error"
    },
    {
      "inputs": [],
      "name": "InitNumBatchDoesNotMatchPendingState",
      "type": "error"
    },
    {
      "inputs": [],
      "name": "InvalidProof",
      "type": "error"
    },
    {
      "inputs": [],
      "name": "InvalidRangeBatchTimeTarget",
      "type": "error"
    },
    {
      "inputs": [],
      "name": "InvalidRangeForceBatchTimeout",
      "type": "error"
    },
    {
      "inputs": [],
      "name": "InvalidRangeMultiplierBatchFee",
      "type": "error"
    },
    {
      "inputs": [],
      "name": "NewAccInputHashDoesNotExist",
      "type": "error"
    },
    {
      "inputs": [],
      "name": "NewPendingStateTimeoutMustBeLower",
      "type": "error"
    },
    {
      "inputs": [],
      "name": "NewStateRootNotInsidePrime",
      "type": "error"
    },
    {
      "inputs": [],
      "name": "NewTrustedAggregatorTimeoutMustBeLower",
      "type": "error"
    },
    {
      "inputs": [],
      "name": "NotEnoughMaticAmount",
      "type": "error"
    },
    {
      "inputs": [],
      "name": "OldAccInputHashDoesNotExist",
      "type": "error"
    },
    {
      "inputs": [],
      "name": "OldStateRootDoesNotExist",
      "type": "error"
    },
    {
      "inputs": [],
      "name": "OnlyAdmin",
      "type": "error"
    },
    {
      "inputs": [],
      "name": "OnlyEmergencyState",
      "type": "error"
    },
    {
      "inputs": [],
      "name": "OnlyNotEmergencyState",
      "type": "error"
    },
    {
      "inputs": [],
      "name": "OnlyPendingAdmin",
      "type": "error"
    },
    {
      "inputs": [],
      "name": "OnlyTrustedAggregator",
      "type": "error"
    },
    {
      "inputs": [],
      "name": "OnlyTrustedSequencer",
      "type": "error"
    },
    {
      "inputs": [],
      "name": "PendingStateDoesNotExist",
      "type": "error"
    },
    {
      "inputs": [],
      "name": "PendingStateInvalid",
      "type": "error"
    },
    {
      "inputs": [],
      "name": "PendingStateNotConsolidable",
      "type": "error"
    },
    {
      "inputs": [],
      "name": "PendingStateTimeoutExceedHaltAggregationTimeout",
      "type": "error"
    },
    {
      "inputs": [],
      "name": "SequenceZeroBatches",
      "type": "error"
    },
    {
      "inputs": [],
      "name": "SequencedTimestampBelowForcedTimestamp",
      "type": "error"
    },
    {
      "inputs": [],
      "name": "SequencedTimestampInvalid",
      "type": "error"
    },
    {
      "inputs": [],
      "name": "StoredRootMustBeDifferentThanNewRoot",
      "type": "error"
    },
    {
      "inputs": [],
      "name": "TransactionsLengthAboveMax",
      "type": "error"
    },
    {
      "inputs": [],
      "name": "TrustedAggregatorTimeoutExceedHaltAggregationTimeout",
      "type": "error"
    },
    {
      "inputs": [],
      "name": "TrustedAggregatorTimeoutNotExpired",
      "type": "error"
    },
    {
      "anonymous": false,
      "inputs": [
        {
          "indexed": false,
          "internalType": "address",
          "name": "newAdmin",
          "type": "address"
        }
      ],
      "name": "AcceptAdminRole",
      "type": "event"
    },
    {
      "anonymous": false,
      "inputs": [],
      "name": "ActivateForceBatches",
      "type": "event"
    },
    {
      "anonymous": false,
      "inputs": [
        {
          "indexed": true,
          "internalType": "uint64",
          "name": "numBatch",
          "type": "uint64"
        },
        {
          "indexed": false,
          "internalType": "bytes32",
          "name": "stateRoot",
          "type": "bytes32"
        },
        {
          "indexed": true,
          "internalType": "uint64",
          "name": "pendingStateNum",
          "type": "uint64"
        }
      ],
      "name": "ConsolidatePendingState",
      "type": "event"
    },
    {
      "anonymous": false,
      "inputs": [],
      "name": "EmergencyStateActivated",
      "type": "event"
    },
    {
      "anonymous": false,
      "inputs": [],
      "name": "EmergencyStateDeactivated",
      "type": "event"
    },
    {
      "anonymous": false,
      "inputs": [
        {
          "indexed": true,
          "internalType": "uint64",
          "name": "forceBatchNum",
          "type": "uint64"
        },
        {
          "indexed": false,
          "internalType": "bytes32",
          "name": "lastGlobalExitRoot",
          "type": "bytes32"
        },
        {
          "indexed": false,
          "internalType": "address",
          "name": "sequencer",
          "type": "address"
        },
        {
          "indexed": false,
          "internalType": "bytes",
          "name": "transactions",
          "type": "bytes"
        }
      ],
      "name": "ForceBatch",
      "type": "event"
    },
    {
      "anonymous": false,
      "inputs": [
        {
          "indexed": false,
          "internalType": "uint8",
          "name": "version",
          "type": "uint8"
        }
      ],
      "name": "Initialized",
      "type": "event"
    },
    {
      "anonymous": false,
      "inputs": [
        {
          "indexed": true,
          "internalType": "uint64",
          "name": "numBatch",
          "type": "uint64"
        },
        {
          "indexed": false,
          "internalType": "bytes32",
          "name": "stateRoot",
          "type": "bytes32"
        },
        {
          "indexed": true,
          "internalType": "address",
          "name": "aggregator",
          "type": "address"
        }
      ],
      "name": "OverridePendingState",
      "type": "event"
    },
    {
      "anonymous": false,
      "inputs": [
        {
          "indexed": true,
          "internalType": "address",
          "name": "previousOwner",
          "type": "address"
        },
        {
          "indexed": true,
          "internalType": "address",
          "name": "newOwner",
          "type": "address"
        }
      ],
      "name": "OwnershipTransferred",
      "type": "event"
    },
    {
      "anonymous": false,
      "inputs": [
        {
          "indexed": false,
          "internalType": "bytes32",
          "name": "storedStateRoot",
          "type": "bytes32"
        },
        {
          "indexed": false,
          "internalType": "bytes32",
          "name": "provedStateRoot",
          "type": "bytes32"
        }
      ],
      "name": "ProveNonDeterministicPendingState",
      "type": "event"
    },
    {
      "anonymous": false,
      "inputs": [
        {
          "indexed": true,
          "internalType": "uint64",
          "name": "numBatch",
          "type": "uint64"
        }
      ],
      "name": "SequenceBatches",
      "type": "event"
    },
    {
      "anonymous": false,
      "inputs": [
        {
          "indexed": true,
          "internalType": "uint64",
          "name": "numBatch",
          "type": "uint64"
        }
      ],
      "name": "SequenceForceBatches",
      "type": "event"
    },
    {
      "anonymous": false,
      "inputs": [
        {
          "indexed": false,
          "internalType": "uint64",
          "name": "newforceBatchTimeout",
          "type": "uint64"
        }
      ],
      "name": "SetForceBatchTimeout",
      "type": "event"
    },
    {
      "anonymous": false,
      "inputs": [
        {
          "indexed": false,
          "internalType": "uint16",
          "name": "newMultiplierBatchFee",
          "type": "uint16"
        }
      ],
      "name": "SetMultiplierBatchFee",
      "type": "event"
    },
    {
      "anonymous": false,
      "inputs": [
        {
          "indexed": false,
          "internalType": "uint64",
          "name": "newPendingStateTimeout",
          "type": "uint64"
        }
      ],
      "name": "SetPendingStateTimeout",
      "type": "event"
    },
    {
      "anonymous": false,
      "inputs": [
        {
          "indexed": false,
          "internalType": "address",
          "name": "newTrustedAggregator",
          "type": "address"
        }
      ],
      "name": "SetTrustedAggregator",
      "type": "event"
    },
    {
      "anonymous": false,
      "inputs": [
        {
          "indexed": false,
          "internalType": "uint64",
          "name": "newTrustedAggregatorTimeout",
          "type": "uint64"
        }
      ],
      "name": "SetTrustedAggregatorTimeout",
      "type": "event"
    },
    {
      "anonymous": false,
      "inputs": [
        {
          "indexed": false,
          "internalType": "address",
          "name": "newTrustedSequencer",
          "type": "address"
        }
      ],
      "name": "SetTrustedSequencer",
      "type": "event"
    },
    {
      "anonymous": false,
      "inputs": [
        {
          "indexed": false,
          "internalType": "string",
          "name": "newTrustedSequencerURL",
          "type": "string"
        }
      ],
      "name": "SetTrustedSequencerURL",
      "type": "event"
    },
    {
      "anonymous": false,
      "inputs": [
        {
          "indexed": false,
          "internalType": "uint64",
          "name": "newVerifyBatchTimeTarget",
          "type": "uint64"
        }
      ],
      "name": "SetVerifyBatchTimeTarget",
      "type": "event"
    },
    {
      "anonymous": false,
      "inputs": [
        {
          "indexed": false,
          "internalType": "address",
          "name": "newPendingAdmin",
          "type": "address"
        }
      ],
      "name": "TransferAdminRole",
      "type": "event"
    },
    {
      "anonymous": false,
      "inputs": [
        {
          "indexed": false,
          "internalType": "uint64",
          "name": "numBatch",
          "type": "uint64"
        },
        {
          "indexed": false,
          "internalType": "uint64",
          "name": "forkID",
          "type": "uint64"
        },
        {
          "indexed": false,
          "internalType": "string",
          "name": "version",
          "type": "string"
        }
      ],
      "name": "UpdateZkEVMVersion",
      "type": "event"
    },
    {
      "anonymous": false,
      "inputs": [
        {
          "indexed": true,
          "internalType": "uint64",
          "name": "numBatch",
          "type": "uint64"
        },
        {
          "indexed": false,
          "internalType": "bytes32",
          "name": "stateRoot",
          "type": "bytes32"
        },
        {
          "indexed": true,
          "internalType": "address",
          "name": "aggregator",
          "type": "address"
        }
      ],
      "name": "VerifyBatches",
      "type": "event"
    },
    {
      "anonymous": false,
      "inputs": [
        {
          "indexed": true,
          "internalType": "uint64",
          "name": "numBatch",
          "type": "uint64"
        },
        {
          "indexed": false,
          "internalType": "bytes32",
          "name": "stateRoot",
          "type": "bytes32"
        },
        {
          "indexed": true,
          "internalType": "address",
          "name": "aggregator",
          "type": "address"
        }
      ],
      "name": "VerifyBatchesTrustedAggregator",
      "type": "event"
    },
    {
      "inputs": [],
      "name": "acceptAdminRole",
      "outputs": [],
      "stateMutability": "nonpayable",
      "type": "function"
    },
    {
      "inputs": [
        {
          "internalType": "uint64",
          "name": "sequencedBatchNum",
          "type": "uint64"
        }
      ],
      "name": "activateEmergencyState",
      "outputs": [],
      "stateMutability": "nonpayable",
      "type": "function"
    },
    {
      "inputs": [],
      "name": "activateForceBatches",
      "outputs": [],
      "stateMutability": "nonpayable",
      "type": "function"
    },
    {
      "inputs": [],
      "name": "admin",
      "outputs": [
        {
          "internalType": "address",
          "name": "",
          "type": "address"
        }
      ],
      "stateMutability": "view",
      "type": "function"
    },
    {
      "inputs": [],
      "name": "batchFee",
      "outputs": [
        {
          "internalType": "uint256",
          "name": "",
          "type": "uint256"
        }
      ],
      "stateMutability": "view",
      "type": "function"
    },
    {
      "inputs": [
        {
          "internalType": "uint64",
          "name": "",
          "type": "uint64"
        }
      ],
      "name": "batchNumToStateRoot",
      "outputs": [
        {
          "internalType": "bytes32",
          "name": "",
          "type": "bytes32"
        }
      ],
      "stateMutability": "view",
      "type": "function"
    },
    {
      "inputs": [],
      "name": "bridgeAddress",
      "outputs": [
        {
          "internalType": "contract IPolygonZkEVMBridge",
          "name": "",
          "type": "address"
        }
      ],
      "stateMutability": "view",
      "type": "function"
    },
    {
      "inputs": [
        {
          "internalType": "bytes32",
          "name": "currentAccInputHash",
          "type": "bytes32"
        },
        {
          "internalType": "bytes",
          "name": "transactions",
          "type": "bytes"
        },
        {
          "internalType": "bytes32",
          "name": "globalExitRoot",
          "type": "bytes32"
        },
        {
          "internalType": "uint64",
          "name": "timestamp",
          "type": "uint64"
        },
        {
          "internalType": "address",
          "name": "sequencerAddress",
          "type": "address"
        }
      ],
      "name": "calculateAccInputHash",
      "outputs": [
        {
          "internalType": "bytes32",
          "name": "",
          "type": "bytes32"
        }
      ],
      "stateMutability": "pure",
      "type": "function"
    },
    {
      "inputs": [],
      "name": "calculateRewardPerBatch",
      "outputs": [
        {
          "internalType": "uint256",
          "name": "",
          "type": "uint256"
        }
      ],
      "stateMutability": "view",
      "type": "function"
    },
    {
      "inputs": [],
      "name": "chainID",
      "outputs": [
        {
          "internalType": "uint64",
          "name": "",
          "type": "uint64"
        }
      ],
      "stateMutability": "view",
      "type": "function"
    },
    {
      "inputs": [
        {
          "internalType": "uint256",
          "name": "newStateRoot",
          "type": "uint256"
        }
      ],
      "name": "checkStateRootInsidePrime",
      "outputs": [
        {
          "internalType": "bool",
          "name": "",
          "type": "bool"
        }
      ],
      "stateMutability": "pure",
      "type": "function"
    },
    {
      "inputs": [
        {
          "internalType": "uint64",
          "name": "pendingStateNum",
          "type": "uint64"
        }
      ],
      "name": "consolidatePendingState",
      "outputs": [],
      "stateMutability": "nonpayable",
      "type": "function"
    },
    {
      "inputs": [],
      "name": "dataCommitteeAddress",
      "outputs": [
        {
          "internalType": "contract ICDKDataCommittee",
          "name": "",
          "type": "address"
        }
      ],
      "stateMutability": "view",
      "type": "function"
    },
    {
      "inputs": [],
      "name": "deactivateEmergencyState",
      "outputs": [],
      "stateMutability": "nonpayable",
      "type": "function"
    },
    {
      "inputs": [
        {
          "internalType": "bytes",
          "name": "transactions",
          "type": "bytes"
        },
        {
          "internalType": "uint256",
          "name": "maticAmount",
          "type": "uint256"
        }
      ],
      "name": "forceBatch",
      "outputs": [],
      "stateMutability": "nonpayable",
      "type": "function"
    },
    {
      "inputs": [],
      "name": "forceBatchTimeout",
      "outputs": [
        {
          "internalType": "uint64",
          "name": "",
          "type": "uint64"
        }
      ],
      "stateMutability": "view",
      "type": "function"
    },
    {
      "inputs": [
        {
          "internalType": "uint64",
          "name": "",
          "type": "uint64"
        }
      ],
      "name": "forcedBatches",
      "outputs": [
        {
          "internalType": "bytes32",
          "name": "",
          "type": "bytes32"
        }
      ],
      "stateMutability": "view",
      "type": "function"
    },
    {
      "inputs": [],
      "name": "forkID",
      "outputs": [
        {
          "internalType": "uint64",
          "name": "",
          "type": "uint64"
        }
      ],
      "stateMutability": "view",
      "type": "function"
    },
    {
      "inputs": [],
      "name": "getForcedBatchFee",
      "outputs": [
        {
          "internalType": "uint256",
          "name": "",
          "type": "uint256"
        }
      ],
      "stateMutability": "view",
      "type": "function"
    },
    {
      "inputs": [
        {
          "internalType": "uint64",
          "name": "initNumBatch",
          "type": "uint64"
        },
        {
          "internalType": "uint64",
          "name": "finalNewBatch",
          "type": "uint64"
        },
        {
          "internalType": "bytes32",
          "name": "newLocalExitRoot",
          "type": "bytes32"
        },
        {
          "internalType": "bytes32",
          "name": "oldStateRoot",
          "type": "bytes32"
        },
        {
          "internalType": "bytes32",
          "name": "newStateRoot",
          "type": "bytes32"
        }
      ],
      "name": "getInputSnarkBytes",
      "outputs": [
        {
          "internalType": "bytes",
          "name": "",
          "type": "bytes"
        }
      ],
      "stateMutability": "view",
      "type": "function"
    },
    {
      "inputs": [],
      "name": "getLastVerifiedBatch",
      "outputs": [
        {
          "internalType": "uint64",
          "name": "",
          "type": "uint64"
        }
      ],
      "stateMutability": "view",
      "type": "function"
    },
    {
      "inputs": [
        {
          "internalType": "uint64",
          "name": "pendingStateNum",
          "type": "uint64"
        },
        {
          "internalType": "uint64",
          "name": "initNumBatch",
          "type": "uint64"
        },
        {
          "internalType": "uint64",
          "name": "finalNewBatch",
          "type": "uint64"
        },
        {
          "internalType": "bytes32",
          "name": "newLocalExitRoot",
          "type": "bytes32"
        },
        {
          "internalType": "bytes32",
          "name": "newStateRoot",
          "type": "bytes32"
        }
      ],
      "name": "getNextSnarkInput",
      "outputs": [
        {
          "internalType": "uint256",
          "name": "",
          "type": "uint256"
        }
      ],
      "stateMutability": "view",
      "type": "function"
    },
    {
      "inputs": [],
      "name": "globalExitRootManager",
      "outputs": [
        {
          "internalType": "contract IPolygonZkEVMGlobalExitRoot",
          "name": "",
          "type": "address"
        }
      ],
      "stateMutability": "view",
      "type": "function"
    },
    {
      "inputs": [
        {
          "components": [
            {
              "internalType": "address",
              "name": "admin",
              "type": "address"
            },
            {
              "internalType": "address",
              "name": "trustedSequencer",
              "type": "address"
            },
            {
              "internalType": "uint64",
              "name": "pendingStateTimeout",
              "type": "uint64"
            },
            {
              "internalType": "address",
              "name": "trustedAggregator",
              "type": "address"
            },
            {
              "internalType": "uint64",
              "name": "trustedAggregatorTimeout",
              "type": "uint64"
            }
          ],
          "internalType": "struct CDKValidium.InitializePackedParameters",
          "name": "initializePackedParameters",
          "type": "tuple"
        },
        {
          "internalType": "bytes32",
          "name": "genesisRoot",
          "type": "bytes32"
        },
        {
          "internalType": "string",
          "name": "_trustedSequencerURL",
          "type": "string"
        },
        {
          "internalType": "string",
          "name": "_networkName",
          "type": "string"
        },
        {
          "internalType": "string",
          "name": "_version",
          "type": "string"
        }
      ],
      "name": "initialize",
      "outputs": [],
      "stateMutability": "nonpayable",
      "type": "function"
    },
    {
      "inputs": [],
      "name": "isEmergencyState",
      "outputs": [
        {
          "internalType": "bool",
          "name": "",
          "type": "bool"
        }
      ],
      "stateMutability": "view",
      "type": "function"
    },
    {
      "inputs": [],
      "name": "isForcedBatchDisallowed",
      "outputs": [
        {
          "internalType": "bool",
          "name": "",
          "type": "bool"
        }
      ],
      "stateMutability": "view",
      "type": "function"
    },
    {
      "inputs": [
        {
          "internalType": "uint64",
          "name": "pendingStateNum",
          "type": "uint64"
        }
      ],
      "name": "isPendingStateConsolidable",
      "outputs": [
        {
          "internalType": "bool",
          "name": "",
          "type": "bool"
        }
      ],
      "stateMutability": "view",
      "type": "function"
    },
    {
      "inputs": [],
      "name": "lastBatchSequenced",
      "outputs": [
        {
          "internalType": "uint64",
          "name": "",
          "type": "uint64"
        }
      ],
      "stateMutability": "view",
      "type": "function"
    },
    {
      "inputs": [],
      "name": "lastForceBatch",
      "outputs": [
        {
          "internalType": "uint64",
          "name": "",
          "type": "uint64"
        }
      ],
      "stateMutability": "view",
      "type": "function"
    },
    {
      "inputs": [],
      "name": "lastForceBatchSequenced",
      "outputs": [
        {
          "internalType": "uint64",
          "name": "",
          "type": "uint64"
        }
      ],
      "stateMutability": "view",
      "type": "function"
    },
    {
      "inputs": [],
      "name": "lastPendingState",
      "outputs": [
        {
          "internalType": "uint64",
          "name": "",
          "type": "uint64"
        }
      ],
      "stateMutability": "view",
      "type": "function"
    },
    {
      "inputs": [],
      "name": "lastPendingStateConsolidated",
      "outputs": [
        {
          "internalType": "uint64",
          "name": "",
          "type": "uint64"
        }
      ],
      "stateMutability": "view",
      "type": "function"
    },
    {
      "inputs": [],
      "name": "lastTimestamp",
      "outputs": [
        {
          "internalType": "uint64",
          "name": "",
          "type": "uint64"
        }
      ],
      "stateMutability": "view",
      "type": "function"
    },
    {
      "inputs": [],
      "name": "lastVerifiedBatch",
      "outputs": [
        {
          "internalType": "uint64",
          "name": "",
          "type": "uint64"
        }
      ],
      "stateMutability": "view",
      "type": "function"
    },
    {
      "inputs": [],
      "name": "matic",
      "outputs": [
        {
          "internalType": "contract IERC20Upgradeable",
          "name": "",
          "type": "address"
        }
      ],
      "stateMutability": "view",
      "type": "function"
    },
    {
      "inputs": [],
      "name": "multiplierBatchFee",
      "outputs": [
        {
          "internalType": "uint16",
          "name": "",
          "type": "uint16"
        }
      ],
      "stateMutability": "view",
      "type": "function"
    },
    {
      "inputs": [],
      "name": "networkName",
      "outputs": [
        {
          "internalType": "string",
          "name": "",
          "type": "string"
        }
      ],
      "stateMutability": "view",
      "type": "function"
    },
    {
      "inputs": [
        {
          "internalType": "uint64",
          "name": "initPendingStateNum",
          "type": "uint64"
        },
        {
          "internalType": "uint64",
          "name": "finalPendingStateNum",
          "type": "uint64"
        },
        {
          "internalType": "uint64",
          "name": "initNumBatch",
          "type": "uint64"
        },
        {
          "internalType": "uint64",
          "name": "finalNewBatch",
          "type": "uint64"
        },
        {
          "internalType": "bytes32",
          "name": "newLocalExitRoot",
          "type": "bytes32"
        },
        {
          "internalType": "bytes32",
          "name": "newStateRoot",
          "type": "bytes32"
        },
        {
          "internalType": "bytes32[24]",
          "name": "proof",
          "type": "bytes32[24]"
        }
      ],
      "name": "overridePendingState",
      "outputs": [],
      "stateMutability": "nonpayable",
      "type": "function"
    },
    {
      "inputs": [],
      "name": "owner",
      "outputs": [
        {
          "internalType": "address",
          "name": "",
          "type": "address"
        }
      ],
      "stateMutability": "view",
      "type": "function"
    },
    {
      "inputs": [],
      "name": "pendingAdmin",
      "outputs": [
        {
          "internalType": "address",
          "name": "",
          "type": "address"
        }
      ],
      "stateMutability": "view",
      "type": "function"
    },
    {
      "inputs": [],
      "name": "pendingStateTimeout",
      "outputs": [
        {
          "internalType": "uint64",
          "name": "",
          "type": "uint64"
        }
      ],
      "stateMutability": "view",
      "type": "function"
    },
    {
      "inputs": [
        {
          "internalType": "uint256",
          "name": "",
          "type": "uint256"
        }
      ],
      "name": "pendingStateTransitions",
      "outputs": [
        {
          "internalType": "uint64",
          "name": "timestamp",
          "type": "uint64"
        },
        {
          "internalType": "uint64",
          "name": "lastVerifiedBatch",
          "type": "uint64"
        },
        {
          "internalType": "bytes32",
          "name": "exitRoot",
          "type": "bytes32"
        },
        {
          "internalType": "bytes32",
          "name": "stateRoot",
          "type": "bytes32"
        }
      ],
      "stateMutability": "view",
      "type": "function"
    },
    {
      "inputs": [
        {
          "internalType": "uint64",
          "name": "initPendingStateNum",
          "type": "uint64"
        },
        {
          "internalType": "uint64",
          "name": "finalPendingStateNum",
          "type": "uint64"
        },
        {
          "internalType": "uint64",
          "name": "initNumBatch",
          "type": "uint64"
        },
        {
          "internalType": "uint64",
          "name": "finalNewBatch",
          "type": "uint64"
        },
        {
          "internalType": "bytes32",
          "name": "newLocalExitRoot",
          "type": "bytes32"
        },
        {
          "internalType": "bytes32",
          "name": "newStateRoot",
          "type": "bytes32"
        },
        {
          "internalType": "bytes32[24]",
          "name": "proof",
          "type": "bytes32[24]"
        }
      ],
      "name": "proveNonDeterministicPendingState",
      "outputs": [],
      "stateMutability": "nonpayable",
      "type": "function"
    },
    {
      "inputs": [],
      "name": "renounceOwnership",
      "outputs": [],
      "stateMutability": "nonpayable",
      "type": "function"
    },
    {
      "inputs": [],
      "name": "rollupVerifier",
      "outputs": [
        {
          "internalType": "contract IVerifierRollup",
          "name": "",
          "type": "address"
        }
      ],
      "stateMutability": "view",
      "type": "function"
    },
    {
      "inputs": [
        {
          "components": [
            {
              "internalType": "bytes32",
              "name": "transactionsHash",
              "type": "bytes32"
            },
            {
              "internalType": "bytes32",
              "name": "globalExitRoot",
              "type": "bytes32"
            },
            {
              "internalType": "uint64",
              "name": "timestamp",
              "type": "uint64"
            },
            {
              "internalType": "uint64",
              "name": "minForcedTimestamp",
              "type": "uint64"
            }
          ],
          "internalType": "struct CDKValidium.BatchData[]",
          "name": "batches",
          "type": "tuple[]"
        },
        {
          "internalType": "address",
          "name": "l2Coinbase",
          "type": "address"
        },
        {
          "internalType": "bytes",
          "name": "signaturesAndAddrs",
          "type": "bytes"
        }
      ],
      "name": "sequenceBatches",
      "outputs": [],
      "stateMutability": "nonpayable",
      "type": "function"
    },
    {
      "inputs": [
        {
          "components": [
            {
              "internalType": "bytes",
              "name": "transactions",
              "type": "bytes"
            },
            {
              "internalType": "bytes32",
              "name": "globalExitRoot",
              "type": "bytes32"
            },
            {
              "internalType": "uint64",
              "name": "minForcedTimestamp",
              "type": "uint64"
            }
          ],
          "internalType": "struct CDKValidium.ForcedBatchData[]",
          "name": "batches",
          "type": "tuple[]"
        }
      ],
      "name": "sequenceForceBatches",
      "outputs": [],
      "stateMutability": "nonpayable",
      "type": "function"
    },
    {
      "inputs": [
        {
          "internalType": "uint64",
          "name": "",
          "type": "uint64"
        }
      ],
      "name": "sequencedBatches",
      "outputs": [
        {
          "internalType": "bytes32",
          "name": "accInputHash",
          "type": "bytes32"
        },
        {
          "internalType": "uint64",
          "name": "sequencedTimestamp",
          "type": "uint64"
        },
        {
          "internalType": "uint64",
          "name": "previousLastBatchSequenced",
          "type": "uint64"
        }
      ],
      "stateMutability": "view",
      "type": "function"
    },
    {
      "inputs": [
        {
          "internalType": "uint64",
          "name": "newforceBatchTimeout",
          "type": "uint64"
        }
      ],
      "name": "setForceBatchTimeout",
      "outputs": [],
      "stateMutability": "nonpayable",
      "type": "function"
    },
    {
      "inputs": [
        {
          "internalType": "uint16",
          "name": "newMultiplierBatchFee",
          "type": "uint16"
        }
      ],
      "name": "setMultiplierBatchFee",
      "outputs": [],
      "stateMutability": "nonpayable",
      "type": "function"
    },
    {
      "inputs": [
        {
          "internalType": "string",
          "name": "_networkName",
          "type": "string"
        }
      ],
      "name": "setNetworkName",
      "outputs": [],
      "stateMutability": "nonpayable",
      "type": "function"
    },
    {
      "inputs": [
        {
          "internalType": "uint64",
          "name": "newPendingStateTimeout",
          "type": "uint64"
        }
      ],
      "name": "setPendingStateTimeout",
      "outputs": [],
      "stateMutability": "nonpayable",
      "type": "function"
    },
    {
      "inputs": [
        {
          "internalType": "uint64",
          "name": "_numBatch",
          "type": "uint64"
        }
      ],
      "name": "setSequencedBatch",
      "outputs": [],
      "stateMutability": "nonpayable",
      "type": "function"
    },
    {
      "inputs": [
        {
          "internalType": "uint64",
          "name": "batchNum",
          "type": "uint64"
        },
        {
          "internalType": "bytes32",
          "name": "accInputData",
          "type": "bytes32"
        },
        {
          "internalType": "uint64",
          "name": "timestamp",
          "type": "uint64"
        },
        {
          "internalType": "uint64",
          "name": "lastPendingStateConsolidated",
          "type": "uint64"
        }
      ],
      "name": "setSequencedBatches",
      "outputs": [],
      "stateMutability": "nonpayable",
      "type": "function"
    },
    {
      "inputs": [
        {
          "internalType": "bytes32",
          "name": "newStateRoot",
          "type": "bytes32"
        },
        {
          "internalType": "uint64",
          "name": "batchNum",
          "type": "uint64"
        }
      ],
      "name": "setStateRoot",
      "outputs": [],
      "stateMutability": "nonpayable",
      "type": "function"
    },
    {
      "inputs": [
        {
          "internalType": "address",
          "name": "newTrustedAggregator",
          "type": "address"
        }
      ],
      "name": "setTrustedAggregator",
      "outputs": [],
      "stateMutability": "nonpayable",
      "type": "function"
    },
    {
      "inputs": [
        {
          "internalType": "uint64",
          "name": "newTrustedAggregatorTimeout",
          "type": "uint64"
        }
      ],
      "name": "setTrustedAggregatorTimeout",
      "outputs": [],
      "stateMutability": "nonpayable",
      "type": "function"
    },
    {
      "inputs": [
        {
          "internalType": "address",
          "name": "newTrustedSequencer",
          "type": "address"
        }
      ],
      "name": "setTrustedSequencer",
      "outputs": [],
      "stateMutability": "nonpayable",
      "type": "function"
    },
    {
      "inputs": [
        {
          "internalType": "string",
          "name": "newTrustedSequencerURL",
          "type": "string"
        }
      ],
      "name": "setTrustedSequencerURL",
      "outputs": [],
      "stateMutability": "nonpayable",
      "type": "function"
    },
    {
      "inputs": [
        {
          "internalType": "uint64",
          "name": "_numBatch",
          "type": "uint64"
        }
      ],
      "name": "setVerifiedBatch",
      "outputs": [],
      "stateMutability": "nonpayable",
      "type": "function"
    },
    {
      "inputs": [
        {
          "internalType": "uint64",
          "name": "newVerifyBatchTimeTarget",
          "type": "uint64"
        }
      ],
      "name": "setVerifyBatchTimeTarget",
      "outputs": [],
      "stateMutability": "nonpayable",
      "type": "function"
    },
    {
      "inputs": [
        {
          "internalType": "address",
          "name": "newPendingAdmin",
          "type": "address"
        }
      ],
      "name": "transferAdminRole",
      "outputs": [],
      "stateMutability": "nonpayable",
      "type": "function"
    },
    {
      "inputs": [
        {
          "internalType": "address",
          "name": "newOwner",
          "type": "address"
        }
      ],
      "name": "transferOwnership",
      "outputs": [],
      "stateMutability": "nonpayable",
      "type": "function"
    },
    {
      "inputs": [],
      "name": "trustedAggregator",
      "outputs": [
        {
          "internalType": "address",
          "name": "",
          "type": "address"
        }
      ],
      "stateMutability": "view",
      "type": "function"
    },
    {
      "inputs": [],
      "name": "trustedAggregatorTimeout",
      "outputs": [
        {
          "internalType": "uint64",
          "name": "",
          "type": "uint64"
        }
      ],
      "stateMutability": "view",
      "type": "function"
    },
    {
      "inputs": [],
      "name": "trustedSequencer",
      "outputs": [
        {
          "internalType": "address",
          "name": "",
          "type": "address"
        }
      ],
      "stateMutability": "view",
      "type": "function"
    },
    {
      "inputs": [],
      "name": "trustedSequencerURL",
      "outputs": [
        {
          "internalType": "string",
          "name": "",
          "type": "string"
        }
      ],
      "stateMutability": "view",
      "type": "function"
    },
    {
      "inputs": [
        {
          "internalType": "uint64",
          "name": "pendingStateNum",
          "type": "uint64"
        },
        {
          "internalType": "uint64",
          "name": "initNumBatch",
          "type": "uint64"
        },
        {
          "internalType": "uint64",
          "name": "finalNewBatch",
          "type": "uint64"
        },
        {
          "internalType": "bytes32",
          "name": "newLocalExitRoot",
          "type": "bytes32"
        },
        {
          "internalType": "bytes32",
          "name": "newStateRoot",
          "type": "bytes32"
        },
        {
          "internalType": "uint256[2]",
          "name": "proofA",
          "type": "uint256[2]"
        },
        {
          "internalType": "uint256[2][2]",
          "name": "proofB",
          "type": "uint256[2][2]"
        },
        {
          "internalType": "uint256[2]",
          "name": "proofC",
          "type": "uint256[2]"
        }
      ],
      "name": "trustedVerifyBatchesMock",
      "outputs": [],
      "stateMutability": "nonpayable",
      "type": "function"
    },
    {
      "inputs": [
        {
          "internalType": "uint64",
          "name": "newLastVerifiedBatch",
          "type": "uint64"
        }
      ],
      "name": "updateBatchFee",
      "outputs": [],
      "stateMutability": "nonpayable",
      "type": "function"
    },
    {
      "inputs": [],
      "name": "verifyBatchTimeTarget",
      "outputs": [
        {
          "internalType": "uint64",
          "name": "",
          "type": "uint64"
        }
      ],
      "stateMutability": "view",
      "type": "function"
    },
    {
      "inputs": [
        {
          "internalType": "uint64",
          "name": "pendingStateNum",
          "type": "uint64"
        },
        {
          "internalType": "uint64",
          "name": "initNumBatch",
          "type": "uint64"
        },
        {
          "internalType": "uint64",
          "name": "finalNewBatch",
          "type": "uint64"
        },
        {
          "internalType": "bytes32",
          "name": "newLocalExitRoot",
          "type": "bytes32"
        },
        {
          "internalType": "bytes32",
          "name": "newStateRoot",
          "type": "bytes32"
        },
        {
          "internalType": "bytes32[24]",
          "name": "proof",
          "type": "bytes32[24]"
        }
      ],
      "name": "verifyBatches",
      "outputs": [],
      "stateMutability": "nonpayable",
      "type": "function"
    },
    {
      "inputs": [
        {
          "internalType": "uint64",
          "name": "pendingStateNum",
          "type": "uint64"
        },
        {
          "internalType": "uint64",
          "name": "initNumBatch",
          "type": "uint64"
        },
        {
          "internalType": "uint64",
          "name": "finalNewBatch",
          "type": "uint64"
        },
        {
          "internalType": "bytes32",
          "name": "newLocalExitRoot",
          "type": "bytes32"
        },
        {
          "internalType": "bytes32",
          "name": "newStateRoot",
          "type": "bytes32"
        },
        {
          "internalType": "bytes32[24]",
          "name": "proof",
          "type": "bytes32[24]"
        }
      ],
      "name": "verifyBatchesTrustedAggregator",
      "outputs": [],
      "stateMutability": "nonpayable",
      "type": "function"
    }
  ],
  "bytecode": "0x6101606040523480156200001257600080fd5b5060405162007164380380620071648339810160408190526200003591620000ac565b6001600160a01b0396871660c05294861660805292851660a05290841660e052909216610100526001600160401b039182166101205216610140526200014f565b6001600160a01b03811681146200008c57600080fd5b50565b80516001600160401b0381168114620000a757600080fd5b919050565b600080600080600080600060e0888a031215620000c857600080fd5b8751620000d58162000076565b6020890151909750620000e88162000076565b6040890151909650620000fb8162000076565b60608901519095506200010e8162000076565b6080890151909450620001218162000076565b92506200013160a089016200008f565b91506200014160c089016200008f565b905092959891949750929550565b60805160a05160c05160e051610100516101205161014051616f2e620002366000396000818161087201528181611aca0152613f7d015260008181610a050152611aa00152600081816106ea015261264c0152600081816109cb0152818161289c015281816146160152615b41015260008181610b970152818161177a01528181611c3d01528181611e0e0152818161242701528181612ebb0152818161488e015261581f015260008181610c5701528181614fef0152615447015260008181610ad40152818161286a015281816133ef0152818161486201526150dd0152616f2e6000f3fe608060405234801561001057600080fd5b50600436106104a85760003560e01c80638c3d73011161026b578063c754c7ed11610150578063e7a7ed02116100c8578063f14916d611610097578063f851a4401161007c578063f851a44014610cdf578063f8b823e414610cff578063fe16564f14610d0857600080fd5b8063f14916d614610cb9578063f2fde38b14610ccc57600080fd5b8063e7a7ed0214610c22578063e8bf92ed14610c52578063eaeb077b14610c79578063ed6b010414610c8c57600080fd5b8063d2e129f91161011f578063d939b31511610104578063d939b31514610bdf578063dbc1697614610c07578063e0d1744114610c0f57600080fd5b8063d2e129f914610bb9578063d8d1091b14610bcc57600080fd5b8063c754c7ed14610b24578063c89e42df14610b50578063cfa8ed4714610b63578063d02103ca14610b9257600080fd5b8063ada8f919116101e3578063b4f77ea9116101b2578063ba58ae3911610197578063ba58ae3914610af6578063c0cad30214610b09578063c0ed84e014610b1c57600080fd5b8063b4f77ea914610abc578063b6b0b09714610acf57600080fd5b8063ada8f919146109ed578063adc879e914610a00578063afd23cbe14610a27578063b4d63f5814610a5557600080fd5b80639aa972a31161023a5780639c9f3dfe1161021f5780639c9f3dfe146109a0578063a066215c146109b3578063a3c573eb146109c657600080fd5b80639aa972a31461097a5780639b7967601461098d57600080fd5b80638c3d7301146109395780638da5cb5b1461094157806396dc3d391461095f57806399f5634e1461097257600080fd5b80634a1a89a711610391578063621dd411116103095780637215541a116102d8578063831c7ead116102bd578063831c7ead1461086d578063837a473814610894578063841b24d71461090957600080fd5b80637215541a146108465780637fcb36531461085957600080fd5b8063621dd411146107f85780636b8616ce1461080b5780636ff512cc1461082b578063715018a61461083e57600080fd5b80635392c5e011610360578063574f649e11610345578063574f649e146107475780635ec91958146107e857806360469169146107f057600080fd5b80635392c5e01461071f578063542028d51461073f57600080fd5b80634a1a89a7146106b25780634a910e6a146106d25780634df61d24146106e55780634e4877061461070c57600080fd5b80632987898311610424578063394218e9116103f3578063438a5399116103d8578063438a5399146106635780634560526714610676578063458c04771461069e57600080fd5b8063394218e914610630578063423fa8561461064357600080fd5b806329878983146105cb5780632b0006fa146105f75780632c1f816a1461060a578063383b3be81461061d57600080fd5b806315064c961161047b57806319d8ac611161046057806319d8ac611461055f578063220d789914610573578063267822471461058657600080fd5b806315064c961461052f5780631816b7e51461054c57600080fd5b80630a0d9fbe146104ad5780630eaa86ea146104e4578063107bf28c1461050557806310a01a721461051a575b600080fd5b606f546104c690610100900467ffffffffffffffff1681565b60405167ffffffffffffffff90911681526020015b60405180910390f35b6104f76104f2366004616117565b610d1b565b6040519081526020016104db565b61050d6111f3565b6040516104db91906161da565b61052d61052836600461620b565b611281565b005b606f5461053c9060ff1681565b60405190151581526020016104db565b61052d61055a36600461629e565b611839565b6073546104c69067ffffffffffffffff1681565b61050d6105813660046162c2565b611951565b607b546105a69073ffffffffffffffffffffffffffffffffffffffff1681565b60405173ffffffffffffffffffffffffffffffffffffffff90911681526020016104db565b6074546105a69068010000000000000000900473ffffffffffffffffffffffffffffffffffffffff1681565b61052d610605366004616321565b611b28565b61052d610618366004616389565b611cf8565b61053c61062b366004616403565b611f06565b61052d61063e366004616403565b611f5c565b6073546104c69068010000000000000000900467ffffffffffffffff1681565b61052d61067136600461648b565b6120e0565b6073546104c690700100000000000000000000000000000000900467ffffffffffffffff1681565b6079546104c69067ffffffffffffffff1681565b6079546104c69068010000000000000000900467ffffffffffffffff1681565b61052d6106e0366004616403565b61295d565b6105a67f000000000000000000000000000000000000000000000000000000000000000081565b61052d61071a366004616403565b612a10565b6104f761072d366004616403565b60756020526000908152604090205481565b61050d612b94565b6104f7610755366004616617565b835160209485012060408051808701979097528681019190915260608087019490945260c09290921b7fffffffffffffffff00000000000000000000000000000000000000000000000016608086015290911b7fffffffffffffffffffffffffffffffffffffffff0000000000000000000000001660888401528051808403607c018152609c9093019052815191012090565b61052d612ba1565b6104f7612ca1565b61052d610806366004616321565b612cb7565b6104f7610819366004616403565b60716020526000908152604090205481565b61052d610839366004616689565b61303f565b61052d613114565b61052d610854366004616403565b613128565b6074546104c69067ffffffffffffffff1681565b6104c67f000000000000000000000000000000000000000000000000000000000000000081565b6108dd6108a23660046166a4565b60786020526000908152604090208054600182015460029092015467ffffffffffffffff808316936801000000000000000090930416919084565b6040805167ffffffffffffffff95861681529490931660208501529183015260608201526080016104db565b6079546104c6907801000000000000000000000000000000000000000000000000900467ffffffffffffffff1681565b61052d613298565b60335473ffffffffffffffffffffffffffffffffffffffff166105a6565b61052d61096d366004616403565b613364565b6104f76133a7565b61052d610988366004616389565b613500565b61052d61099b366004616403565b6135b1565b61052d6109ae366004616403565b613600565b61052d6109c1366004616403565b61377c565b6105a67f000000000000000000000000000000000000000000000000000000000000000081565b61052d6109fb366004616689565b613882565b6104c67f000000000000000000000000000000000000000000000000000000000000000081565b606f54610a42906901000000000000000000900461ffff1681565b60405161ffff90911681526020016104db565b610a96610a63366004616403565b6072602052600090815260409020805460019091015467ffffffffffffffff808216916801000000000000000090041683565b6040805193845267ffffffffffffffff92831660208501529116908201526060016104db565b61052d610aca366004616403565b613946565b6105a67f000000000000000000000000000000000000000000000000000000000000000081565b61053c610b043660046166a4565b613957565b61052d610b173660046166bd565b6139e1565b6104c66139f9565b607b546104c69074010000000000000000000000000000000000000000900467ffffffffffffffff1681565b61052d610b5e3660046166bd565b613a4e565b606f546105a6906b010000000000000000000000900473ffffffffffffffffffffffffffffffffffffffff1681565b6105a67f000000000000000000000000000000000000000000000000000000000000000081565b61052d610bc73660046166f2565b613adb565b61052d610bda3660046167a5565b614021565b6079546104c690700100000000000000000000000000000000900467ffffffffffffffff1681565b61052d6145c3565b61052d610c1d36600461681a565b61469c565b6073546104c6907801000000000000000000000000000000000000000000000000900467ffffffffffffffff1681565b6105a67f000000000000000000000000000000000000000000000000000000000000000081565b61052d610c87366004616867565b61472c565b607b5461053c907c0100000000000000000000000000000000000000000000000000000000900460ff1681565b61052d610cc7366004616689565b614b22565b61052d610cda366004616689565b614bf4565b607a546105a69073ffffffffffffffffffffffffffffffffffffffff1681565b6104f760705481565b61052d610d163660046168b3565b614ca8565b6000806000610d286139f9565b905067ffffffffffffffff881615610ef55760795467ffffffffffffffff9081169089161115610e05576040517f08c379a000000000000000000000000000000000000000000000000000000000815260206004820152605760248201527f43444b56616c696469756d3a3a766572696679426174636865733a2070656e6460448201527f696e6753746174654e756d206d757374206265206c657373206f72206571756160648201527f6c207468616e206c61737450656e64696e675374617465000000000000000000608482015260a4015b60405180910390fd5b67ffffffffffffffff8089166000908152607860205260409020600281015481549094509091898116680100000000000000009092041614610eef576040517f08c379a000000000000000000000000000000000000000000000000000000000815260206004820152604b60248201527f43444b56616c696469756d3a3a766572696679426174636865733a20696e697460448201527f4e756d4261746368206d757374206d61746368207468652070656e64696e672060648201527f7374617465206261746368000000000000000000000000000000000000000000608482015260a401610dfc565b5061108e565b67ffffffffffffffff8716600090815260756020526040902054915081610fc4576040517f08c379a000000000000000000000000000000000000000000000000000000000815260206004820152604260248201527f43444b56616c696469756d3a3a766572696679426174636865733a20696e697460448201527f4e756d426174636820737461746520726f6f7420646f6573206e6f742065786960648201527f7374000000000000000000000000000000000000000000000000000000000000608482015260a401610dfc565b8067ffffffffffffffff168767ffffffffffffffff16111561108e576040517f08c379a000000000000000000000000000000000000000000000000000000000815260206004820152605c60248201527f43444b56616c696469756d3a3a766572696679426174636865733a20696e697460448201527f4e756d4261746368206d757374206265206c657373206f7220657175616c207460648201527f68616e2063757272656e744c6173745665726966696564426174636800000000608482015260a401610dfc565b8067ffffffffffffffff168667ffffffffffffffff1611611157576040517f08c379a000000000000000000000000000000000000000000000000000000000815260206004820152605660248201527f43444b56616c696469756d3a3a766572696679426174636865733a2066696e6160448201527f6c4e65774261746368206d75737420626520626967676572207468616e20637560648201527f7272656e744c6173745665726966696564426174636800000000000000000000608482015260a401610dfc565b60006111668888888689611951565b905060007f30644e72e131a029b85045b68181585d2833e84879b9709143e1f593f000000160028360405161119b91906168df565b602060405180830381855afa1580156111b8573d6000803e3d6000fd5b5050506040513d601f19601f820116820180604052508101906111db91906168fb565b6111e59190616943565b9a9950505050505050505050565b6077805461120090616957565b80601f016020809104026020016040519081016040528092919081815260200182805461122c90616957565b80156112795780601f1061124e57610100808354040283529160200191611279565b820191906000526020600020905b81548152906001019060200180831161125c57829003601f168201915b505050505081565b611289614ccb565b6000806112946139f9565b905067ffffffffffffffff8a161561145c5760795467ffffffffffffffff908116908b16111561136c576040517f08c379a000000000000000000000000000000000000000000000000000000000815260206004820152605760248201527f43444b56616c696469756d3a3a766572696679426174636865733a2070656e6460448201527f696e6753746174654e756d206d757374206265206c657373206f72206571756160648201527f6c207468616e206c61737450656e64696e675374617465000000000000000000608482015260a401610dfc565b67ffffffffffffffff808b1660009081526078602052604090206002810154815490945090918b8116680100000000000000009092041614611456576040517f08c379a000000000000000000000000000000000000000000000000000000000815260206004820152604b60248201527f43444b56616c696469756d3a3a766572696679426174636865733a20696e697460448201527f4e756d4261746368206d757374206d61746368207468652070656e64696e672060648201527f7374617465206261746368000000000000000000000000000000000000000000608482015260a401610dfc565b506115f5565b67ffffffffffffffff891660009081526075602052604090205491508161152b576040517f08c379a000000000000000000000000000000000000000000000000000000000815260206004820152604260248201527f43444b56616c696469756d3a3a766572696679426174636865733a20696e697460448201527f4e756d426174636820737461746520726f6f7420646f6573206e6f742065786960648201527f7374000000000000000000000000000000000000000000000000000000000000608482015260a401610dfc565b8067ffffffffffffffff168967ffffffffffffffff1611156115f5576040517f08c379a000000000000000000000000000000000000000000000000000000000815260206004820152605c60248201527f43444b56616c696469756d3a3a766572696679426174636865733a20696e697460448201527f4e756d4261746368206d757374206265206c657373206f7220657175616c207460648201527f68616e2063757272656e744c6173745665726966696564426174636800000000608482015260a401610dfc565b8067ffffffffffffffff168867ffffffffffffffff16116116be576040517f08c379a000000000000000000000000000000000000000000000000000000000815260206004820152605660248201527f43444b56616c696469756d3a3a766572696679426174636865733a2066696e6160448201527f6c4e65774261746368206d75737420626520626967676572207468616e20637560648201527f7272656e744c6173745665726966696564426174636800000000000000000000608482015260a401610dfc565b60006116cd8a8a8a868b611951565b607480547fffffffffffffffffffffffffffffffffffffffffffffffff00000000000000001667ffffffffffffffff8c81169182179092556000908152607560205260409020899055607954919250161561174b57607980547fffffffffffffffffffffffffffffffff000000000000000000000000000000001690555b6040517f33d6247d000000000000000000000000000000000000000000000000000000008152600481018990527f000000000000000000000000000000000000000000000000000000000000000073ffffffffffffffffffffffffffffffffffffffff16906333d6247d90602401600060405180830381600087803b1580156117d357600080fd5b505af11580156117e7573d6000803e3d6000fd5b505060405189815233925067ffffffffffffffff8c1691507fcb339b570a7f0b25afa7333371ff11192092a0aeace12b671f4c212f2815c6fe9060200160405180910390a35050505050505050505050565b607a5473ffffffffffffffffffffffffffffffffffffffff16331461188a576040517f4755657900000000000000000000000000000000000000000000000000000000815260040160405180910390fd5b6103e88161ffff1610806118a357506103ff8161ffff16115b156118da576040517f4c2533c800000000000000000000000000000000000000000000000000000000815260040160405180910390fd5b606f80547fffffffffffffffffffffffffffffffffffffffffff0000ffffffffffffffffff16690100000000000000000061ffff8416908102919091179091556040519081527f7019933d795eba185c180209e8ae8bffbaa25bcef293364687702c31f4d302c5906020015b60405180910390a150565b67ffffffffffffffff8086166000818152607260205260408082205493881682529020546060929115801590611985575081155b156119bc576040517f6818c29e00000000000000000000000000000000000000000000000000000000815260040160405180910390fd5b806119f3576040517f66385b5100000000000000000000000000000000000000000000000000000000815260040160405180910390fd5b6119fc84613957565b611a32576040517f176b913c00000000000000000000000000000000000000000000000000000000815260040160405180910390fd5b604080517fffffffffffffffffffffffffffffffffffffffff0000000000000000000000003360601b166020820152603481019690965260548601929092527fffffffffffffffff00000000000000000000000000000000000000000000000060c098891b811660748701527f0000000000000000000000000000000000000000000000000000000000000000891b8116607c8701527f0000000000000000000000000000000000000000000000000000000000000000891b81166084870152608c86019490945260ac85015260cc840194909452509290931b90911660ec830152805180830360d401815260f4909201905290565b60745468010000000000000000900473ffffffffffffffffffffffffffffffffffffffff163314611b85576040517fbbcbbc0500000000000000000000000000000000000000000000000000000000815260040160405180910390fd5b611b93868686868686614d4c565b607480547fffffffffffffffffffffffffffffffffffffffffffffffff00000000000000001667ffffffffffffffff86811691821790925560009081526075602052604090208390556079541615611c0e57607980547fffffffffffffffffffffffffffffffff000000000000000000000000000000001690555b6040517f33d6247d000000000000000000000000000000000000000000000000000000008152600481018490527f000000000000000000000000000000000000000000000000000000000000000073ffffffffffffffffffffffffffffffffffffffff16906333d6247d90602401600060405180830381600087803b158015611c9657600080fd5b505af1158015611caa573d6000803e3d6000fd5b505060405184815233925067ffffffffffffffff871691507fcb339b570a7f0b25afa7333371ff11192092a0aeace12b671f4c212f2815c6fe906020015b60405180910390a3505050505050565b60745468010000000000000000900473ffffffffffffffffffffffffffffffffffffffff163314611d55576040517fbbcbbc0500000000000000000000000000000000000000000000000000000000815260040160405180910390fd5b611d6487878787878787615110565b607480547fffffffffffffffffffffffffffffffffffffffffffffffff00000000000000001667ffffffffffffffff86811691821790925560009081526075602052604090208390556079541615611ddf57607980547fffffffffffffffffffffffffffffffff000000000000000000000000000000001690555b6040517f33d6247d000000000000000000000000000000000000000000000000000000008152600481018490527f000000000000000000000000000000000000000000000000000000000000000073ffffffffffffffffffffffffffffffffffffffff16906333d6247d90602401600060405180830381600087803b158015611e6757600080fd5b505af1158015611e7b573d6000803e3d6000fd5b50506079805477ffffffffffffffffffffffffffffffffffffffffffffffff167a093a800000000000000000000000000000000000000000000000001790555050604051828152339067ffffffffffffffff8616907fcc1b5520188bf1dd3e63f98164b577c4d75c11a619ddea692112f0d1aec4cf729060200160405180910390a350505050505050565b60795467ffffffffffffffff82811660009081526078602052604081205490924292611f4a92700100000000000000000000000000000000909204811691166169d9565b67ffffffffffffffff16111592915050565b607a5473ffffffffffffffffffffffffffffffffffffffff163314611fad576040517f4755657900000000000000000000000000000000000000000000000000000000815260040160405180910390fd5b62093a8067ffffffffffffffff82161115611ff4576040517f1d06e87900000000000000000000000000000000000000000000000000000000815260040160405180910390fd5b606f5460ff166120635760795467ffffffffffffffff7801000000000000000000000000000000000000000000000000909104811690821610612063576040517f401636df00000000000000000000000000000000000000000000000000000000815260040160405180910390fd5b6079805477ffffffffffffffffffffffffffffffffffffffffffffffff16780100000000000000000000000000000000000000000000000067ffffffffffffffff8416908102919091179091556040519081527f1f4fa24c2e4bad19a7f3ec5c5485f70d46c798461c2e684f55bbd0fc661373a190602001611946565b606f5460ff161561211d576040517f2f0047fc00000000000000000000000000000000000000000000000000000000815260040160405180910390fd5b606f546b010000000000000000000000900473ffffffffffffffffffffffffffffffffffffffff16331461217d576040517f11e7be1500000000000000000000000000000000000000000000000000000000815260040160405180910390fd5b8360008190036121b9576040517fcb591a5f00000000000000000000000000000000000000000000000000000000815260040160405180910390fd5b6103e88111156121f5576040517fb59f753a00000000000000000000000000000000000000000000000000000000815260040160405180910390fd5b60735467ffffffffffffffff6801000000000000000082048116600081815260726020526040812054838516949293700100000000000000000000000000000000909304909216919082905b8681101561260e5760008c8c8381811061225d5761225d616a01565b9050608002018036038101906122739190616a30565b606081015190915067ffffffffffffffff16156123e4578461229481616aa1565b95505060008160000151826020015183606001516040516020016122f093929190928352602083019190915260c01b7fffffffffffffffff00000000000000000000000000000000000000000000000016604082015260480190565b604080517fffffffffffffffffffffffffffffffffffffffffffffffffffffffffffffffe0818403018152918152815160209283012067ffffffffffffffff8916600090815260719093529120549091508114612379576040517fce3d755e00000000000000000000000000000000000000000000000000000000815260040160405180910390fd5b67ffffffffffffffff80871660009081526071602052604080822091909155606084015190840151908216911610156123de576040517f7f7ab87200000000000000000000000000000000000000000000000000000000815260040160405180910390fd5b506124e2565b6020810151158015906124ab575060208101516040517f257b363200000000000000000000000000000000000000000000000000000000815260048101919091527f000000000000000000000000000000000000000000000000000000000000000073ffffffffffffffffffffffffffffffffffffffff169063257b3632906024016020604051808303816000875af1158015612485573d6000803e3d6000fd5b505050506040513d601f19601f820116820180604052508101906124a991906168fb565b155b156124e2576040517f73bd668d00000000000000000000000000000000000000000000000000000000815260040160405180910390fd5b8667ffffffffffffffff16816040015167ffffffffffffffff161080612515575042816040015167ffffffffffffffff16115b1561254c576040517fea82791600000000000000000000000000000000000000000000000000000000815260040160405180910390fd5b838160000151826020015183604001518e6040516020016125db9594939291909485526020850193909352604084019190915260c01b7fffffffffffffffff000000000000000000000000000000000000000000000000166060808401919091521b7fffffffffffffffffffffffffffffffffffffffff000000000000000000000000166068820152607c0190565b6040516020818303038152906040528051906020012093508060400151965050808061260690616ac8565b915050612241565b506040517fc7a823e000000000000000000000000000000000000000000000000000000000815273ffffffffffffffffffffffffffffffffffffffff7f0000000000000000000000000000000000000000000000000000000000000000169063c7a823e0906126859085908c908c90600401616b49565b60006040518083038186803b15801561269d57600080fd5b505afa1580156126b1573d6000803e3d6000fd5b5050505085846126c191906169d9565b60735490945067ffffffffffffffff78010000000000000000000000000000000000000000000000009091048116908416111561272a576040517fc630a00d00000000000000000000000000000000000000000000000000000000815260040160405180910390fd5b60006127368285616b6c565b61274a9067ffffffffffffffff1688616b8d565b604080516060810182528581524267ffffffffffffffff908116602080840191825260738054680100000000000000009081900485168688019081528d861660008181526072909552979093209551865592516001909501805492519585167fffffffffffffffffffffffffffffffff000000000000000000000000000000009384161795851684029590951790945583548c841691161793029290921790559091508281169085161461284057607380547fffffffffffffffff0000000000000000ffffffffffffffffffffffffffffffff1670010000000000000000000000000000000067ffffffffffffffff8716021790555b6128923330836070546128539190616ba0565b73ffffffffffffffffffffffffffffffffffffffff7f00000000000000000000000000000000000000000000000000000000000000001692919061554a565b61289a61562c565b7f000000000000000000000000000000000000000000000000000000000000000073ffffffffffffffffffffffffffffffffffffffff166379e2cf976040518163ffffffff1660e01b8152600401600060405180830381600087803b15801561290257600080fd5b505af1158015612916573d6000803e3d6000fd5b505060405167ffffffffffffffff881692507f303446e6a8cb73c83dff421c0b1d5e5ce0719dab1bff13660fc254e58cc17fce9150600090a2505050505050505050505050565b60745468010000000000000000900473ffffffffffffffffffffffffffffffffffffffff163314612a0457606f5460ff16156129c5576040517f2f0047fc00000000000000000000000000000000000000000000000000000000815260040160405180910390fd5b6129ce81611f06565b612a04576040517f0ce9e4a200000000000000000000000000000000000000000000000000000000815260040160405180910390fd5b612a0d816156d5565b50565b607a5473ffffffffffffffffffffffffffffffffffffffff163314612a61576040517f4755657900000000000000000000000000000000000000000000000000000000815260040160405180910390fd5b62093a8067ffffffffffffffff82161115612aa8576040517ff5e37f2f00000000000000000000000000000000000000000000000000000000815260040160405180910390fd5b606f5460ff16612b1357607b5467ffffffffffffffff74010000000000000000000000000000000000000000909104811690821610612b13576040517ff5e37f2f00000000000000000000000000000000000000000000000000000000815260040160405180910390fd5b607b80547fffffffff0000000000000000ffffffffffffffffffffffffffffffffffffffff167401000000000000000000000000000000000000000067ffffffffffffffff8416908102919091179091556040519081527fa7eb6cb8a613eb4e8bddc1ac3d61ec6cf10898760f0b187bcca794c6ca6fa40b90602001611946565b6076805461120090616957565b607a5473ffffffffffffffffffffffffffffffffffffffff163314612bf2576040517f4755657900000000000000000000000000000000000000000000000000000000815260040160405180910390fd5b607b547c0100000000000000000000000000000000000000000000000000000000900460ff16612c4e576040517ff6ba91a100000000000000000000000000000000000000000000000000000000815260040160405180910390fd5b607b80547fffffff00ffffffffffffffffffffffffffffffffffffffffffffffffffffffff1690556040517f854dd6ce5a1445c4c54388b21cffd11cf5bba1b9e763aec48ce3da75d617412f90600090a1565b60006070546064612cb29190616ba0565b905090565b606f5460ff1615612cf4576040517f2f0047fc00000000000000000000000000000000000000000000000000000000815260040160405180910390fd5b60795467ffffffffffffffff8581166000908152607260205260409020600101544292612d41927801000000000000000000000000000000000000000000000000909104811691166169d9565b67ffffffffffffffff161115612d83576040517f8a0704d300000000000000000000000000000000000000000000000000000000815260040160405180910390fd5b6103e8612d908686616b6c565b67ffffffffffffffff161115612dd2576040517fb59f753a00000000000000000000000000000000000000000000000000000000815260040160405180910390fd5b612de0868686868686614d4c565b612de9846158e8565b607954700100000000000000000000000000000000900467ffffffffffffffff16600003612f3157607480547fffffffffffffffffffffffffffffffffffffffffffffffff00000000000000001667ffffffffffffffff86811691821790925560009081526075602052604090208390556079541615612e8c57607980547fffffffffffffffffffffffffffffffff000000000000000000000000000000001690555b6040517f33d6247d000000000000000000000000000000000000000000000000000000008152600481018490527f000000000000000000000000000000000000000000000000000000000000000073ffffffffffffffffffffffffffffffffffffffff16906333d6247d90602401600060405180830381600087803b158015612f1457600080fd5b505af1158015612f28573d6000803e3d6000fd5b50505050613001565b612f3961562c565b6079805467ffffffffffffffff16906000612f5383616aa1565b825467ffffffffffffffff9182166101009390930a92830292820219169190911790915560408051608081018252428316815287831660208083019182528284018981526060840189815260795487166000908152607890935294909120925183549251861668010000000000000000027fffffffffffffffffffffffffffffffff000000000000000000000000000000009093169516949094171781559151600183015551600290910155505b604051828152339067ffffffffffffffff8616907f9c72852172521097ba7e1482e6b44b351323df0155f97f4ea18fcec28e1f596690602001611ce8565b607a5473ffffffffffffffffffffffffffffffffffffffff163314613090576040517f4755657900000000000000000000000000000000000000000000000000000000815260040160405180910390fd5b606f80547fff0000000000000000000000000000000000000000ffffffffffffffffffffff166b01000000000000000000000073ffffffffffffffffffffffffffffffffffffffff8416908102919091179091556040519081527ff54144f9611984021529f814a1cb6a41e22c58351510a0d9f7e822618abb9cc090602001611946565b61311c614ccb565b6131266000615ac8565b565b60335473ffffffffffffffffffffffffffffffffffffffff1633146132905760006131516139f9565b90508067ffffffffffffffff168267ffffffffffffffff16116131a0576040517f812a372d00000000000000000000000000000000000000000000000000000000815260040160405180910390fd5b60735467ffffffffffffffff68010000000000000000909104811690831611806131e6575067ffffffffffffffff80831660009081526072602052604090206001015416155b1561321d576040517f98c5c01400000000000000000000000000000000000000000000000000000000815260040160405180910390fd5b67ffffffffffffffff808316600090815260726020526040902060010154429161324c9162093a8091166169d9565b67ffffffffffffffff16111561328e576040517fd257555a00000000000000000000000000000000000000000000000000000000815260040160405180910390fd5b505b612a0d615b3f565b607b5473ffffffffffffffffffffffffffffffffffffffff1633146132e9576040517fd1ec4b2300000000000000000000000000000000000000000000000000000000815260040160405180910390fd5b607b54607a80547fffffffffffffffffffffffff00000000000000000000000000000000000000001673ffffffffffffffffffffffffffffffffffffffff90921691821790556040519081527f056dc487bbf0795d0bbb1b4f0af523a855503cff740bfb4d5475f7a90c091e8e9060200160405180910390a1565b61336c614ccb565b607480547fffffffffffffffffffffffffffffffffffffffffffffffff00000000000000001667ffffffffffffffff92909216919091179055565b6040517f70a08231000000000000000000000000000000000000000000000000000000008152306004820152600090819073ffffffffffffffffffffffffffffffffffffffff7f000000000000000000000000000000000000000000000000000000000000000016906370a0823190602401602060405180830381865afa158015613436573d6000803e3d6000fd5b505050506040513d601f19601f8201168201806040525081019061345a91906168fb565b905060006134666139f9565b60735467ffffffffffffffff6801000000000000000082048116916134be9170010000000000000000000000000000000082048116917801000000000000000000000000000000000000000000000000900416616b6c565b6134c891906169d9565b6134d29190616b6c565b67ffffffffffffffff169050806000036134ef5760009250505090565b6134f98183616bb7565b9250505090565b606f5460ff161561353d576040517f2f0047fc00000000000000000000000000000000000000000000000000000000815260040160405180910390fd5b61354c87878787878787615110565b67ffffffffffffffff84166000908152607560209081526040918290205482519081529081018490527f1f44c21118c4603cfb4e1b621dbcfa2b73efcececee2b99b620b2953d33a7010910160405180910390a16135a8615b3f565b50505050505050565b6135b9614ccb565b6073805467ffffffffffffffff90921668010000000000000000027fffffffffffffffffffffffffffffffff0000000000000000ffffffffffffffff909216919091179055565b607a5473ffffffffffffffffffffffffffffffffffffffff163314613651576040517f4755657900000000000000000000000000000000000000000000000000000000815260040160405180910390fd5b62093a8067ffffffffffffffff82161115613698576040517fcc96507000000000000000000000000000000000000000000000000000000000815260040160405180910390fd5b606f5460ff166136ff5760795467ffffffffffffffff7001000000000000000000000000000000009091048116908216106136ff576040517f48a05a9000000000000000000000000000000000000000000000000000000000815260040160405180910390fd5b607980547fffffffffffffffff0000000000000000ffffffffffffffffffffffffffffffff1670010000000000000000000000000000000067ffffffffffffffff8416908102919091179091556040519081527fc4121f4e22c69632ebb7cf1f462be0511dc034f999b52013eddfb24aab765c7590602001611946565b607a5473ffffffffffffffffffffffffffffffffffffffff1633146137cd576040517f4755657900000000000000000000000000000000000000000000000000000000815260040160405180910390fd5b620151808167ffffffffffffffff161115613814576040517fe067dfe800000000000000000000000000000000000000000000000000000000815260040160405180910390fd5b606f80547fffffffffffffffffffffffffffffffffffffffffffffff0000000000000000ff1661010067ffffffffffffffff8416908102919091179091556040519081527f1b023231a1ab6b5d93992f168fb44498e1a7e64cef58daff6f1c216de6a68c2890602001611946565b607a5473ffffffffffffffffffffffffffffffffffffffff1633146138d3576040517f4755657900000000000000000000000000000000000000000000000000000000815260040160405180910390fd5b607b80547fffffffffffffffffffffffff00000000000000000000000000000000000000001673ffffffffffffffffffffffffffffffffffffffff83169081179091556040519081527fa5b56b7906fd0a20e3f35120dd8343db1e12e037a6c90111c7e42885e82a1ce690602001611946565b61394e614ccb565b612a0d816158e8565b600067ffffffff0000000167ffffffffffffffff831610801561398f575067ffffffff00000001604083901c67ffffffffffffffff16105b80156139b0575067ffffffff00000001608083901c67ffffffffffffffff16105b80156139c7575067ffffffff0000000160c083901c105b156139d457506001919050565b506000919050565b919050565b6139e9614ccb565b60776139f58282616c19565b5050565b60795460009067ffffffffffffffff1615613a3d575060795467ffffffffffffffff9081166000908152607860205260409020546801000000000000000090041690565b5060745467ffffffffffffffff1690565b607a5473ffffffffffffffffffffffffffffffffffffffff163314613a9f576040517f4755657900000000000000000000000000000000000000000000000000000000815260040160405180910390fd5b6076613aab8282616c19565b507f6b8f723a4c7a5335cafae8a598a0aa0301be1387c037dccc085b62add6448b208160405161194691906161da565b600054610100900460ff1615808015613afb5750600054600160ff909116105b80613b155750303b158015613b15575060005460ff166001145b613ba1576040517f08c379a000000000000000000000000000000000000000000000000000000000815260206004820152602e60248201527f496e697469616c697a61626c653a20636f6e747261637420697320616c72656160448201527f647920696e697469616c697a65640000000000000000000000000000000000006064820152608401610dfc565b600080547fffffffffffffffffffffffffffffffffffffffffffffffffffffffffffffff001660011790558015613bff57600080547fffffffffffffffffffffffffffffffffffffffffffffffffffffffffffff00ff166101001790555b613c0c6020880188616689565b607a80547fffffffffffffffffffffffff00000000000000000000000000000000000000001673ffffffffffffffffffffffffffffffffffffffff92909216919091179055613c616040880160208901616689565b606f805473ffffffffffffffffffffffffffffffffffffffff929092166b010000000000000000000000027fff0000000000000000000000000000000000000000ffffffffffffffffffffff909216919091179055613cc66080880160608901616689565b6074805473ffffffffffffffffffffffffffffffffffffffff9290921668010000000000000000027fffffffff0000000000000000000000000000000000000000ffffffffffffffff9092169190911790556000805260756020527ff9e3fbf150b7a0077118526f473c53cb4734f166167e2c6213e3567dd390b4ad8690556076613d518682616c19565b506077613d5e8582616c19565b5062093a80613d736060890160408a01616403565b67ffffffffffffffff161115613db5576040517fcc96507000000000000000000000000000000000000000000000000000000000815260040160405180910390fd5b613dc56060880160408901616403565b6079805467ffffffffffffffff92909216700100000000000000000000000000000000027fffffffffffffffff0000000000000000ffffffffffffffffffffffffffffffff90921691909117905562093a80613e2760a0890160808a01616403565b67ffffffffffffffff161115613e69576040517f1d06e87900000000000000000000000000000000000000000000000000000000815260040160405180910390fd5b613e7960a0880160808901616403565b6079805477ffffffffffffffffffffffffffffffffffffffffffffffff16780100000000000000000000000000000000000000000000000067ffffffffffffffff939093169290920291909117905567016345785d8a0000607055606f80547fffffffffffffffffffffffffffffffffffffffffff00000000000000000000ff166a03ea000000000000070800179055607b80547fffffff000000000000000000ffffffffffffffffffffffffffffffffffffffff167c0100000000000697800000000000000000000000000000000000000000179055613f58615bc7565b7fed7be53c9f1a96a481223b15568a5b1a475e01a74b347d6ca187c8bf0c078cd660007f00000000000000000000000000000000000000000000000000000000000000008585604051613fae9493929190616d33565b60405180910390a180156135a857600080547fffffffffffffffffffffffffffffffffffffffffffffffffffffffffffff00ff169055604051600181527f7f26b83ff96e1f2b6a682f133852f6798a09c465da95921460cefb38474024989060200160405180910390a150505050505050565b607b547c0100000000000000000000000000000000000000000000000000000000900460ff161561407e576040517f24eff8c300000000000000000000000000000000000000000000000000000000815260040160405180910390fd5b606f5460ff16156140bb576040517f2f0047fc00000000000000000000000000000000000000000000000000000000815260040160405180910390fd5b8060008190036140f7576040517fcb591a5f00000000000000000000000000000000000000000000000000000000815260040160405180910390fd5b6103e8811115614133576040517fb59f753a00000000000000000000000000000000000000000000000000000000815260040160405180910390fd5b60735467ffffffffffffffff7801000000000000000000000000000000000000000000000000820481169161417e918491700100000000000000000000000000000000900416616d6b565b11156141b6576040517fc630a00d00000000000000000000000000000000000000000000000000000000815260040160405180910390fd5b60735467ffffffffffffffff680100000000000000008204811660008181526072602052604081205491937001000000000000000000000000000000009004909216915b8481101561446057600087878381811061421657614216616a01565b90506020028101906142289190616d7e565b61423190616db2565b90508361423d81616aa1565b8251805160209182012081850151604080870151905194995091945060009361429f9386939101928352602083019190915260c01b7fffffffffffffffff00000000000000000000000000000000000000000000000016604082015260480190565b604080517fffffffffffffffffffffffffffffffffffffffffffffffffffffffffffffffe0818403018152918152815160209283012067ffffffffffffffff8916600090815260719093529120549091508114614328576040517fce3d755e00000000000000000000000000000000000000000000000000000000815260040160405180910390fd5b67ffffffffffffffff861660009081526071602052604081205561434d600189616b8d565b84036143bc5742607b60149054906101000a900467ffffffffffffffff16846040015161437a91906169d9565b67ffffffffffffffff1611156143bc576040517fc44a082100000000000000000000000000000000000000000000000000000000815260040160405180910390fd5b6020838101516040805192830188905282018490526060808301919091524260c01b7fffffffffffffffff00000000000000000000000000000000000000000000000016608083015233901b7fffffffffffffffffffffffffffffffffffffffff000000000000000000000000166088820152609c01604051602081830303815290604052805190602001209450505050808061445890616ac8565b9150506141fa565b5061446b84846169d9565b6073805467ffffffffffffffff4281167fffffffffffffffffffffffffffffffffffffffffffffffff00000000000000009092168217808455604080516060810182528781526020808201958652680100000000000000009384900485168284019081528589166000818152607290935284832093518455965160019390930180549151871686027fffffffffffffffffffffffffffffffff0000000000000000000000000000000090921693871693909317179091558554938916700100000000000000000000000000000000027fffffffffffffffff0000000000000000ffffffffffffffffffffffffffffffff938602939093167fffffffffffffffff00000000000000000000000000000000ffffffffffffffff90941693909317919091179093559151929550917f648a61dd2438f072f5a1960939abd30f37aea80d2e94c9792ad142d3e0a490a49190a2505050505050565b607a5473ffffffffffffffffffffffffffffffffffffffff163314614614576040517f4755657900000000000000000000000000000000000000000000000000000000815260040160405180910390fd5b7f000000000000000000000000000000000000000000000000000000000000000073ffffffffffffffffffffffffffffffffffffffff1663dbc169766040518163ffffffff1660e01b8152600401600060405180830381600087803b15801561467c57600080fd5b505af1158015614690573d6000803e3d6000fd5b50505050613126615c67565b6146a4614ccb565b6040805160608101825293845267ffffffffffffffff92831660208086019182529284168583019081529584166000908152607290935291209251835551600190920180549351821668010000000000000000027fffffffffffffffffffffffffffffffff000000000000000000000000000000009094169290911691909117919091179055565b607b547c0100000000000000000000000000000000000000000000000000000000900460ff1615614789576040517f24eff8c300000000000000000000000000000000000000000000000000000000815260040160405180910390fd5b606f5460ff16156147c6576040517f2f0047fc00000000000000000000000000000000000000000000000000000000815260040160405180910390fd5b60006147d0612ca1565b90508181111561480c576040517f4732fdb500000000000000000000000000000000000000000000000000000000815260040160405180910390fd5b611388831115614848576040517fa29a6c7c00000000000000000000000000000000000000000000000000000000815260040160405180910390fd5b61488a73ffffffffffffffffffffffffffffffffffffffff7f00000000000000000000000000000000000000000000000000000000000000001633308461554a565b60007f000000000000000000000000000000000000000000000000000000000000000073ffffffffffffffffffffffffffffffffffffffff16633ed691ef6040518163ffffffff1660e01b8152600401602060405180830381865afa1580156148f7573d6000803e3d6000fd5b505050506040513d601f19601f8201168201806040525081019061491b91906168fb565b60738054919250780100000000000000000000000000000000000000000000000090910467ffffffffffffffff1690601861495583616aa1565b91906101000a81548167ffffffffffffffff021916908367ffffffffffffffff16021790555050848460405161498c929190616e2e565b60408051918290038220602083015281018290527fffffffffffffffff0000000000000000000000000000000000000000000000004260c01b166060820152606801604080518083037fffffffffffffffffffffffffffffffffffffffffffffffffffffffffffffffe001815291815281516020928301206073547801000000000000000000000000000000000000000000000000900467ffffffffffffffff1660009081526071909352912055323303614abc57607354604080518381523360208201526060918101829052600091810191909152780100000000000000000000000000000000000000000000000090910467ffffffffffffffff16907ff94bb37db835f1ab585ee00041849a09b12cd081d77fa15ca070757619cbc9319060800160405180910390a2614b1b565b607360189054906101000a900467ffffffffffffffff1667ffffffffffffffff167ff94bb37db835f1ab585ee00041849a09b12cd081d77fa15ca070757619cbc93182338888604051614b129493929190616e3e565b60405180910390a25b5050505050565b607a5473ffffffffffffffffffffffffffffffffffffffff163314614b73576040517f4755657900000000000000000000000000000000000000000000000000000000815260040160405180910390fd5b607480547fffffffff0000000000000000000000000000000000000000ffffffffffffffff166801000000000000000073ffffffffffffffffffffffffffffffffffffffff8416908102919091179091556040519081527f61f8fec29495a3078e9271456f05fb0707fd4e41f7661865f80fc437d06681ca90602001611946565b614bfc614ccb565b73ffffffffffffffffffffffffffffffffffffffff8116614c9f576040517f08c379a000000000000000000000000000000000000000000000000000000000815260206004820152602660248201527f4f776e61626c653a206e6577206f776e657220697320746865207a65726f206160448201527f64647265737300000000000000000000000000000000000000000000000000006064820152608401610dfc565b612a0d81615ac8565b614cb0614ccb565b67ffffffffffffffff16600090815260756020526040902055565b60335473ffffffffffffffffffffffffffffffffffffffff163314613126576040517f08c379a000000000000000000000000000000000000000000000000000000000815260206004820181905260248201527f4f776e61626c653a2063616c6c6572206973206e6f7420746865206f776e65726044820152606401610dfc565b600080614d576139f9565b905067ffffffffffffffff881615614e275760795467ffffffffffffffff9081169089161115614db3576040517fbb14c20500000000000000000000000000000000000000000000000000000000815260040160405180910390fd5b67ffffffffffffffff8089166000908152607860205260409020600281015481549094509091898116680100000000000000009092041614614e21576040517f2bd2e3e700000000000000000000000000000000000000000000000000000000815260040160405180910390fd5b50614ec8565b67ffffffffffffffff8716600090815260756020526040902054915081614e7a576040517f4997b98600000000000000000000000000000000000000000000000000000000815260040160405180910390fd5b8067ffffffffffffffff168767ffffffffffffffff161115614ec8576040517f1e56e9e200000000000000000000000000000000000000000000000000000000815260040160405180910390fd5b8067ffffffffffffffff168667ffffffffffffffff1611614f15576040517fb9b18f5700000000000000000000000000000000000000000000000000000000815260040160405180910390fd5b6000614f248888888689611951565b905060007f30644e72e131a029b85045b68181585d2833e84879b9709143e1f593f0000001600283604051614f5991906168df565b602060405180830381855afa158015614f76573d6000803e3d6000fd5b5050506040513d601f19601f82011682018060405250810190614f9991906168fb565b614fa39190616943565b6040805160208101825282815290517f9121da8a00000000000000000000000000000000000000000000000000000000815291925073ffffffffffffffffffffffffffffffffffffffff7f00000000000000000000000000000000000000000000000000000000000000001691639121da8a9161502591899190600401616e74565b602060405180830381865afa158015615042573d6000803e3d6000fd5b505050506040513d601f19601f820116820180604052508101906150669190616eaf565b61509c576040517f09bde33900000000000000000000000000000000000000000000000000000000815260040160405180910390fd5b615104336150aa858b616b6c565b67ffffffffffffffff166150bc6133a7565b6150c69190616ba0565b73ffffffffffffffffffffffffffffffffffffffff7f0000000000000000000000000000000000000000000000000000000000000000169190615cf6565b50505050505050505050565b600067ffffffffffffffff8816156151de5760795467ffffffffffffffff908116908916111561516c576040517fbb14c20500000000000000000000000000000000000000000000000000000000815260040160405180910390fd5b5067ffffffffffffffff80881660009081526078602052604090206002810154815490928881166801000000000000000090920416146151d8576040517f2bd2e3e700000000000000000000000000000000000000000000000000000000815260040160405180910390fd5b5061527a565b5067ffffffffffffffff851660009081526075602052604090205480615230576040517f4997b98600000000000000000000000000000000000000000000000000000000815260040160405180910390fd5b60745467ffffffffffffffff908116908716111561527a576040517f1e56e9e200000000000000000000000000000000000000000000000000000000815260040160405180910390fd5b60795467ffffffffffffffff90811690881611806152ac57508767ffffffffffffffff168767ffffffffffffffff1611155b806152d3575060795467ffffffffffffffff68010000000000000000909104811690881611155b1561530a576040517fbfa7079f00000000000000000000000000000000000000000000000000000000815260040160405180910390fd5b67ffffffffffffffff87811660009081526078602052604090205468010000000000000000900481169086161461536d576040517f32a2a77f00000000000000000000000000000000000000000000000000000000815260040160405180910390fd5b600061537c8787878588611951565b905060007f30644e72e131a029b85045b68181585d2833e84879b9709143e1f593f00000016002836040516153b191906168df565b602060405180830381855afa1580156153ce573d6000803e3d6000fd5b5050506040513d601f19601f820116820180604052508101906153f191906168fb565b6153fb9190616943565b6040805160208101825282815290517f9121da8a00000000000000000000000000000000000000000000000000000000815291925073ffffffffffffffffffffffffffffffffffffffff7f00000000000000000000000000000000000000000000000000000000000000001691639121da8a9161547d91889190600401616e74565b602060405180830381865afa15801561549a573d6000803e3d6000fd5b505050506040513d601f19601f820116820180604052508101906154be9190616eaf565b6154f4576040517f09bde33900000000000000000000000000000000000000000000000000000000815260040160405180910390fd5b67ffffffffffffffff8916600090815260786020526040902060020154859003615104576040517fa47276bd00000000000000000000000000000000000000000000000000000000815260040160405180910390fd5b60405173ffffffffffffffffffffffffffffffffffffffff808516602483015283166044820152606481018290526156269085907f23b872dd00000000000000000000000000000000000000000000000000000000906084015b604080517fffffffffffffffffffffffffffffffffffffffffffffffffffffffffffffffe08184030181529190526020810180517bffffffffffffffffffffffffffffffffffffffffffffffffffffffff167fffffffff0000000000000000000000000000000000000000000000000000000090931692909217909152615d51565b50505050565b60795467ffffffffffffffff680100000000000000008204811691161115613126576079546000906156759068010000000000000000900467ffffffffffffffff1660016169d9565b905061568081611f06565b15612a0d576079546000906002906156a390849067ffffffffffffffff16616b6c565b6156ad9190616ed1565b6156b790836169d9565b90506156c281611f06565b156156d0576139f5816156d5565b6139f5825b60795467ffffffffffffffff68010000000000000000909104811690821611158061570f575060795467ffffffffffffffff908116908216115b15615746576040517fd086b70b00000000000000000000000000000000000000000000000000000000815260040160405180910390fd5b67ffffffffffffffff818116600081815260786020908152604080832080546074805468010000000000000000928390049098167fffffffffffffffffffffffffffffffffffffffffffffffff000000000000000090981688179055600282015487865260759094529382902092909255607980547fffffffffffffffffffffffffffffffff0000000000000000ffffffffffffffff169390940292909217909255600182015490517f33d6247d00000000000000000000000000000000000000000000000000000000815260048101919091529091907f000000000000000000000000000000000000000000000000000000000000000073ffffffffffffffffffffffffffffffffffffffff16906333d6247d90602401600060405180830381600087803b15801561587857600080fd5b505af115801561588c573d6000803e3d6000fd5b505050508267ffffffffffffffff168167ffffffffffffffff167f328d3c6c0fd6f1be0515e422f2d87e59f25922cbc2233568515a0c4bc3f8510e84600201546040516158db91815260200190565b60405180910390a3505050565b60006158f26139f9565b9050816000806159028484616b6c565b606f5467ffffffffffffffff91821692506000916159269161010090041642616b8d565b90505b8467ffffffffffffffff168467ffffffffffffffff16146159b15767ffffffffffffffff8085166000908152607260205260409020600181015490911682101561598f57600181015468010000000000000000900467ffffffffffffffff1694506159ab565b6159998686616b6c565b67ffffffffffffffff169350506159b1565b50615929565b60006159bd8484616b8d565b905083811015615a1457808403600c81116159d857806159db565b600c5b9050806103e80a81606f60099054906101000a900461ffff1661ffff160a6070540281615a0a57615a0a616914565b0460705550615a84565b838103600c8111615a255780615a28565b600c5b90506000816103e80a82606f60099054906101000a900461ffff1661ffff160a670de0b6b3a76400000281615a5f57615a5f616914565b04905080607054670de0b6b3a76400000281615a7d57615a7d616914565b0460705550505b683635c9adc5dea000006070541115615aa957683635c9adc5dea000006070556135a8565b633b9aca0060705410156135a857633b9aca0060705550505050505050565b6033805473ffffffffffffffffffffffffffffffffffffffff8381167fffffffffffffffffffffffff0000000000000000000000000000000000000000831681179093556040519116919082907f8be0079c531659141344cd1fd0a4f28419497f9722a3daafe3b4186f6b6457e090600090a35050565b7f000000000000000000000000000000000000000000000000000000000000000073ffffffffffffffffffffffffffffffffffffffff16632072f6c56040518163ffffffff1660e01b8152600401600060405180830381600087803b158015615ba757600080fd5b505af1158015615bbb573d6000803e3d6000fd5b50505050613126615e5d565b600054610100900460ff16615c5e576040517f08c379a000000000000000000000000000000000000000000000000000000000815260206004820152602b60248201527f496e697469616c697a61626c653a20636f6e7472616374206973206e6f74206960448201527f6e697469616c697a696e670000000000000000000000000000000000000000006064820152608401610dfc565b61312633615ac8565b606f5460ff16615ca3576040517f5386698100000000000000000000000000000000000000000000000000000000815260040160405180910390fd5b606f80547fffffffffffffffffffffffffffffffffffffffffffffffffffffffffffffff001690556040517f1e5e34eea33501aecf2ebec9fe0e884a40804275ea7fe10b2ba084c8374308b390600090a1565b60405173ffffffffffffffffffffffffffffffffffffffff8316602482015260448101829052615d4c9084907fa9059cbb00000000000000000000000000000000000000000000000000000000906064016155a4565b505050565b6000615db3826040518060400160405280602081526020017f5361666545524332303a206c6f772d6c6576656c2063616c6c206661696c65648152508573ffffffffffffffffffffffffffffffffffffffff16615ef09092919063ffffffff16565b805190915015615d4c5780806020019051810190615dd19190616eaf565b615d4c576040517f08c379a000000000000000000000000000000000000000000000000000000000815260206004820152602a60248201527f5361666545524332303a204552433230206f7065726174696f6e20646964206e60448201527f6f742073756363656564000000000000000000000000000000000000000000006064820152608401610dfc565b606f5460ff1615615e9a576040517f2f0047fc00000000000000000000000000000000000000000000000000000000815260040160405180910390fd5b606f80547fffffffffffffffffffffffffffffffffffffffffffffffffffffffffffffff001660011790556040517f2261efe5aef6fedc1fd1550b25facc9181745623049c7901287030b9ad1a549790600090a1565b6060615eff8484600085615f07565b949350505050565b606082471015615f99576040517f08c379a000000000000000000000000000000000000000000000000000000000815260206004820152602660248201527f416464726573733a20696e73756666696369656e742062616c616e636520666f60448201527f722063616c6c00000000000000000000000000000000000000000000000000006064820152608401610dfc565b6000808673ffffffffffffffffffffffffffffffffffffffff168587604051615fc291906168df565b60006040518083038185875af1925050503d8060008114615fff576040519150601f19603f3d011682016040523d82523d6000602084013e616004565b606091505b509150915061601587838387616020565b979650505050505050565b606083156160b65782516000036160af5773ffffffffffffffffffffffffffffffffffffffff85163b6160af576040517f08c379a000000000000000000000000000000000000000000000000000000000815260206004820152601d60248201527f416464726573733a2063616c6c20746f206e6f6e2d636f6e74726163740000006044820152606401610dfc565b5081615eff565b615eff83838151156160cb5781518083602001fd5b806040517f08c379a0000000000000000000000000000000000000000000000000000000008152600401610dfc91906161da565b803567ffffffffffffffff811681146139dc57600080fd5b600080600080600060a0868803121561612f57600080fd5b616138866160ff565b9450616146602087016160ff565b9350616154604087016160ff565b94979396509394606081013594506080013592915050565b60005b8381101561618757818101518382015260200161616f565b50506000910152565b600081518084526161a881602086016020860161616c565b601f017fffffffffffffffffffffffffffffffffffffffffffffffffffffffffffffffe0169290920160200192915050565b6020815260006161ed6020830184616190565b9392505050565b806040810183101561620557600080fd5b92915050565b6000806000806000806000806101a0898b03121561622857600080fd5b616231896160ff565b975061623f60208a016160ff565b965061624d60408a016160ff565b9550606089013594506080890135935061626a8a60a08b016161f4565b925061016089018a81111561627e57600080fd5b60e08a01925061628e8b826161f4565b9150509295985092959890939650565b6000602082840312156162b057600080fd5b813561ffff811681146161ed57600080fd5b600080600080600060a086880312156162da57600080fd5b6162e3866160ff565b94506162f1602087016160ff565b94979496505050506040830135926060810135926080909101359150565b80610300810183101561620557600080fd5b6000806000806000806103a0878903121561633b57600080fd5b616344876160ff565b9550616352602088016160ff565b9450616360604088016160ff565b9350606087013592506080870135915061637d8860a0890161630f565b90509295509295509295565b60008060008060008060006103c0888a0312156163a557600080fd5b6163ae886160ff565b96506163bc602089016160ff565b95506163ca604089016160ff565b94506163d8606089016160ff565b93506080880135925060a088013591506163f58960c08a0161630f565b905092959891949750929550565b60006020828403121561641557600080fd5b6161ed826160ff565b803573ffffffffffffffffffffffffffffffffffffffff811681146139dc57600080fd5b60008083601f84011261645457600080fd5b50813567ffffffffffffffff81111561646c57600080fd5b60208301915083602082850101111561648457600080fd5b9250929050565b6000806000806000606086880312156164a357600080fd5b853567ffffffffffffffff808211156164bb57600080fd5b818801915088601f8301126164cf57600080fd5b8135818111156164de57600080fd5b8960208260071b85010111156164f357600080fd5b602083019750809650506165096020890161641e565b9450604088013591508082111561651f57600080fd5b5061652c88828901616442565b969995985093965092949392505050565b7f4e487b7100000000000000000000000000000000000000000000000000000000600052604160045260246000fd5b600082601f83011261657d57600080fd5b813567ffffffffffffffff808211156165985761659861653d565b604051601f83017fffffffffffffffffffffffffffffffffffffffffffffffffffffffffffffffe0908116603f011681019082821181831017156165de576165de61653d565b816040528381528660208588010111156165f757600080fd5b836020870160208301376000602085830101528094505050505092915050565b600080600080600060a0868803121561662f57600080fd5b85359450602086013567ffffffffffffffff81111561664d57600080fd5b6166598882890161656c565b9450506040860135925061666f606087016160ff565b915061667d6080870161641e565b90509295509295909350565b60006020828403121561669b57600080fd5b6161ed8261641e565b6000602082840312156166b657600080fd5b5035919050565b6000602082840312156166cf57600080fd5b813567ffffffffffffffff8111156166e657600080fd5b615eff8482850161656c565b60008060008060008086880361012081121561670d57600080fd5b60a081121561671b57600080fd5b5086955060a0870135945060c087013567ffffffffffffffff8082111561674157600080fd5b61674d8a838b0161656c565b955060e089013591508082111561676357600080fd5b61676f8a838b0161656c565b945061010089013591508082111561678657600080fd5b5061679389828a01616442565b979a9699509497509295939492505050565b600080602083850312156167b857600080fd5b823567ffffffffffffffff808211156167d057600080fd5b818501915085601f8301126167e457600080fd5b8135818111156167f357600080fd5b8660208260051b850101111561680857600080fd5b60209290920196919550909350505050565b6000806000806080858703121561683057600080fd5b616839856160ff565b93506020850135925061684e604086016160ff565b915061685c606086016160ff565b905092959194509250565b60008060006040848603121561687c57600080fd5b833567ffffffffffffffff81111561689357600080fd5b61689f86828701616442565b909790965060209590950135949350505050565b600080604083850312156168c657600080fd5b823591506168d6602084016160ff565b90509250929050565b600082516168f181846020870161616c565b9190910192915050565b60006020828403121561690d57600080fd5b5051919050565b7f4e487b7100000000000000000000000000000000000000000000000000000000600052601260045260246000fd5b60008261695257616952616914565b500690565b600181811c9082168061696b57607f821691505b6020821081036169a4577f4e487b7100000000000000000000000000000000000000000000000000000000600052602260045260246000fd5b50919050565b7f4e487b7100000000000000000000000000000000000000000000000000000000600052601160045260246000fd5b67ffffffffffffffff8181168382160190808211156169fa576169fa6169aa565b5092915050565b7f4e487b7100000000000000000000000000000000000000000000000000000000600052603260045260246000fd5b600060808284031215616a4257600080fd5b6040516080810181811067ffffffffffffffff82111715616a6557616a6561653d565b80604052508235815260208301356020820152616a84604084016160ff565b6040820152616a95606084016160ff565b60608201529392505050565b600067ffffffffffffffff808316818103616abe57616abe6169aa565b6001019392505050565b60007fffffffffffffffffffffffffffffffffffffffffffffffffffffffffffffffff8203616af957616af96169aa565b5060010190565b8183528181602085013750600060208284010152600060207fffffffffffffffffffffffffffffffffffffffffffffffffffffffffffffffe0601f840116840101905092915050565b838152604060208201526000616b63604083018486616b00565b95945050505050565b67ffffffffffffffff8281168282160390808211156169fa576169fa6169aa565b81810381811115616205576162056169aa565b8082028115828204841417616205576162056169aa565b600082616bc657616bc6616914565b500490565b601f821115615d4c57600081815260208120601f850160051c81016020861015616bf25750805b601f850160051c820191505b81811015616c1157828155600101616bfe565b505050505050565b815167ffffffffffffffff811115616c3357616c3361653d565b616c4781616c418454616957565b84616bcb565b602080601f831160018114616c9a5760008415616c645750858301515b7fffffffffffffffffffffffffffffffffffffffffffffffffffffffffffffffff600386901b1c1916600185901b178555616c11565b6000858152602081207fffffffffffffffffffffffffffffffffffffffffffffffffffffffffffffffe08616915b82811015616ce757888601518255948401946001909101908401616cc8565b5085821015616d2357878501517fffffffffffffffffffffffffffffffffffffffffffffffffffffffffffffffff600388901b60f8161c191681555b5050505050600190811b01905550565b600067ffffffffffffffff808716835280861660208401525060606040830152616d61606083018486616b00565b9695505050505050565b80820180821115616205576162056169aa565b600082357fffffffffffffffffffffffffffffffffffffffffffffffffffffffffffffffa18336030181126168f157600080fd5b600060608236031215616dc457600080fd5b6040516060810167ffffffffffffffff8282108183111715616de857616de861653d565b816040528435915080821115616dfd57600080fd5b50616e0a3682860161656c565b82525060208301356020820152616e23604084016160ff565b604082015292915050565b8183823760009101908152919050565b84815273ffffffffffffffffffffffffffffffffffffffff84166020820152606060408201526000616d61606083018486616b00565b61032081016103008085843782018360005b6001811015616ea5578151835260209283019290910190600101616e86565b5050509392505050565b600060208284031215616ec157600080fd5b815180151581146161ed57600080fd5b600067ffffffffffffffff80841680616eec57616eec616914565b9216919091049291505056fea26469706673582212209ef45886237a36c98225efcce99f58b6a8e51fb605819969b7648e430060609364736f6c63430008140033",
  "linkReferences": {},
  "deployedLinkReferences": {}
}